:020000040000fa
:080000001c02040000000000d6
:020000040000fa
:040008002c040000c4
:020000040000fa
:04000c002c040000c0
:020000040000fa
:040010002c040000bc
:020000040000fa
:040014002c040000b8
:020000040000fa
:040018002c040000b4
:020000040000fa
:04001c002c040000b0
:020000040000fa
:040020002c040000ac
:020000040000fa
:040024002c040000a8
:020000040000fa
:040028002c040000a4
:020000040000fa
:04002c002c040000a0
:020000040000fa
:040030002c0400009c
:020000040000fa
:04003400ba0300000b
:020000040000fa
:040038002c04000094
:020000040000fa
:04003c002c04000090
:020000040000fa
:040040002c0400008c
:020000040000fa
:040044002c04000088
:020000040000fa
:04004800b003000001
:020000040000fa
:04004c002c04000080
:020000040000fa
:040050002c0400007c
:020000040000fa
:040054003c03000069
:020000040000fa
:04005800840300001d
:020000040000fa
:04005c001603000087
:020000040000fa
:040060002c0400006c
:020000040000fa
:040064002c04000068
:020000040000fa
:040068002c04000064
:020000040000fa
:04006c002c04000060
:020000040000fa
:040070002c0400005c
:020000040000fa
:040074002c04000058
:020000040000fa
:040078002c04000054
:020000040000fa
:04007c002c04000050
:020000040000fa
:040080002c0400004c
:020000040000fa
:040084002c04000048
:020000040000fa
:040088002c04000044
:020000040000fa
:04008c002c04000040
:020000040000fa
:040090002c0400003c
:020000040000fa
:040094000a0400005a
:020000040000fa
:040098002c04000034
:020000040000fa
:04009c002c04000030
:020000040000fa
:0400a0002c0400002c
:020000040000fa
:0400a4002c04000028
:020000040000fa
:0400a8002c04000024
:020000040000fa
:0400ac002c04000020
:020000040000fa
:0400b0002c0400001c
:020000040000fa
:0400b4002c04000018
:020000040000fa
:0400b8002c04000014
:020000040000fa
:0400bc002c04000010
:020000040000fa
:0400c0002c0400000c
:020000040000fa
:0400c4002c04000008
:020000040000fa
:0400c8002c04000004
:020000040000fa
:0400cc002c04000000
:020000040000fa
:0400d0002c040000fc
:020000040000fa
:0400d4002c040000f8
:020000040000fa
:0400d8002c040000f4
:020000040000fa
:0400dc002c040000f0
:020000040000fa
:0400e0002c040000ec
:020000040000fa
:0400e4002c040000e8
:020000040000fa
:0400e8002c040000e4
:020000040000fa
:0400ec002c040000e0
:020000040000fa
:0400f0002c040000dc
:020000040000fa
:0400f4002c040000d8
:020000040000fa
:0400f8002c040000d4
:020000040000fa
:0400fc002c040000d0
:020000040000fa
:040100002c040000cb
:020000040000fa
:040104002c040000c7
:020000040000fa
:040108002c040000c3
:020000040000fa
:04010c002c040000bf
:020000040000fa
:040110002c040000bb
:020000040000fa
:040114002c040000b7
:020000040000fa
:040118002c040000b3
:020000040000fa
:04011c002c040000af
:020000040000fa
:040120002c040000ab
:020000040000fa
:040124002c040000a7
:020000040000fa
:040128002c040000a3
:020000040000fa
:04012c002c0400009f
:020000040000fa
:040130002c0400009b
:020000040000fa
:040134002c04000097
:020000040000fa
:040138002c04000093
:020000040000fa
:04013c002c0400008f
:020000040000fa
:040140002c0400008b
:020000040000fa
:040144002c04000087
:020000040000fa
:040148002c04000083
:020000040000fa
:04014c002c0400007f
:020000040000fa
:040150002c0400007b
:020000040000fa
:040154002c04000077
:020000040000fa
:040158002c04000073
:020000040000fa
:04015c002c0400006f
:020000040000fa
:040160002c0400006b
:020000040000fa
:040164002c04000067
:020000040000fa
:040168002c04000063
:020000040000fa
:04016c002c0400005f
:020000040000fa
:040170002c0400005b
:020000040000fa
:040174002c04000057
:020000040000fa
:040178002c04000053
:020000040000fa
:04017c002c0400004f
:020000040000fa
:040180002c0400004b
:020000040000fa
:040184002c04000047
:020000040000fa
:040188002c04000043
:020000040000fa
:04018c002c0400003f
:020000040000fa
:040190002c0400003b
:020000040000fa
:040194002c04000037
:020000040000fa
:040198002c04000033
:020000040000fa
:04019c002c0400002f
:020000040000fa
:0401a0002c0400002b
:020000040000fa
:0401a4002c04000027
:020000040000fa
:0401a8002c04000023
:020000040000fa
:0401ac002c0400001f
:020000040000fa
:0401b0002c0400001b
:020000040000fa
:0401b4002c04000017
:020000040000fa
:0401b8002c04000013
:020000040000fa
:0401bc002c0400000f
:020000040000fa
:0401c0002c0400000b
:020000040000fa
:0401c4002c04000007
:020000040000fa
:0401c8002c04000003
:020000040000fa
:0401cc002c040000ff
:020000040000fa
:0401d0002c040000fb
:020000040000fa
:0401d4002c040000f7
:020000040000fa
:0401d8002c040000f3
:020000040000fa
:0401dc002c040000ef
:020000040000fa
:0401e0002c040000eb
:020000040000fa
:0401e4002c040000e7
:020000040000fa
:0401e8002c040000e3
:020000040000fa
:0401ec002c040000df
:020000040000fa
:0401f0002c040000db
:020000040000fa
:0401f4002c040000d7
:020000040000fa
:0401f8002c040000d3
:020000040000fa
:0401fc002c040000cf
:020000040000fa
:040200002c040000ca
:020000040000fa
:040204002c040000c6
:020000040000fa
:040208002c040000c2
:020000040000fa
:04020c002c040000be
:020000040000fa
:040210002c040000ba
:020000040000fa
:040214002c040000b6
:020000040000fa
:040218002c040000b2
:020000040000fa
:04021c002c040000ae
:020000040000fa
:040220002c040000aa
:020000040000fa
:040224002c040000a6
:020000040000fa
:040228002c040000a2
:020000040000fa
:04022c002c0400009e
:020000040000fa
:040230002c0400009a
:020000040000fa
:040234002c04000096
:020000040000fa
:040238002c04000092
:020000040000fa
:04023c002c0400008e
:020000040000fa
:040240002c0400008a
:020000040000fa
:040244002c04000086
:020000040000fa
:040248002c04000082
:020000040000fa
:04024c002c0400007e
:020000040000fa
:040250002c0400007a
:020000040000fa
:040254002c04000076
:020000040000fa
:040258002c04000072
:020000040000fa
:04025c002c0400006e
:020000040000fa
:040260002c0400006a
:020000040000fa
:040264002c04000066
:020000040000fa
:10040000f03fb1000180b10006003500ee030900a5
:1004100000000000403fb1000180b100fbff3d0043
:100420001000b000203fb00002003500008009003d
:1004300000000000000006000f4421000eff27000e
:100440000e01880000000000000020000000e00015
:100450000200320000012000200288001400070082
:10046000ff0007000000e00003003a0040d0230036
:1004700001002000020037000000200001002000e1
:10048000810f7000010032000f0007000000200003
:100490000000e00002003200000002000000000046
:1004a00068160200000000000040da000000fe00b4
:1004b000200020000000e0000200320010002000b8
:1004c0009001880000000600a102880080047800e6
:1004d0000000eb001f003700e284440054a0b40089
:1004e0009905ba00e284440054a0b4009906ba0009
:1004f000e284440054a0b4000006eb00476fde0025
:10050000fd07b200ae018800636ce10003003a0011
:100510000ad801000000eb000e003700606ce1001b
:1005200008003a00004deb000a05e800020039001f
:100530003420ec000af0a0008b05e900f9ff3e0032
:10054000040037006168e100010032000086eb0022
:100550000b00070019c7ba000e04e0001905ba0025
:1005600003003a000a00e000dbff3a00000006004a
:10057000fe07b200ae0288008a047800f5ff37005b
:100580000cd0a300e20f4d001c003b008902780054
:10059000354dba000a05e800020039003420ec00ad
:1005a0000af0a0008b05e9000f003200254dba00cb
:1005b0000a05e800020039003420ec000af0a0002f
:1005c0008b05e900080032000c00e0000600320054
:1005d00015cdba000a05e800020039003420ec000d
:1005e0000af0a0008b05e9008984e80054a0b4005b
:1005f0000b00e000e2ff3a00000006009902ba009a
:10060000055d78008b05e900f7ff3200c82ade009f
:10061000055d78008b05e900f3ff32000c00e00077
:10062000f1ff320019ddba00eeff3700801f7800bd
:100630000000fa0001a8a9000018800060a188004d
:100640001018800070a188002018800080a1880008
:100650003018800090a1880040188000a0a1880078
:1006600010c0b30053f0b700000000000080fa0093
:100670004f007800004006003600f800809fbe0062
:10068000829fbe00849fbe00869fbe000000fa00cd
:100690000168a900101180004200de006140600086
:1006a000e14f500001003a002242a90010118000e1
:1006b0000000d10061406000e14f500005003a00a9
:1006c0002222a9000300370030118000004078008a
:1006d0001d1e07001011800000407800614060007e
:1006e000e14f5000f8ff3200000000000080fa00e7
:1006f0004f03be004f02be004f01be004f00be00c0
:100700003600f900004006003600f800809fbe0069
:10071000829fbe00849fbe00869fbe000000fa003c
:100720000188a90001828000f0818000808f500044
:10073000020032008a1c0700010037004270ef00ff
:10074000000000000080fa004f03be004f02be0010
:100750004f01be004f00be003600f9000040060009
:100760000000fa000108a900000000000080fa0063
:10077000004006003600f800809fbe00829fbe0049
:10078000849fbe00869fbe000000fa000068a9009a
:100790008e1d07009b170700fd150700a08b80002a
:1007a0000000e00003003a00ec0a070095eea80004
:1007b00006003700a08b8000e10f500003003a00d4
:1007c000551207009f0d070095eea900b08180002b
:1007d0000000e800b0818800b0818000f80f500070
:1007e00004003400f4180700e9120700da100700cb
:1007f0003630ef00000000000080fa004f03be001a
:100800004f02be004f01be004f00be003600f9008f
:1008100000400600809fbe00829fbe000000fa00dc
:100820000368a900d2818000e381800010002000cd
:10083000010020000200400083804800d081880031
:10084000e1818800000000000080fa004f01be0036
:100850004f00be00004006000040da000000fe002d
:100860000000050014002000af033700f4ff2f0044
:10087000ad0337000001be00410007000470a7006f
:1008800003f0a1006509b100160032000d0035002b
:100890006828e10006003500f0ff2f00f1ff270077
:1008a0000300e00013003b000100280000000500e9
:1008b00000004000818048008502e900fcff3a000a
:1008c00008003700f88f420002003c008000eb0077
:1008d000000005008100d1000080d3008502e800ff
:1008e000fcff3a000300e00002003b006000100043
:1008f000e0801800000006000001be002000070094
:100900000470a70003f0a10003f8a30013003a004d
:100910006509b10010003200090035006928e100c6
:100920000200350001002800000005000000400022
:10093000818048008502e900fcff3a0000000600c3
:10094000f88f4200050035008100d1000080d300ff
:100950008502e800fcff3a00000006008000eb0082
:10096000000005004f89de0082017800890337000e
:100970006011b80097033700040020006a033700b5
:10098000c70ade00f107b200f50fb200080032001e
:10099000e1cf4200020032000170a00024000500f7
:1009a000810f7000010032000408050044000500ba
:1009b000810f700002003a00140005008502e90072
:1009c0000000400081c04800fcff3b000170a00017
:1009d0002400050007f82700078361000638e100be
:1009e00004003a00f7072000878361008703710045
:1009f00001003a0003f0a200889fbe008a9fbe005b
:100a00008c9fbe00470ade000480a100c71ade00ea
:100a10000580a10007002800078560008785610028
:100a2000f70f20000720e1009e0032000728e100b8
:100a30009c003200010678000400e000b40032009f
:100a4000f7072000878060000170a0000500e0002b
:100a5000c0003200f7072000878161000370a0000a
:100a6000050652000f003a000b50e1000b00320067
:100a70000308e10002003a000200e1007e003200bb
:100a80000204500083845800040031000001fd007e
:100a90008101fd008402fd008a05fd006044b8006c
:100aa000210037000520e10005003d000001fd00a8
:100ab0008101fd008402fd008a05fd00050652004b
:100ac0007a60e100050035000170a1004722dd00d9
:100ad000848070008a807000630037006044b80032
:100ae000ef02660007ff2f00070666000500e00022
:100af00006003400f08312008714dd000511de00cb
:100b0000071bdd00060171008519de007060e10041
:100b1000050035000904780082047800030178009c
:100b20008001eb00700656000b50e10003003a0014
:100b30000200400083804800040037006004140075
:100b4000e0841c0002005800838058000188a30044
:100b5000060032008100d1000080d3008984d300d8
:100b60000884d3000402e800270037000178a300be
:100b700025003a000100e000030032008186cf002a
:100b8000698656000a0037008c0020000000e00053
:100b900004003a0009007800880478000004eb00a3
:100ba000700252008086cf000d0646000c06e90058
:100bb0007060e100060035008000780009007800d0
:100bc000880478000004eb007006560070025200a2
:100bd0000c00e0000c0034008c08dd00f00316006f
:100be0000703de00868070000c00dd00074bde008e
:100bf000060070008c4cdd000743de008684740024
:100c00000c44dd000c0252006120e10020003500a0
:100c1000610160000700280087816400f7ff27005a
:100c200087836400070374000300e00006003200bd
:100c300082037300040032000000e800e0804800f6
:100c40000188a3000e003a00f70f20000720e10002
:100c50004a003d000170a1004722dd0081007200c2
:100c60008a8070000000be004f06be004f05be0027
:100c70004f04be00000006006000b800faff370015
:100c80008100d1000080d3000402e800eeff3700ad
:100c90000401780089017400a10107008a807000b6
:100ca000f1ff3700f7010700070278000001fd009f
:100cb0008101fd00f30107008702780085037200bf
:100cc0000778a300040032000001fd008101fd004f
:100cd00006020700e4ff3700850362000768a300ef
:100ce000080032000b50e10003003200f0ff2f003b
:100cf000f1ff2700dcff37000001fd008101fd004e
:100d0000d9ff37000468a300d7ff3200faff37008d
:100d1000f8ff2700888360000b003a000000e00025
:100d200009003a00830364008283730002003200ea
:100d30000200be00ccff37000b50e100ceff3a00ae
:100d40000200be00c8ff37001400200081006400cc
:100d50003eff3700f8ff27008883610004003a0057
:100d60000200e00002003a008c007800beff37006d
:100d7000150020008301640039ff370001f82700c7
:100d80000000200081007500b7ff3700889fbe007b
:100d90008a9fbe008c9fbe001b0020000202be0086
:100da0000586680006002800060666004709de0082
:100db000f20fb200820032000243e80080003200ed
:100dc000c729de00f30fb2007d0032000343e800c4
:100dd0007b003200f107b2000170a000f507b200fd
:100de0000570a000c708dd004903de0086807000a2
:100df0004700dd00c72add004923de00868272003d
:100e00004722dd000305510004035000858358008c
:100e10000300310000004000818048000a05e9001d
:100e20008c1f78008a9fbe00040050008580580007
:100e30000402420085824a00000040008180480090
:100e40000005eb000004be006033b8000406be00dd
:100e50000d48e10056003100110009004dccd800ca
:100e60000c01b8000d02b8008481410060824a0084
:100e70008283530003045c0084845c0060055d0091
:100e80000a00e00025003a00800578000d40e100ee
:100e9000490031008800780007007800110009003f
:100ea0004d88d8000c01b8000d02b80084814100c3
:100eb00060824a006003110083835b0004045c00cd
:100ec000e0845c000900e00021003a004f01be0010
:100ed0000300e0002b003200e3016000070673000e
:100ee0008c81710001003200640070004200de005d
:100ef0004e5edd000c007000c258de0001e0a00074
:100f000083010700cf017800818071004f06be0089
:100f10004f05be004f04be00000006008c83430056
:100f20000d044c00e0844c0060054d000000e90019
:100f30000a00e000d4ff32008c8343000d044c0013
:100f4000e0844c0060054d000000e900ceff370052
:100f50000c0343008d834b0060044c00e0844c0084
:100f60000000e9000900e000d8ff32000c03430054
:100f70008d834b0060044c00e0844c000000e900cd
:100f8000d2ff37004200de004e5edd000c00700034
:100f9000c258de0001e0a000cf0178000300e000ad
:100fa000daff320060001000e0801800d7ff370041
:100fb000f0ff2f00aaff3700f0ff2f00b9ff370026
:100fc0000404be002f010700870678000004fd001e
:100fd0008104fd002b010700078366000678a3004b
:100fe000030032000960a7000800be002c00370093
:100ff0000d78a300020032000800be002800370070
:101000000778a30026003a0001f0a10009f0a10032
:101010000668a30003003200f1ff2700f0ff2f0055
:10102000baff37000d68a300030032000800be00bd
:101030008c807000b5ff37000768a30007003a00f6
:101040000648a30003003200f1ff2700f0ff2f0045
:10105000aeff37000d48a300030032006000b80067
:101060008c807000a9ff37000748a30004003200fd
:1010700001f82700000020008c807000a3ff3700db
:10108000760107000004fd008104fd0002057800e0
:10109000720107000802be008a01780059ff37007c
:1010a0000160a00012022000a282880097ff370092
:1010b0000100e000120032000500e00010003200e4
:1010c000889fbe008a9fbe008c9fbe000006eb007a
:1010d00001f8a3000300320060001000e080180057
:1010e0000cf0a00005f8a30003003200600212001b
:1010f000e0821a000cf0a2008005eb0041ff3700ef
:101100006000b800020005000383680007002800a3
:1011100007036300470ade000480a100c71ade004f
:101120000580a100f70f20000720e10042003200f7
:101130000728e10040003200889fbe008a9fbe0061
:101140008c1f7800f107b200f307b2000400e00042
:10115000640032000170a0000500e0006800320069
:101160000370a00085054200eb07b1000204b8003f
:101170000302b8008484440060854a00020ab80073
:10118000848444000a854a00030ab8000405450027
:10119000040033000804d0008984d2000a85d200fc
:1011a0008b05e9006158e1003d0035000210200088
:1011b000090161000308200089816100f707200010
:1011c0008783640008867300c84cde00c853dd00c6
:1011d000878474004855de000300e00006003200fa
:1011e00082037600040032008904e80060054d00a7
:1011f0000a88a3000c003a00f70f20000758e1000e
:1012000044003d000a70a100c75ddd000a8575003d
:101210008a007300090078004f0678004f05be0071
:101220004f04be00000006000a05d1008984d300e7
:101230008b05e800f0ff3700881f7800060478006f
:1012400090000700070278000001fd008101fd0009
:101250008c00070087027800850372000778a300de
:10126000050032000001fd008101fd009f00070024
:101270004f04780000000600850372000748a300b1
:1012800003003200f0ff2f00f1ff2700f8ff3700c6
:101290000000200001f8270088807000f4ff37006c
:1012a000880178004848dd00808171004848de00f0
:1012b000c850dd0001007000c850de000604780050
:1012c0000b0178001600070088807000d2ff3700fd
:1012d0000500e00005003200170020003a0007007a
:1012e0009dff370081037000f9ff3a008600780007
:1012f0004f0678004f05be004f04be0000000500f9
:1013000083037100f9ff3200270020002e00070040
:1013100094ff370001f8270086807000f4ff370043
:101320000100e00026003200610111007810e100a8
:1013300023003c006022b8007010e100040035007a
:1013400080027800010078008000eb0070015100fd
:101350000200e0000900340070031100062add00dd
:10136000822ade008603dd00878272000200de0032
:10137000860bdd00070070008208de0084817100aa
:10138000f4ff2700048262008481710004002800b9
:10139000848262006102600005f0a6000000060081
:1013a00004827100070032000000e800e08048007d
:1013b000000006000002be006000b800efff37002a
:1013c0006000b80000000600889fbe000004eb002b
:1013d0006138e10016003a000100e00008003a0020
:1013e000c800de004800dd00880020000100e000a9
:1013f00003003a00c800de004800dd006804440035
:101400008184cf00e9845400060034008908dd009f
:10141000f08314008703de00878070000900dd0080
:1014200009044400610214004f04be0000000600dd
:101430000300e00008003a00c811de004811dd009a
:10144000880020000300e00003003a00c811de001d
:101450004811dd00680444008384cf00e98454000f
:10146000060034008919dd00f08314008713de00c4
:10147000878171000911dd0009044400e1021400b4
:10148000e9ff37002700200001f0a7001700200027
:10149000470bde00f60fb200040032000643e800fe
:1014a0000a0032004702b300000006000103780082
:1014b000f607b2000603700002003a000703b3000b
:1014c000000006008702b300000006000103780058
:1014d000f607b20006037000020032000770a00099
:1014e000000006000760a000000006000478a300ca
:1014f000040032000578a300030032000168a30055
:1015000001003a000200be000160a00000000600d9
:1015100081017000270032008002eb0001f8a30077
:101520000300320060001000e08018001500200069
:10153000f40720000202420020003400f7032000dc
:1015400087036000060420000003630002082000f7
:10155000000161004700de00c909dd000080710064
:10156000c708de000600e0000800320087037100b3
:10157000060032001000b0000180b0000188a30016
:1015800002003200c108de000402e800f107b200e8
:10159000f30f20000320e10003003d004722dd009f
:1015a000810072002900370001f827000000eb00dd
:1015b000260037006000b800000006006802120034
:1015c0007f20e100020034006000b8001f003700f7
:1015d0006011b8007020e10004003500800178003f
:1015e000010078008000eb00700252000400e0006f
:1015f00009003400f00312000719dd008419de0031
:101600000703dd00868171000400de00070bdd00aa
:10161000060070008408de00f7ff27008383630064
:1016200087037100060028000303630007003200ef
:101630000700e00003003a006101600002817300ce
:10164000020032001000b0000180b0000500a600ca
:101650000000060001f0a000000006004f0ade00b6
:101660004709de00f107b200f20fb2000b003200b2
:10167000f207b1000170a000c708dd00c901de005b
:10168000838070004700dd000400a6000000060013
:1016900060001000e080180000000600810f70005c
:1016a00001003a00000006008182cf000500e00042
:1016b00010003e008082cf00ee8242007028e100e0
:1016c0000400390007003e00800078000000eb00b5
:1016d0000e003700708312008600de000500dd007a
:1016e0000a003700708352008600dd000000eb0026
:1016f00006003700e28252008508dd007083120088
:101700000603de00868070000500dd007507b0006e
:101710000501ea000400a6000000060060001000b9
:10172000e080180000000600889fbe008a9fbe006f
:10173000841f78007c0007004f0078001100330000
:10174000f0ff2f00838f6c0006003b00040565004e
:101750000a00a7000800370009f0a60010002000ca
:1017600008003700820f5400838f5c0003003900ab
:101770001000200001003e000000200009f0a7003a
:101780000000ea004f05be004f04be000000e0006c
:1017900000000600881f7800030478000300e000c2
:1017a00007003d0060001000e08018006001190093
:1017b000e081190002003b0001f02d00030037001a
:1017c0000400070008f0a70001f0a0004f04780013
:1017d00000000600889fbe008a9fbe000082700045
:1017e0000402710004827100260032000004be0071
:1017f0000200be006011b8006b09200095022000b5
:101800000182cf000a0039000541b1000082cf00fb
:10181000070039000541b1000982cf0004003900fa
:101820000541b1000882cf00010039000541b10037
:1018300005425200120032000a003b008281710012
:10184000610164008100d1000080d3008984d3004d
:101850000884d3008b05e8000442e800f7ff3a0053
:10186000070037000804440089844c000000480049
:10187000818048008b05e9000442e900f9ff3a0045
:10188000030007004f05be004f04be000000060025
:1018900081002000618055000b003d000b002000fe
:1018a00061fe2f000100e1001d0034008281710003
:1018b000610164008904d1000884d3000000e800bd
:1018c000faff3a007100200061006400030070001c
:1018d000020060000900320061044400e0844c0012
:1018e0000988a500050032008b05e8006808e100c2
:1018f00002003a008904d1000884d300f20f2000ce
:101900000258e10005003d00c75ddd00f907b200a7
:101910008980750008007800000006000bf8270099
:101920008b007800000005000004be0014fc0700d6
:101930000003be000405be000200be0010fc07004c
:10194000844f7500000006000400fa00889fbe0066
:101950008a9fbe008c9fbe000205be000bf0a10056
:101960000800200009f82700880f5500898f5d00c6
:1019700005003e000003be0007f0a100880f5300e1
:10198000898f5b00060036001bfc07004f06be0077
:101990004f05be004f04be000080fa0000000600a4
:1019a0000800200009f82300880f5100898f590092
:1019b00002003a0097000700f4ff37004e1cde00db
:1019c0000900200088bf9f0099bf9f000fbe9700ad
:1019d000620466008004eb004f0ade000500200070
:1019e0000404740085847400e00f5300e08f5b00f2
:1019f00009003a00e20f5400e08f5c007f003200e3
:101a0000e20f5400e08f5c00e0ff3900e30f540068
:101a1000e08f5c005f003200e00f5500e08f5d005a
:101a200008003a00610064008000eb00e00f500005
:101a3000e08f580074003200b0fd200091fc2b00b4
:101a4000d2ff37000400200005f82700840f55005e
:101a5000858f5d000f003a008a0f53008b8f5b006b
:101a600040003a00e10f5400e08f5c005800320063
:101a7000e00f5400e08f5c0058003200e20f540089
:101a8000e08f5c002b003200e30f5400e08f5c001d
:101a9000310032000c0020000dd020000a02460068
:101aa0008b824e00840f5300858f5b00ddff3e006c
:101ab0000400200005f82700840f5300858f5b0089
:101ac000d8ff3200620264008002eb00e00f520097
:101ad000e08f5a00050032000606460087864e0059
:101ae0008c0f55008d8f5d002d003e00a7fc070078
:101af0008101070047000700e10f5400e08f5c0000
:101b000029003200e00f5400e08f5c009fff32009c
:101b1000e20f5400e08f5c0025003200e2d22b007f
:101b2000b33b2300b4fb0700b2fd20009304240064
:101b3000250037000200200003042400b0fd20002f
:101b40009104240070fd07000200200003e8230038
:101b50006dfd07008dff37000200200003042c00fc
:101b6000f6ff3700e10f5400e08f5c001e003200ea
:101b7000e00f5400e08f5c001e003200e20f5400c2
:101b8000e08f5c001d003200e30f5400e08f5c002a
:101b9000c0ff3a00b0fd200091042c007bff37000d
:101ba0006000b800d4ff370001f0a20077ff3700d3
:101bb000e2d22b00b33b23008ffb07000001be00e5
:101bc000b0fd20009104240082fb07006fff370066
:101bd000b0fd200091f42b006cff3700b0fd200019
:101be00091f4230069ff3700000020000100280065
:101bf00066ff37006000b80064ff3700b0fd2000ca
:101c00009104240061ff3700b0fd200091fc230007
:101c10005eff3700ea874700889fbe008a9fbe00ac
:101c20008c9fbe008e1f78000002be004f0dde00ac
:101c30000b002000000478008504780009f0a10062
:101c4000f0ff2f00f1c72400800f5400818f5c004b
:101c5000100036000000200001f82700800f54001b
:101c6000818f5c0025003e00020020000338200028
:101c7000a0fd200091fc23005ffb07000002be00d6
:101c8000e00f5500e08f5d001c00320005f0a2005f
:101c90001a003700f0ff2f00f1ed2300800f5400f1
:101ca000818f5c001c003e000087eb00f0ff2f00de
:101cb000f1972300800f5400818f5c0033003e00b9
:101cc0006000b80003f8270085806100e00f500035
:101cd000e08f580009003a000401be000400be0075
:101ce000f4b79f0085bf9f0007fd0700d0b79f0096
:101cf000e1b79f007fb297008fba97000400be0043
:101d00004f0778004f06be004f05be004f04be00cf
:101d1000af00b100000006000400be00f60007009e
:101d20000006be00f0ff2f0071f92300800f540061
:101d3000818f5c0055003e00f0ff2f00f1f2230080
:101d4000800f5400818f5c0041003e000c01be00fa
:101d50000c00be0028fb07000200200003f823004f
:101d60001cfb07000004be0002002000030024004a
:101d70000c00be0020fb07000001be000800be00f2
:101d800002fc07000002be000007eb000401be00d9
:101d90000400be00f4b79f0085bf9f00dafc070077
:101da0000006be000001be00d7fc07000004be0014
:101db00052c22a00c3d72300d3fc0700d2502f0001
:101dc00013e123000cfb07000801be00cefc070056
:101dd00092aa2a00a3ea230007fb07000c01be0019
:101de000c9fc07000006be0072242100a3dd2b0001
:101df0000800be00c4fc070082a92c00c3e4230035
:101e0000f4fa07000801be00bffc07000001be0095
:101e10000c00be00f8fa07007fb297008fba970057
:101e20000401be00b8fc07000003be000e00e00085
:101e30007fb297008fba970032003d000001be00cc
:101e40000400be00e3fa07000002be00abff37004b
:101e50000200200003f823000c00be00ddfa07009a
:101e60000004be000200200003f823000c00be00a6
:101e7000e1fa07000001be000800be00c3fb070036
:101e80000002be001e002000c0ff3700f0ff2f0040
:101e9000b1012400800f5400818f5c0012003e00cd
:101ea0000200200003fc23000c00be00c9fa07005a
:101eb0000004be000200200003fc23000c00be0052
:101ec00091fc07000200200003f82300cafa070073
:101ed0000001be000800be00acfb07000002be000f
:101ee0002e002000a9ff37000c01be0000002000da
:101ef00001f82b00a5fb07000002be003e002000f9
:101f0000a2ff37004277dd00c84121000e044400e3
:101f1000c04021000e0740001e0178009e01900085
:101f20000600be00f4b79f0085bf9f00a9fa070016
:101f30007fb297008fba97000401be00a5fa070090
:101f40000001be001800780098009000a1fa070078
:101f50004aff37000400fa000001be0003f0a100b0
:101f6000a4fd200095f42300840f5100858f5900b3
:101f70000e003e00f4ff2f00f5972300840f510060
:101f8000858f59003a003e000200200003b8270068
:101f900099fa0700e0bf9f00f1bf9f0000002000fa
:101fa00001f823000080fa00000006004f0ade005e
:101fb00005002000163d2500b7072400860f5100bc
:101fc000878f59001b003e0036be2c00670124009d
:101fd000860f5100878f59000a003600b2fd20009d
:101fe000930424000400e0000400320082fa070099
:101ff0003a02070001f0a200eaff370075fa070075
:10200000fbff37000400e00005003200b2fd2000b5
:1020100093fc230078fa0700bb020700e1ff3700ba
:102020000001be00b0fd200091fc230069fa07000a
:10203000f9ff3700561d2300270e2400860f51009c
:10204000878f590014003e00f6dd2e00f70a2400a9
:10205000860f5100878f590009003600b2fd20001d
:10206000930c24000400e0000300320062fa070031
:102070001a020700cbff370056fa0700fcff3700b3
:102080000400e0000100320001f0a20042be2c007a
:1020900063092400e5ff3700f4ff2f00f5f7270060
:1020a000840f5100858f5900040036000001be00e6
:1020b0000200be0047fa0700baff3700c2ff2f0038
:1020c0000f01410039020700630160006fb89700fb
:1020d000ffb89700e10f510005003200e20f5100f8
:1020e000c3ff32000200e000cbff3a00e0ff370000
:1020f00001f0a200c8ff37000101780002f0a10042
:1021000082007800000006000400fa00889fbe00ec
:102110008a9fbe000203410083834900e00f530001
:10212000e08f5b000f0032000202be0005f0a1004c
:102130000800200009f82700880f5200898f5a00f4
:1021400008003e00a0bf9f00b1bf9f00470dde000a
:102150000b002000f40f20000a056200840f5500d8
:1021600007003a00e8fb07000001be0007fb07007c
:102170004f05be004f04be000080fa0000000600bc
:102180000002400081824800840f5300858f5b006d
:1021900006003900840f5300858f5b00f4ff3a007e
:1021a0006011b800d8fb0700f1ff37000a00e0001b
:1021b0004c003a002fbb9700bfbb9700493add00a7
:1021c000c732de00850272004932dd00e00f5200a6
:1021d000e08f5a003f003d00610215002fbb9700c1
:1021e000bfbb9700040478000804e9000300330033
:1021f0000603430087834b00fbff37000602be0047
:10220000471bde00070020000683fb000600e000fd
:102210003d003a00491cdd00c714de00890474004b
:102220004914dd00e00f5400e08f5c0032003d00f7
:10223000e10313000204be008703e900030033003a
:102240000804440089844c00fbff37000801520059
:1022500089815a00860f55002f003c00e00f510085
:10226000e08f590004003500e00f5100e08f590065
:10227000cbff32000202be004728de000100200032
:10228000e00f5000e08f58002e0032000a00e000fe
:10229000300034000000200001f82f00040240004c
:1022a000858248006150b900c700dd0000002000b1
:1022b00004007000858070006022b80002002800d1
:1022c000bfb9970083026100000072008180720034
:1022d000a7ff37000a05e9000402420085824a0090
:1022e000baff37002fba9700bfba9700f507b200c0
:1022f0000570a000c2ff37000603e900080444008f
:1023000089844c00c7ff37000204be00f907b20001
:102310000970a000cdff3700e00f5100e08f590099
:1023200004003500e00f5100e08f59009cff32009f
:102330000202be000402420085824a000a05e9004a
:10234000c2ff37000402420085824a000a05e90004
:10235000c9ff3700610515000400be000a05e90049
:10236000030033008100d1000080d300fbff370061
:10237000d1ff37000800fa00889fbe008a9fbe0088
:102380008c9fbe000004be004708de000086fb00f4
:1023900050092000800f560014003c0088bf9f00a9
:1023a00099bf9f000805be00e00f5400e08f5c005d
:1023b00001003d000bf0a2000200200003b0240049
:1023c0000a00be008cf90700d2072000820f5600d9
:1023d0000c003c00e0b79f00f1b79f006011b8000f
:1023e0000800be0048fb07000004be000800be0055
:1023f0004f06be004f05be004f04be000080fa002d
:10240000000006000200200003b0240071f907005c
:102410000a01be006ff907000006be000001be0001
:102420000a00be0074f907000004be00020020008c
:1024300003f023000c00be000cf907000000e000d0
:102440000c0034000200200003f823000800be0046
:1024500060f907000004be000fb897009fb897000e
:10246000e00f5000e08f5800e0ff3d0009f0a200af
:10247000deff37000200200003f02b000c00be003e
:10248000f8f807000000e000f3ff3c000200200025
:1024900003f823000800be0057f90700edff3700de
:1024a0000400fa00889fbe000004be008900780086
:1024b00001f0a100a4fd200095f42300840f50003a
:1024c000858f58001e003e00f4ff2f00f597230073
:1024d000840f5000858f580016003e006000b80041
:1024e00003f8270089806100e00f5000e08f58005a
:1024f0000b003a0002002000033820000800be0054
:1025000001fb07000001be00c2bf9f00d3bf9f00b8
:102510000800be004f04be000080fa000000060064
:102520000200200003b827000800be0032f90700af
:10253000f4ff37000800be007301070018003700e1
:102540004f49de0003002000143d2500b50724009c
:10255000840f5000858f58001d003e0034be2c00b3
:1025600065012400840f5000858f58000e003e0046
:102570000800be000200e000b2fd200093fc230032
:10258000050032001cf90700d40007000004be005b
:1025900009f0a200deff37000ef90700cf000700a8
:1025a0000004be00daff37000800be000200e000b1
:1025b000b2fd200093042400030032000ef907004e
:1025c00001f0a200dcff370002f90700fcff370032
:1025d000541d2300250e2400840f5000858f5800c1
:1025e00017003e00f4dd2e00f50a2400840f500091
:1025f000858f580009003e000800be000200e00080
:1026000042be2c006309240002003200faf80700e1
:10261000e2ff3700eff80700dbff37000800be00dd
:102620000200e000b2fd2000930c24000200320002
:10263000f1f80700c0ff3700e6f80700beff3700db
:10264000f2ff2f00f3f72700820f5000838f58000e
:10265000050036000801be000800be00ddf80700d6
:102660000004be00aaff370082ff2f000f014100c7
:102670000800be00cd000700630160004fb897005e
:10268000dfb89700e10f5100c4ff3200e20f5100a4
:10269000cbff32000200e000bbff3a00a6ff37008c
:1026a000889fbe008a9fbe008c1f78000004be0079
:1026b0000003be006055b80004f8270089056200d9
:1026c0000400200005f82700840f5500858f5d0069
:1026d0000b003a000001be008bfa07000001be00ab
:1026e0000800be00c4f807000004be000800be00d9
:1026f0004f0678004f05be004f04be0000000600e4
:10270000e00f5000e08f580010003c000002be00b7
:1027100005f0a100e00f5200e08f5a00f3ff3200f5
:10272000e00f5000e08f580008003d00100220002c
:10273000f0a188000801be000800be00a5f807004f
:102740000001be0091f90700e7ff370047bdde003a
:10275000cfbdde00e00f5500e08f5d000c003a00b9
:102760000603430087834b0061004500e0804d0075
:102770000001eb00870178000308b200e00f510070
:10278000e08f59004d00320060051500e0851d0006
:10279000fa07b1000b80b1000600be00f107b200dd
:1027a0000170a000610165008001eb00e00f5100a5
:1027b000e08f590002003200000040008180480094
:1027c0008b85d1000a85d30000004000818048003d
:1027d0009c01200002002000031020006044b8008b
:1027e0006033b8000602410087824900800f520022
:1027f000818f5a0006003c00040341008583490094
:102800000400500085805800080441008984490074
:1028100000004000818048008301d1000281d30084
:102820000c06e9000c00e000eeff3a00e00f50005b
:10283000e08f5800160032000226240023da200020
:102840000000200001f8230062f8070002002000c9
:1028500003f8230005f807000000e0000c00350035
:102860000226240023da20000000200001f82300c3
:1028700061f807000200200003f82300fbf70700bf
:102880000000e0000f00340062044400e0844c00cb
:102890008984d1000884d3000000200001f02300c7
:1028a0000800400089804800c755dd000a0020006c
:1028b0000a0440008b8448008cff37000005be00ee
:1028c000a7ff370061004400e0804c00000478005e
:1028d0000800a10081047800edff37000400fa0031
:1028e000889fbe008a9fbe008c9fbe000001be0074
:1028f00005fa07000004be000001be0002fa07004e
:102900000005be000200200003f02b000800be00fe
:10291000fdf907000200200003f8230036f8070045
:102920000006be00f2a92a00a3d223000a00be00be
:10293000f5f907000001be000c00be002ef80700ec
:102940000002be0072a12900c37c23000800be0063
:1029500084bf9f0095bf9f00ebf90700f243200062
:1029600063ab23001bf807000006be000a01be008f
:102970000800be00e4f907000001be000c00be0024
:10298000e1f907000001be000fba97009fba970057
:102990000400be0018f807004f06be004f05be0039
:1029a0004f04be000080fa00000006000400fa0098
:1029b000889fbe008a9fbe008c9fbe0000067800e4
:1029c000810478008206780001f0a100a2fd2000b9
:1029d00093dc2400820f5000838f580023003e00b8
:1029e00032982f0023f2230089007800c6f90700ef
:1029f0000200200003b42400fff7070002002000bb
:102a000003b42400f3f707000005be0099f70700a0
:102a100000047800a2fd200093fc23000a00be0001
:102a2000b9f907000001be000c00780089007800a9
:102a3000e8f707000002be00325a2800832823006e
:102a40000a00be0084bf9f0095bf9f00aef907003b
:102a50000001be000fba97009fba97000400be00a5
:102a6000dcf70700808ebe000b003700f2ff2f005e
:102a7000f3f72700820f5000838f58000c003600b8
:102a8000000178008901780089007800d1f70700fb
:102a9000808ebe000004eb00080078004f06be00e8
:102aa0004f05be004f04be000080fa000000060083
:102ab000890078004c0007000005be0032982f0006
:102ac00023f2230090f907000200200003f0230006
:102ad000c9f7070055000700000478002dfb070028
:102ae00032982f0023f22300a8f807000001be004f
:102af0000a00be00b7f707006000b800a006980003
:102b0000b1069800d7ff37000400fa00889fbe0086
:102b10008a9fbe008c9fbe000006be000001be0062
:102b200079f907000004be000001be000c00be00e1
:102b300075f907000005be000801be000800be00d0
:102b400071f907000a01be006ff907000002be001c
:102b5000c2c32600636323000800be0084bf9f0039
:102b600095bf9f0068f90700f27c200003952300c1
:102b700098f707000001be000fba97009fba9700b0
:102b80000400be0060f907000002be004288280071
:102b900083c023000800be0084bf9f0095bf9f0034
:102ba00059f90700b2aa2a00a3e2230089f7070017
:102bb0000a01be0054f907000c01be008ef70700a1
:102bc0000001be000fba97009fba97000400be0034
:102bd00089f707004f06be004f05be004f04be0038
:102be0000080fa00000006000400fa006011b8003e
:102bf000e2bf9f00f3bf9f006fbb9700ffbb970032
:102c00000002be00f0ff2f00f1ff2f00f2ff2f00a7
:102c1000f3ff270000006200818062000201630070
:102c2000838163000080fa00000006000003be00fc
:102c300053f707006011b8000470a70007f0a10067
:102c40006509b1001b003200120035008602200029
:102c50000628e10008003500f3ff2700f2ff2f00ef
:102c60006110b9000700e00018003b0003002800d5
:102c70006000b800020005000000400081804800ac
:102c800002014900838149008502e900faff3a0008
:102c900008003700f88f420002003c008000eb0083
:102ca000000005008100d1000080d3008502e8000b
:102cb000fcff3a000700e00004003b006000100049
:102cc000e080180060011900e08119000000060092
:020000040000fa
:102cd0000a00fa004f140700ae130700100020008e
:102ce000a08b8800ff0f0700ec0f070017100700ec
:102cf000f9130700680c0700dd140700310e070008
:102d0000380e07002404070000002000812c240056
:102d1000809fbe0000002000812c2400809fbe0008
:102d200000002000812c2400809fbe006033b8008a
:102d300004002000051f24000200200003022400dc
:102d4000400b2100b1070700ec875700000020006e
:102d5000812c2400809fbe0000002000812c2400d4
:102d6000809fbe0000002000812c2400809fbe00b8
:102d70006033b80004002000051a2400020020007f
:102d800003fc2300400e2100a0070700ec8757003a
:102d900000002000812c2400809fbe000000200045
:102da000812c2400809fbe0000002000812c240084
:102db000809fbe000600200007f023006022b800bc
:102dc0006011b8004014210090070700ec875700fd
:102dd00000002000812c2400809fbe000000200005
:102de000812c2400809fbe0000002000812c240044
:102df000809fbe000600200007f023006022b8007c
:102e0000a299290093f12300401121007f070700b8
:102e1000ec875700f6130700e14f50003f013a00de
:102e2000f7130700ee130700100798000e80e80064
:102e30006100200010804000100078008000eb004e
:102e4000cbf607003233230033052400aef8070029
:102e5000000178000100780082027800000278000a
:102e60000200200003582400050078008400780048
:102e70000000be00c5f70700200798003107980042
:102e80002e019000be01900000002000812024004f
:102e9000bef7070000017800010078008202780088
:102ea0000002780002002000030a240005007800d8
:102eb000840078000000be00c6f60700800178009c
:102ec0000101780003007800820078000000be0055
:102ed00040838800518388004083800051838000b4
:102ee00085f607008040780060432100314098005b
:102ef0000e80e800410020001080400010007800a3
:102f00008000eb009af607003233230033052400db
:102f10007df8070000017800010078008202780047
:102f20000002780002002000035824000500780009
:102f3000840078000000be0094f707002007980086
:102f4000310798002e019000be0190000000200083
:102f5000812024008df7070000017800010078002f
:102f6000820278000002780002002000030a240098
:102f700005007800840078000000be0095f6070088
:102f80008001780001017800030078008200780059
:102f90000000be0060838800718388006083800029
:102fa0007183800054f60700804078006043210060
:102fb000214098000e80e8001080e80010007800a2
:102fc0008000eb006af6070032332300330524004b
:102fd0004df80700000178000100780082027800b7
:102fe0000002780002002000035824000500780049
:102ff000840078000000be0064f7070020079800f6
:10300000310798002e019000be01900000002000c2
:10301000812024005df7070000017800010078009e
:10302000820278000002780002002000030a2400d7
:1030300005007800840078000000be0065f60700f7
:103040008001780001017800030078008200780098
:103050000000be0080838800918388008083800008
:103060009183800024f607008040780060432100af
:10307000114098000e80e800810020001080400080
:10308000100078008000eb0039f60700323323008f
:10309000330524001cf807000001780001007800c7
:1030a0008202780000027800020020000358240009
:1030b00005007800840078000000be0033f70700a8
:1030c00020079800310798002e019000be01900063
:1030d00000002000812024002cf707000001780068
:1030e00001007800820278000002780002002000cf
:1030f000030a240005007800840078000000be0068
:1031000034f60700800178000101780003007800a0
:10311000820078000000be00a0838800b183880090
:10312000a0838000b1838000f3f507008040780021
:1031300060432100414098001e009000100078007c
:103140008000eb000af60700323323003305240029
:10315000edf7070000017800010078008202780096
:1031600000027800020020000358240005007800c7
:10317000840078000000be0004f7070020079800d4
:10318000310798002e019000be0190000000200041
:1031900081202400fdf6070000017800010078007e
:1031a000820278000002780002002000030a240056
:1031b00005007800840078000000be0005f60700d6
:1031c0008001780001017800030078008200780017
:1031d0000000be00c0838800d1838800c0838000c7
:1031e000d1838000c4f5070080407800604321004f
:1031f00001487800624321005100200000032000b4
:103200006409070090818000a1818000baf5070061
:1032100080407800b043210001487800b24321008b
:1032200021002000000420005a090700708180005e
:1032300081818000b0f5070080407800b043210014
:1032400011409800b243210021002000000420001a
:1032500050090700a0838000b18380000200200095
:10326000031a240081f507000000e000020034008a
:10327000754ea80001003700754ea90040838000fc
:103280005183800002002000031a240077f5070014
:103290000000e00002003400856ea8000100370045
:1032a000856ea90060838000718380000200200089
:1032b000031a24006df507000000e000020034004e
:1032c000848ea80001003700848ea90080838000ce
:1032d0009183800002002000031a240063f5070098
:1032e0000000e0000200340084aea80001003700b6
:1032f00084aea900c0838000d1838000020020003a
:10330000031a240059f507000000e0000200340011
:1033100084cea8000100370084cea9000000eb0095
:10332000000f7800050037001b130700004f9800be
:103330000e489000690907001e0fe80030130700cf
:103340009e007800808f5000f7ff3500007122004a
:10335000010020002af40700aefe37000000fa004a
:1033600020d0bf000080fb006100b900f200200007
:1033700003002000820f5000838f580073003e002e
:10338000000601000f003700180037002100370049
:103390002b0037002c00370036003700370037008d
:1033a00041003700420037004c0037004d00370025
:1033b00057003700650037006400370056003700bb
:1033c000600037003a30ef003c30ef000041eb0086
:1033d0006000b800e40b070012c0b3006000b80042
:1033e000e10b070010c0b30020f0b700d2818000cd
:1033f000e3818000803e200001002000800f51000a
:10340000818f59005300360020c0b30020f0b70070
:103410005000370070818000818180000041eb0006
:10342000d10b070090818000a181800012c0b30001
:10343000cd0b070030c0b30020f0b70046003700c6
:1034400048000700440037007081800081818000bf
:103450000041eb00c40b070090818000a181800037
:1034600012c0b300c00b070050c0b30020f0b7007b
:10347000390037003b0007003700370070818000bb
:10348000818180000041eb00b70b07009081800034
:10349000a181800012c0b300b30b070070c0b3005d
:1034a00020f0b7002c0037002e0007002a0037005c
:1034b00070818000818180000041eb00aa0b070031
:1034c00090818000a181800012c0b300a60b07008c
:1034d00090c0b30020f0b7001f00370021000700a4
:1034e0001d00370070818000818180000041eb0069
:1034f0009d0b070090818000a181800012c0b30065
:10350000990b0700b0c0b30020f0b70012003700dd
:103510001400070010003700708180008181800056
:103520000041eb00900b070090818000a18180009a
:1035300012c0b3008c0b0700f0c0b30020f0b7003e
:103540000500370007000700030037002070ef0078
:103550000100370000000000000000000080fa00b9
:10356000000006000200fa00a08b80000000e000ce
:1035700006023a000040eb00004f780040838000d4
:103580005183800002002000031a2400b5f40700d4
:103590000000e0000e003d00608380007183800029
:1035a00002002000031f2400b0f407000000e00028
:1035b0000700350080838000918380000200200096
:1035c000031a2400a7f407000000e00015003500ee
:1035d000a0838000b183800002002000031a240031
:1035e000a0f407000000e00011003d0060838000af
:1035f0007183800002002000031f24009bf4070059
:103600000000e0000a003500c0838000d183800004
:1036100002002000031a240092f407000000e000da
:1036200003003d0030c0b300004f78003101370087
:10363000408380005183800002002000831c24000e
:1036400088f407000000e0001f003d006083800058
:103650007183800002002000031f240083f4070010
:103660000000e00018003500808380009183800016
:1036700002002000831c24007af407000000e00010
:1036800011003d00a0838000b18380000200200073
:10369000031a240073f407000000e0000a003d0054
:1036a000c0838000d183800002002000031a240020
:1036b0006cf407000000e00003003d000040eb0058
:1036c000004f78000b013700608380007183800019
:1036d00002002000031f240064f407000000e00043
:1036e00014003500a0838000b18380000200200018
:1036f000831c24005bf407000000e0000d003d0087
:10370000c0838000d183800002002000831c24003d
:1037100056f407000000e00006003400108180002d
:103720000000e8001081880040c0b300004f78001e
:10373000f000370060838000718380000200200069
:10374000031f240049f407000000e00014003500c6
:10375000a0838000b183800002002000831c24002d
:1037600042f407000000e0000d003400c083800038
:10377000d183800002002000831c240039f407005c
:103780000000e00006003d00108180000000e8001d
:103790001081880050c0b300004f7800d50037007a
:1037a000408380005183800002002000831c24009d
:1037b0002ef407000000e000140035006083800054
:1037c0007183800002002000031f240027f40700fb
:1037d0000000e0000d0035008083800091838000b0
:1037e00002002000831c24001ef407000000e000fb
:1037f00006003d00108180000000e8001081880074
:1038000010c0b300004f7800ba003700408380003a
:103810005183800002002000831c240011f4070063
:103820000000e00014003d00608380007183800090
:1038300002002000031f24000cf407000000e00039
:103840000d003500808380009183800002002000fd
:10385000831c240005f407000000e000060035008a
:10386000108180000000e8001081880020c0b300b3
:10387000004f78009f003700408380005183800014
:1038800002002000831c2400f6f307000000e00083
:1038900014003d00608380007183800002002000de
:1038a000031f2400eff307000000e0000d003d00bf
:1038b000a4838000b5838000c0838000d183800012
:1038c0000001be000400be00e6f307000000e000b7
:1038d00004003d002230ef0070c0b300004f7800bc
:1038e00084003700808380009183800002002000e4
:1038f000831c2400dbf307000000e00014003d00ff
:10390000608380007183800002002000031f240078
:10391000d4f307000000e0000d003d00a483800008
:10392000b5838000c0838000d18380000001be0089
:103930000400be00cdf307000000e00004003400e6
:103940002230ef0080c0b300004f780069003700dc
:10395000608380007183800002002000031f240028
:10396000c2f307000000e00012003500a0838000d1
:10397000b183800002002000031a2400bbf307007b
:103980000000e0000b003500c0838000d183800080
:1039900002002000031a2400b4f307000000e00036
:1039a000040035002230ef000040eb00004f7800ab
:1039b00050003700408380005183800002002000c7
:1039c000031f2400a7f307000000e00014003d00df
:1039d000608380007183800002002000031f2400a8
:1039e000a2f307000000e0000d00340044838000d3
:1039f0005583800080838000918380000001be0099
:103a00000400be0097f307000000e00004003d0042
:103a10002230ef0020c0b300004f7800350037009f
:103a2000608380007183800002002000031f240057
:103a30008ef307000000e0000b003400808380005c
:103a40009183800002002000031f240085f30700fb
:103a50000000e00004003d002230ef0010c0b30081
:103a6000004f78002300370060838000718380005e
:103a700002002000031f24007af307000000e0008a
:103a800004003d002230ef0030c0b300004f78004a
:103a9000180037004083800051838000020020001e
:103aa000831c240071f307000000e00011003400c3
:103ab000608380007183800002002000831c24004a
:103ac0006af307000000e0000a00350080838000f0
:103ad0009183800002002000831c240063f3070010
:103ae0000000e000030035002230ef000040eb0052
:103af000004f780011818000803e2000808f5000b0
:103b00001900340044838000558380008083800046
:103b1000918380000001be000400be0053f3070043
:103b20000000e0000400340080c0b300004f7800c3
:103b30002230ef000c003700448380005583800062
:103b400080838000918380000001be000400be00dd
:103b500044f307000000e00003003d0070c0b30024
:103b6000004f78002230ef001e4078000004e00093
:103b70001b003a0020c0b30021f0b7006083800032
:103b800071838000020020000322240037f3070025
:103b90000000e0000900340000002000811c240027
:103ba000708188008181880000002000811c240031
:103bb00090818800a18188006a0037000000200001
:103bc000011a240070818800818188000000200093
:103bd000011a240090818800a181880061003700cb
:103be0001e407800e24f50000b003a0040c0b30086
:103bf00021f0b7000000200001122400708188002d
:103c00008181880000002000010a24009081880042
:103c1000a1818800530037001e407800e14f50001a
:103c20000b003a0060c0b30021f0b7000000200094
:103c3000010a240070818800818188000000200032
:103c40000112240090818800a1818800450037007e
:103c50001e407800e34f50000b003a0080c0b300d4
:103c600021f0b700000020000117240070818800b7
:103c7000818188000000200001172c0090818800bd
:103c8000a1818800370037001e407800e54f5000c2
:103c90000b003a0060c0b30021f0b7000000200024
:103ca000010a2400708188008181880000002000c2
:103cb0000117240090818800a18188002900370025
:103cc0001e407800e44f50000b003a0040c0b300a3
:103cd00021f0b70000002000011724007081880047
:103ce0008181880000002000010a24009081880062
:103cf000a18188001b0037001e407800e74f50006c
:103d00000b003a0080c0b30021f0b7000000200093
:103d10000117240070818800818188000000200044
:103d200001172c0090818800a18188000d003700c8
:103d30001e407800e84f50000a003a00a0c0b300cf
:103d400021f0b7000000200001172c0070818800ce
:103d500081818800000020000117240090818800e4
:103d6000a181880021d0bf000080fb00010221005a
:103d7000914078008180fb008100e900810f5000b4
:103d80000200320021d0bf0020f0b7000000000088
:103d90000080fa00000006000000fa0010d723009f
:103da000a1fa2300d09c8800e19c88006000b80044
:103db000f09c8800019d8800b0fd200091042c003b
:103dc000f09b8800019c88006000b800909c8800ef
:103dd000a19c88006000b800b09c8800c19c88004d
:103de0006000b800309d8800419d88006000b800e8
:103df000509d8800619d88006000b800b09b8800dd
:103e0000c19b88006000b800709d8800819d88007b
:103e100000002000812c2400f09d8800019e880075
:103e200000002000812c2400109e8800219e880024
:103e30000000eb00909e8800000000000080fa0067
:103e4000000006000800fa00889fbe008a9fbe009e
:103e5000349d8000459d8000d09c8000e19c8000c6
:103e60000001be000400be00daf207000001780085
:103e7000010078008204780000047800549d8000de
:103e8000659d8000f09c8000019d80000001be00c7
:103e90000400be00cff207000001780001007800a6
:103ea000820278000002780009007800880078001b
:103eb0000001be0005007800840078000000be000c
:103ec000a1f60700b09b8800c19b8800b09b8000d2
:103ed000c19b8000f49b8000059c80000001be0017
:103ee0000400be00230e07000002be00f09b80000d
:103ef000019c80000001be000400be00b5f2070076
:103f000080017800010178000300780082007800c9
:103f10000000be00109c8800219c8800b49c80009a
:103f2000c59c8000b09c8000c19c80000001be0048
:103f30000400be0074f4070000017800010078005e
:103f400082027800000278000200200003122400a0
:103f500005007800840078000000be008bf30700a5
:103f60008001780001017800030078008200780069
:103f70000000be00309c8800419c8800b09c8000fe
:103f8000c19c800002002000a33724007ff30700bb
:103f90008001780001017800030078008200780039
:103fa0000000be00509c8800619c8800549d8000e9
:103fb000659d8000f09c8000019d80000001be0096
:103fc0000400be0083f207000001780001007800c1
:103fd0008204780000047800549d8000659d800074
:103fe000f09c8000019d80000001be000400be0026
:103ff00078f2070000017800010078008201780063
:104000000001780003007800820078000001be0003
:1040100009007800880078000000be003af407002c
:104020000001780001007800820478000004780024
:10403000349d8000459d8000d09c8000e19c8000e4
:104040000001be000400be0062f20700000178001b
:10405000010078008205780000057800349d80001a
:10406000459d8000d09c8000e19c80000001be0046
:104070000400be0057f2070000017800010078003c
:104080008201780000017800030078008200780047
:104090000001be000b0078008a0078000000be001e
:1040a00019f407000001780001007800820178000f
:1040b0000001780003007800820078000001be0053
:1040c00009007800880078000000be004af207006e
:1040d000000178000100780082017800000178007a
:1040e00003007800820078000000be006cf9070031
:1040f000709d8800819d8800949c8000a59c800014
:10410000909c8000a19c80000001be000400be00c5
:10411000fdf30700000178000100780082027800ba
:10412000000278000200200003002400050078004f
:10413000840078000000be0014f3070080017800be
:104140000101780003007800820078000000be00c2
:10415000d09d8800e19d8800909c8000a19c8000fb
:1041600002002000a337240008f307008001780034
:104170000101780003007800820078000000be0092
:10418000709c8800819c8800909e8000e10f500008
:10419000250032000000e00003003200e20f500072
:1041a00033013200670237006000b800909c88003d
:1041b000a19c88006000b800b09c8800c19c880069
:1041c00040828000e60f50005d023c00408280008b
:1041d0008000e80041828800413d21004300dd006d
:1041e00000804000100278009002900020039000b0
:1041f000b0039000049fbe000697be001e0078002a
:104200009e009000309d8800419d88002e00900007
:10421000be009000509d8800619d88001000200025
:10422000909e880046023700b09c8000c19c8000b0
:104230006011b8008bf107000000e00005003d00b0
:10424000309c8000419c800001f0a200309c8800de
:10425000419c8800309c8000419c80006011b80027
:1042600082f107000000e00006003500109c80008d
:10427000219c80006011b8007cf107000000e00084
:104280000c003d00309c8000419c80006011b80013
:1042900074f107000000e00043003c00109c800027
:1042a000219c80006011b8006ef107000000e00062
:1042b0003d003c00109c8000219c8000190c0700f0
:1042c0000004be00309c8000419c8000150c07005b
:1042d0000001be000800be0064f107000000e0001d
:1042e00031003500109c8000219c80006011b800d6
:1042f0005ef107000000e00012003400b09c800076
:10430000c19c8000a2702d0033ca2300baf10700bf
:104310000001780001007800820278000002780035
:1043200002002000030424000500780084007800c7
:104330000000be00270c0700b09c8800c19c8800cc
:104340009c003700109c8000219c80006011b80008
:1043500044f107000000e00001003500950037003f
:10436000b09c8000c19c8000a2702d0033ca230045
:1043700098f10700000178000100780082027800bf
:10438000000278000200200003042c0005007800e1
:10439000840078000000be00f70b0700b09c880086
:1043a000c19c880083003700109c8000219c800005
:1043b0006011b8002df107000000e0001700350083
:1043c000b09c8000c19c80006011b80027f10700fc
:1043d0000000e00011003400b09c8000c19c80000f
:1043e000a2702d0033ca23007af107000001780083
:1043f0000100780082027800000278006011b800a5
:1044000005007800840078000000be00da0b070089
:10441000b09c8800c19c880056003700109c80002a
:10442000219c80006011b80010f107000000e0003e
:1044300017003500b09c8000c19c80006011b8005e
:1044400008f107000000e00011003d00b09c800072
:10445000c19c8000a2702d0033ca230066f10700c2
:1044600000017800010078008202780000027800e4
:104470006011b80005007800840078000000be00dc
:10448000d40b0700b09c8800c19c8800390037001d
:10449000109c8000219c80006011b800f1f00700a2
:1044a0000000e00017003c00b09c8000c19c800030
:1044b0006011b800edf007000000e00011003400ca
:1044c000b09c8000c19c8000a2702d0033ca2300e4
:1044d00040f10700000178000100780082027800b6
:1044e000000278006011b8000500780084007800b0
:1044f0000000be00a00b0700b09c8800c19c880093
:104500001c003700109c8000219c80006011b800c6
:10451000d4f007000000e00016003c00b09c8000d2
:10452000c19c80006011b800cef007000000e000e0
:1045300010003d00b09c8000c19c8000a2702d0046
:1045400033ca23002cf10700000178000100780035
:1045500082027800000278006011b800050078003f
:10456000840078000000be009a0b0700b09c880011
:10457000c19c8800109c8000219c8000690b070072
:104580000004be00509c8000619c8000650b070009
:104590000001be000800be00b2f007000000e0000d
:1045a00004003d00109c8000219c8000509c8800ed
:1045b000619c8800f49b8000059c8000509c8000da
:1045c000619c80000001be000400be000af10700eb
:1045d00080017800010178000300780082007800f3
:1045e0000000be00f09b8800019c8800b09c800009
:1045f000c19c80008085880091858800b09c8000e7
:10460000c19c80006011b80096f007000000e00037
:10461000010032004b013700109c8000219c80007b
:10462000400b0700a2702d0033c223008df007005d
:104630000000e0000100350042013700b09b80001f
:10464000c19b8000f09b8800019c88004082800014
:10465000e70f500003003a000000eb00909e880036
:104660003801370020002000909e88003501370077
:10467000709d8000819d80006011b800bef0070031
:104680000000e000e0003200109c8000219c8000cf
:104690008a0b0700a2702d0033c2230071f00700bf
:1046a0000000e000d8003d00d09d8000e19d80002a
:1046b0006011b8006df007000000e0000600350052
:1046c000709d8000819d80006011b80067f0070038
:1046d0000000e0000c003d00d09d8000e19d8000c6
:1046e0006011b8005ff007000000e00043003c00ec
:1046f000709d8000819d80006011b80059f0070016
:104700000000e0003d003c00709d8000819d800025
:10471000040b07000004be00d09d8000e19d8000d6
:10472000000b07000001be000800be004ff00700ac
:104730000000e00031003500709d8000819d800008
:104740006011b80049f007000000e00012003400da
:10475000909c8000a19c8000f226210033b82300a9
:10476000a5f00700000178000100780082027800bf
:10477000000278000200200003f823000500780002
:10478000840078000000be00120b0700909c880097
:10479000a19c88009c003700709d8000819d800056
:1047a0006011b8002ff007000000e00001003500a4
:1047b00095003700909c8000a19c8000f22621008b
:1047c00033b8230083f0070000017800010078006f
:1047d00082027800000278000200200003f82b001b
:1047e00005007800840078000000be00e20a07009f
:1047f000909c8800a19c880083003700709d8000f9
:10480000819d80006011b80018f007000000e000f2
:1048100017003500909c8000a19c80006011b800ba
:1048200012f007000000e00011003400909c8000ae
:10483000a19c8000f226210033b8230065f0070018
:104840000001780001007800820278000002780000
:104850006011b80005007800840078000000be00f8
:10486000c50a0700909c8800a19c8800560037006c
:10487000709d8000819d80006011b800fbef0700f3
:104880000000e00017003500909c8000a19c800093
:104890006011b800f3ef07000000e00011003d00d8
:1048a000909c8000a19c8000f226210033b8230058
:1048b00051f00700000178000100780082027800c2
:1048c000000278006011b8000500780084007800cc
:1048d0000000be00bf0a0700909c8800a19c8800d1
:1048e00039003700709d8000819d80006011b80004
:1048f000dcef07000000e00017003c00909c800007
:10490000a19c80006011b800d8ef07000000e00013
:1049100011003400909c8000a19c8000f2262100b0
:1049200033b823002bf00700000178000100780065
:1049300082027800000278006011b800050078005b
:10494000840078000000be008b0a0700909c88005d
:10495000a19c88001c003700709d8000819d800014
:104960006011b800bfef07000000e00016003c0037
:10497000909c8000a19c80006011b800b9ef0700f6
:104980000000e00010003d00909c8000a19c800091
:10499000f226210033b8230017f007000001780049
:1049a0000100780082027800000278006011b800ef
:1049b00005007800840078000000be00850a07002a
:1049c000909c8800a19c8800709d8000819d800043
:1049d000540a07000004be00709c8000819c800087
:1049e000500a07000001be000800be009def07004e
:1049f0000000e00004003d00709d8000819d80006b
:104a0000709c8800819c8800709d8000819d800042
:104a1000440a0700a2702d0033c2230091ef070063
:104a20000000e0000d003d006000b800909c880090
:104a3000a19c8800309d8000419d8000d09c880012
:104a4000e19c8800509d8000619d8000f09c880062
:104a5000019d88000000eb00909e8800789c8000fb
:104a6000899c8000f09b8000019c800039f5070044
:104a70000001be000800be00a3f10700000178009d
:104a8000010078008202780000027800d09c80004b
:104a9000e19c80000001be000500780084007800e1
:104aa0000000be00d4ef070080017800010178000b
:104ab00003007800820078000000be00d09c8800cf
:104ac000e19c8800789c8000899c8000f09b80009d
:104ad000019c800072f607000001be000800be00c5
:104ae00089f1070000017800010078008202780057
:104af00000027800f09c8000019d80000001be0053
:104b000005007800840078000000be00baef0700be
:104b100080017800010178000300780082007800ad
:104b20000000be00f09c8800019d8800909c8000e1
:104b3000a19c800060858800718588000100370095
:104b400000000000000000004f05be004f04be0042
:104b50000080fa00000006001800fa00d09c8000d7
:104b6000e19c80000001be008000eb000e00780098
:104b7000a80a0700f09c8000019d80000001be0093
:104b8000410020000e007800a20a0700f09b800080
:104b9000019c80000001be00810020000e00780012
:104ba0009c0a0700909c8000a19c80000001be0030
:104bb000c10020000e007800960a0700b09c80001b
:104bc000c19c80000001be00010120000e007800a1
:104bd000900a0700d0818000e181800064ef070027
:104be0000001be00410120000e007800890a070084
:104bf0000e0178008101200000052000e502070079
:104c0000000000000080fa00000006000e00fa001c
:104c1000000f7800120798002307980034079800c7
:104c20004507980056079800670798001e0078000f
:104c30001e019000ae0190000288be001e007800a8
:104c40003eb99700ceb997006200980073009800b3
:104c50001e0078003e019000ce01900022009800d6
:104c6000330098001e0078001eb99700aeb9970077
:104c700002089800130898001e0078005e0190005a
:104c8000ee01900042009800530098001e0078004a
:104c90007eb197008eb997002208980033089800db
:104ca000000000000080fa00000006001200fa0078
:104cb000889fbe006007980072079800030f980055
:104cc0006e0090007e0190008e0990000210980006
:104cd000131098006e009000900090001000780073
:104ce0006011b80024ef07000000e000240032004b
:104cf0006e00900060029000f00290006e00900044
:104d000090009000100078000001be000400be007a
:104d10001ef007000001780001007800820478008e
:104d2000000478006e009000f00090006000900099
:104d300001f0a2006e019000920190001201780033
:104d400012f007000001780001007800820178006d
:104d50000001780009007800880078000002be0099
:104d600003007800820078000001be007e00900001
:104d70008e089000ae090700008fbe0003003700c8
:104d80007e0190008e099000028fbe006e009000a0
:104d900090009000100078001e0178009e019000a5
:104da000d9f0070080017800010178000300780045
:104db000820078000001be006e0090002210980072
:104dc000331098006e009000400c9000d00c9000c2
:104dd00002002000a33724007e0090008e0890007f
:104de000eaef0700000178000100780082017800f6
:104df0000001780003007800820078000001be0006
:104e00000800be00fcee0700800178000101780078
:104e100003007800820078000001be006e00900060
:104e200042089800530898006e009000b00090006f
:104e3000200090006011b800cfee07000000e000f5
:104e4000290032006e009000000a9000900a900045
:104e50006e009000b0009000200090000001be00a5
:104e60000400be00c9ef07000001780001007800cf
:104e700082047800000478006e0090009008900092
:104e80000008900001f0a2006e019000b2019000b5
:104e900022019000bdef07000001780001007800ba
:104ea00082017800000178006e009000400b9000b5
:104eb000d00b900009007800880078000002be0046
:104ec00003007800820078000001be000600be00ea
:104ed000570907000001be006e00900042089800cc
:104ee00053089800050037006e0090007e01900086
:104ef0008e09900042089800530898006e009000b8
:104f0000400a9000d00a90006e009000b00090001f
:104f1000200090000001be000400be007af00700ef
:104f20008001780001017800030078008200780099
:104f30000001be006e0090004210980053109800cf
:104f40006e009000f0089000600890000001be0024
:104f50007e0090008e0890009eee07000001780011
:104f60000100780082027800000278000200200030
:104f7000a337240005007800840078000000be00fc
:104f800061f0070040079800510798006e009000fc
:104f9000d0009000400090006011b80076ee07004d
:104fa0000000e000250032006e009000200a900012
:104fb000b00a90006e009000d00090004000900079
:104fc0000001be000400be0070ef07000001780081
:104fd0000100780082047800000478006e009000e0
:104fe000b00890002008900001f0a2006e0190002f
:104ff000d20190004201900064ef070000017800a8
:105000000100780082017800000178000900780032
:10501000880078000002be0003007800820078005b
:105020000001be004e009000de0090000009070065
:105030002007980031079800040037004e019000c7
:10504000de01900022079800330798006e00900060
:105050007e0190008e099000620898007308980005
:105060006e009000d0009000400090002e01900053
:10507000be01900024f00700800178000101780053
:1050800003007800820078000001be006e009000ee
:1050900062109800731098006e009000201290002b
:1050a000b01290006e009000d01090004010900060
:1050b0000001be000400be004fee070000017800b2
:1050c0000100780082027800000278006e009000f3
:1050d000f0109000601090000001be000500780004
:1050e000840078000000be0043ee07000001780055
:1050f00001007800820078008101780000017800ca
:1051000003007800820078000000be004f04be005b
:105110000080fa00000006000400fa00889fbe002c
:105120006485800075858000208480003184800043
:105130000001be000400be0026ee070080017800da
:105140000101780003007800820078000000be00b2
:10515000a0868800b18688008485800095858000bf
:1051600040848000518480000001be000400be0025
:1051700018ee070080017800010178000300780034
:10518000820078000000be002088880031888800f6
:10519000d49c8000e59c8000d09c8000e19c800035
:1051a0000001be000400be00d7ef07000001780038
:1051b000010078008204780000047800f49c8000ec
:1051c000059d8000f09c8000019d80000001be00d4
:1051d0000400be00ccef0700000178000100780059
:1051e00082017800000178000300780082007800d6
:1051f0000001be0009007800880078000000be00b1
:10520000fded0700000178000100780082017800c0
:105210000001780003007800820078000000be00e2
:105220001ff50700709e8800819e8800c48480005e
:10523000d5848000c0848000d18480000001be003d
:105240000400be00b0ef0700000178000100780004
:105250008204780000047800e4848000f5848000f3
:10526000e0848000f18480000001be000400be00e4
:10527000a5ef0700000178000100780082017800a6
:105280000001780003007800820078000001be0071
:1052900009007800880078000000be00d6ed070005
:1052a0000001780001007800820178000001780098
:1052b00003007800820078000000be00f8f40700c8
:1052c000008fbe00709e8000819e80001e017800cd
:1052d0009e019000bfed0700800178000101780079
:1052e00003007800820078000000be00208b880058
:1052f000318b8800f49b8000059c80000085800035
:10530000118580000001be000400be00b1ed070061
:1053100080017800010178000300780082007800a5
:105320000000be00a0898800b1898800a0868000a6
:10533000b18680000001be00400b21005bfe07002b
:105340002085880031858800208880003188800091
:105350000001be00400e210054fe07004085880079
:10536000518588004085800051858000248580001b
:10537000358580000001be000400be003604070031
:10538000000000004f04be000080fa00000006008c
:105390006000fa00a0858000b18580000001be0099
:1053a0008000eb000e0078009a080700c08580009e
:1053b000d18580000001be00410020000e00780071
:1053c00094080700e0858000f18580000001be00a0
:1053d000810020000e0078008e0807000086800003
:1053e000118680000001be00c10020000e00780080
:1053f0008808070020868000318680000001be00fa
:10540000010120000e00780082080700408680001d
:10541000518680000001be00410120000e0078008e
:105420007c0807000e0178008101200000072000a1
:10543000d80007002087800031878000780247006d
:105440000001be008000eb00040078007108070036
:105450004087800051878000780247000001be002d
:1054600041002000040078006a080700608780007f
:1054700071878000780247000001be008100200093
:10548000040078006308070080878000918780000f
:10549000780247000001be00c1002000040078002f
:1054a0005c080700a0878000b18780007802470071
:1054b0000001be000101200004007800550807002b
:1054c000c0878000d1878000780247000001be00bd
:1054d00041012000040078004e08070078004700d2
:1054e000000178008101200010072000a9000700ba
:1054f000c0868000d1868000040320000e02420096
:105500000001be008000eb000400780041080700a5
:10551000e0868000f1868000040320000e02420035
:105520000001be0041002000040078003908070097
:105530000087800011878000040320000e024200d3
:105540000001be008100200004007800310807003f
:105550004088800051888000040320000e02420031
:105560000001be00c10020000400780029080700e7
:105570006088800071888000040320000e024200d1
:105580000001be000101200004007800210807008e
:105590008088800091888000040320000e02420071
:1055a0000001be0041012000040078001908070036
:1055b000a0868000b1868000040320000e02420015
:1055c0000001be00810120000400780011080700de
:1055d0002088800031888000040320000e024200f1
:1055e0000001be00c1012000040078000908070086
:1055f000000320000e00400000017800010220009e
:10560000200720006300070060858000718580000e
:10561000040520000e0242000001be008000eb00e5
:1056200004007800fb0707008085800091858000da
:10563000040520000e0242000001be0041002000cf
:1056400004007800f3070700000520000e0040006a
:105650000001780081002000000920004d000700b3
:105660002085800031858000840520000e024200e4
:105670000001be008000eb0004007800e507070091
:105680004085800051858000840520000e02420084
:105690000001be004100200004007800dd07070083
:1056a000800520000e0040000001780081002000ed
:1056b0001009200037000700000000000080fa00f9
:1056c000000006000a00fa00200798003107980041
:1056d000420798000000eb00000f78009e00780061
:1056e000e00f200000806800000f78002e0090007e
:1056f0004880de009e00780000806800000f78007f
