:020000040000fa
:080000001c02040000000000d6
:020000040000fa
:040008002c040000c4
:020000040000fa
:04000c002c040000c0
:020000040000fa
:040010002c040000bc
:020000040000fa
:040014002c040000b8
:020000040000fa
:040018002c040000b4
:020000040000fa
:04001c002c040000b0
:020000040000fa
:040020002c040000ac
:020000040000fa
:040024002c040000a8
:020000040000fa
:040028002c040000a4
:020000040000fa
:04002c002c040000a0
:020000040000fa
:040030002c0400009c
:020000040000fa
:04003400ba0300000b
:020000040000fa
:040038002c04000094
:020000040000fa
:04003c002c04000090
:020000040000fa
:040040002c0400008c
:020000040000fa
:040044002c04000088
:020000040000fa
:04004800b003000001
:020000040000fa
:04004c002c04000080
:020000040000fa
:040050002c0400007c
:020000040000fa
:040054003c03000069
:020000040000fa
:04005800840300001d
:020000040000fa
:04005c001603000087
:020000040000fa
:040060002c0400006c
:020000040000fa
:040064002c04000068
:020000040000fa
:040068002c04000064
:020000040000fa
:04006c002c04000060
:020000040000fa
:040070002c0400005c
:020000040000fa
:040074002c04000058
:020000040000fa
:040078002c04000054
:020000040000fa
:04007c002c04000050
:020000040000fa
:040080002c0400004c
:020000040000fa
:040084002c04000048
:020000040000fa
:040088002c04000044
:020000040000fa
:04008c002c04000040
:020000040000fa
:040090002c0400003c
:020000040000fa
:040094000a0400005a
:020000040000fa
:040098002c04000034
:020000040000fa
:04009c002c04000030
:020000040000fa
:0400a0002c0400002c
:020000040000fa
:0400a4002c04000028
:020000040000fa
:0400a8002c04000024
:020000040000fa
:0400ac002c04000020
:020000040000fa
:0400b0002c0400001c
:020000040000fa
:0400b4002c04000018
:020000040000fa
:0400b8002c04000014
:020000040000fa
:0400bc002c04000010
:020000040000fa
:0400c0002c0400000c
:020000040000fa
:0400c4002c04000008
:020000040000fa
:0400c8002c04000004
:020000040000fa
:0400cc002c04000000
:020000040000fa
:0400d0002c040000fc
:020000040000fa
:0400d4002c040000f8
:020000040000fa
:0400d8002c040000f4
:020000040000fa
:0400dc002c040000f0
:020000040000fa
:0400e0002c040000ec
:020000040000fa
:0400e4002c040000e8
:020000040000fa
:0400e8002c040000e4
:020000040000fa
:0400ec002c040000e0
:020000040000fa
:0400f0002c040000dc
:020000040000fa
:0400f4002c040000d8
:020000040000fa
:0400f8002c040000d4
:020000040000fa
:0400fc002c040000d0
:020000040000fa
:040100002c040000cb
:020000040000fa
:040104002c040000c7
:020000040000fa
:040108002c040000c3
:020000040000fa
:04010c002c040000bf
:020000040000fa
:040110002c040000bb
:020000040000fa
:040114002c040000b7
:020000040000fa
:040118002c040000b3
:020000040000fa
:04011c002c040000af
:020000040000fa
:040120002c040000ab
:020000040000fa
:040124002c040000a7
:020000040000fa
:040128002c040000a3
:020000040000fa
:04012c002c0400009f
:020000040000fa
:040130002c0400009b
:020000040000fa
:040134002c04000097
:020000040000fa
:040138002c04000093
:020000040000fa
:04013c002c0400008f
:020000040000fa
:040140002c0400008b
:020000040000fa
:040144002c04000087
:020000040000fa
:040148002c04000083
:020000040000fa
:04014c002c0400007f
:020000040000fa
:040150002c0400007b
:020000040000fa
:040154002c04000077
:020000040000fa
:040158002c04000073
:020000040000fa
:04015c002c0400006f
:020000040000fa
:040160002c0400006b
:020000040000fa
:040164002c04000067
:020000040000fa
:040168002c04000063
:020000040000fa
:04016c002c0400005f
:020000040000fa
:040170002c0400005b
:020000040000fa
:040174002c04000057
:020000040000fa
:040178002c04000053
:020000040000fa
:04017c002c0400004f
:020000040000fa
:040180002c0400004b
:020000040000fa
:040184002c04000047
:020000040000fa
:040188002c04000043
:020000040000fa
:04018c002c0400003f
:020000040000fa
:040190002c0400003b
:020000040000fa
:040194002c04000037
:020000040000fa
:040198002c04000033
:020000040000fa
:04019c002c0400002f
:020000040000fa
:0401a0002c0400002b
:020000040000fa
:0401a4002c04000027
:020000040000fa
:0401a8002c04000023
:020000040000fa
:0401ac002c0400001f
:020000040000fa
:0401b0002c0400001b
:020000040000fa
:0401b4002c04000017
:020000040000fa
:0401b8002c04000013
:020000040000fa
:0401bc002c0400000f
:020000040000fa
:0401c0002c0400000b
:020000040000fa
:0401c4002c04000007
:020000040000fa
:0401c8002c04000003
:020000040000fa
:0401cc002c040000ff
:020000040000fa
:0401d0002c040000fb
:020000040000fa
:0401d4002c040000f7
:020000040000fa
:0401d8002c040000f3
:020000040000fa
:0401dc002c040000ef
:020000040000fa
:0401e0002c040000eb
:020000040000fa
:0401e4002c040000e7
:020000040000fa
:0401e8002c040000e3
:020000040000fa
:0401ec002c040000df
:020000040000fa
:0401f0002c040000db
:020000040000fa
:0401f4002c040000d7
:020000040000fa
:0401f8002c040000d3
:020000040000fa
:0401fc002c040000cf
:020000040000fa
:040200002c040000ca
:020000040000fa
:040204002c040000c6
:020000040000fa
:040208002c040000c2
:020000040000fa
:04020c002c040000be
:020000040000fa
:040210002c040000ba
:020000040000fa
:040214002c040000b6
:020000040000fa
:040218002c040000b2
:020000040000fa
:04021c002c040000ae
:020000040000fa
:040220002c040000aa
:020000040000fa
:040224002c040000a6
:020000040000fa
:040228002c040000a2
:020000040000fa
:04022c002c0400009e
:020000040000fa
:040230002c0400009a
:020000040000fa
:040234002c04000096
:020000040000fa
:040238002c04000092
:020000040000fa
:04023c002c0400008e
:020000040000fa
:040240002c0400008a
:020000040000fa
:040244002c04000086
:020000040000fa
:040248002c04000082
:020000040000fa
:04024c002c0400007e
:020000040000fa
:040250002c0400007a
:020000040000fa
:040254002c04000076
:020000040000fa
:040258002c04000072
:020000040000fa
:04025c002c0400006e
:020000040000fa
:040260002c0400006a
:020000040000fa
:040264002c04000066
:020000040000fa
:10040000f03fb1000180b10006003500ee030900a5
:1004100000000000403fb1000180b100fbff3d0043
:100420001000b000203fb00002003500008009003d
:1004300000000000000006000f3921000eff270019
:100440000e01880000000000000020000000e00015
:100450000200320000012000200288001400070082
:10046000ff0007000000e00003003a00808c23003a
:1004700001002000020037000000200001002000e1
:10048000810f7000010032000f0007000000200003
:100490000000e00002003200000002000000000046
:1004a0004a150200000000000040da000000fe00d3
:1004b000200020000000e0000200320010002000b8
:1004c0009001880000000600a102880080047800e6
:1004d0000000eb001f003700e284440054a0b40089
:1004e0009905ba00e284440054a0b4009906ba0009
:1004f000e284440054a0b4000006eb00476fde0025
:10050000fd07b200ae018800636ce10003003a0011
:100510000ad801000000eb000e003700606ce1001b
:1005200008003a00004deb000a05e800020039001f
:100530003420ec000af0a0008b05e900f9ff3e0032
:10054000040037006168e100010032000086eb0022
:100550000b00070019c7ba000e04e0001905ba0025
:1005600003003a000a00e000dbff3a00000006004a
:10057000fe07b200ae0288008a047800f5ff37005b
:100580000cd0a300e20f4d001c003b008902780054
:10059000354dba000a05e800020039003420ec00ad
:1005a0000af0a0008b05e9000f003200254dba00cb
:1005b0000a05e800020039003420ec000af0a0002f
:1005c0008b05e900080032000c00e0000600320054
:1005d00015cdba000a05e800020039003420ec000d
:1005e0000af0a0008b05e9008984e80054a0b4005b
:1005f0000b00e000e2ff3a00000006009902ba009a
:10060000055d78008b05e900f7ff3200c82ade009f
:10061000055d78008b05e900f3ff32000c00e00077
:10062000f1ff320019ddba00eeff3700801f7800bd
:100630000000fa0001a8a90000188000f09b8800c3
:1006400010188000009c880020188000109c8800f2
:1006500030188000209c880040188000309c880062
:1006600010c0b30051f0b700000000000080fa0095
:100670004f007800004006003600f800809fbe0062
:10068000829fbe00849fbe00869fbe000000fa00cd
:100690000168a900101180004200de006140600086
:1006a000e14f500001003a002242a90010118000e1
:1006b0000000d10061406000e14f500005003a00a9
:1006c0002222a9000300370030118000004078008a
:1006d000651a07001011800000407800614060003a
:1006e000e14f5000f8ff3200000000000080fa00e7
:1006f0004f03be004f02be004f01be004f00be00c0
:100700003600f900004006003600f800809fbe0069
:10071000829fbe00849fbe00869fbe000000fa003c
:100720000188a90001828000f0818000808f500044
:100730000200320035190700010037004270ef0057
:10074000000000000080fa004f03be004f02be0010
:100750004f01be004f00be003600f9000040060009
:100760000000fa000108a900000000000080fa0063
:10077000004006003600f800809fbe00829fbe0049
:10078000849fbe00869fbe000000fa000068a9009a
:10079000d61907001d0a0700c01207002211070022
:1007a000909080000000e00002003a0095eea80062
:1007b0000600370090908000e10f500003003a00df
:1007c000e40d07002716070095eea900b081800010
:1007d0000000e800b0818800b0818000f80f500070
:1007e000040034001a1407000f0e07004b1707000f
:1007f0003630ef00000000000080fa004f03be001a
:100800004f02be004f01be004f00be003600f9008f
:1008100000400600809fbe00829fbe000000fa00dc
:100820000368a900d2818000e381800010002000cd
:10083000010020000200400083804800d081880031
:10084000e1818800000000000080fa004f01be0036
:100850004f00be00004006000040da000000fe002d
:100860000000050014002000af033700f4ff2f0044
:10087000ad0337000001be00410007000470a7006f
:1008800003f0a1006509b100160032000d0035002b
:100890006828e10006003500f0ff2f00f1ff270077
:1008a0000300e00013003b000100280000000500e9
:1008b00000004000818048008502e900fcff3a000a
:1008c00008003700f88f420002003c008000eb0077
:1008d000000005008100d1000080d3008502e800ff
:1008e000fcff3a000300e00002003b006000100043
:1008f000e0801800000006000001be002000070094
:100900000470a70003f0a10003f8a30013003a004d
:100910006509b10010003200090035006928e100c6
:100920000200350001002800000005000000400022
:10093000818048008502e900fcff3a0000000600c3
:10094000f88f4200050035008100d1000080d300ff
:100950008502e800fcff3a00000006008000eb0082
:10096000000005004f89de0082017800890337000e
:100970006011b80097033700040020006a033700b5
:10098000c70ade00f107b200f50fb200080032001e
:10099000e1cf4200020032000170a00024000500f7
:1009a000810f7000010032000408050044000500ba
:1009b000810f700002003a00140005008502e90072
:1009c0000000400081c04800fcff3b000170a00017
:1009d0002400050007f82700078361000638e100be
:1009e00004003a00f7072000878361008703710045
:1009f00001003a0003f0a200889fbe008a9fbe005b
:100a00008c9fbe00470ade000480a100c71ade00ea
:100a10000580a10007002800078560008785610028
:100a2000f70f20000720e1009e0032000728e100b8
:100a30009c003200010678000400e000b40032009f
:100a4000f7072000878060000170a0000500e0002b
:100a5000c0003200f7072000878161000370a0000a
:100a6000050652000f003a000b50e1000b00320067
:100a70000308e10002003a000200e1007e003200bb
:100a80000204500083845800040031000001fd007e
:100a90008101fd008402fd008a05fd006044b8006c
:100aa000210037000520e10005003d000001fd00a8
:100ab0008101fd008402fd008a05fd00050652004b
:100ac0007a60e100050035000170a1004722dd00d9
:100ad000848070008a807000630037006044b80032
:100ae000ef02660007ff2f00070666000500e00022
:100af00006003400f08312008714dd000511de00cb
:100b0000071bdd00060171008519de007060e10041
:100b1000050035000904780082047800030178009c
:100b20008001eb00700656000b50e10003003a0014
:100b30000200400083804800040037006004140075
:100b4000e0841c0002005800838058000188a30044
:100b5000060032008100d1000080d3008984d300d8
:100b60000884d3000402e800270037000178a300be
:100b700025003a000100e000030032008186cf002a
:100b8000698656000a0037008c0020000000e00053
:100b900004003a0009007800880478000004eb00a3
:100ba000700252008086cf000d0646000c06e90058
:100bb0007060e100060035008000780009007800d0
:100bc000880478000004eb007006560070025200a2
:100bd0000c00e0000c0034008c08dd00f00316006f
:100be0000703de00868070000c00dd00074bde008e
:100bf000060070008c4cdd000743de008684740024
:100c00000c44dd000c0252006120e10020003500a0
:100c1000610160000700280087816400f7ff27005a
:100c200087836400070374000300e00006003200bd
:100c300082037300040032000000e800e0804800f6
:100c40000188a3000e003a00f70f20000720e10002
:100c50004a003d000170a1004722dd0081007200c2
:100c60008a8070000000be004f06be004f05be0027
:100c70004f04be00000006006000b800faff370015
:100c80008100d1000080d3000402e800eeff3700ad
:100c90000401780089017400a10107008a807000b6
:100ca000f1ff3700f7010700070278000001fd009f
:100cb0008101fd00f30107008702780085037200bf
:100cc0000778a300040032000001fd008101fd004f
:100cd00006020700e4ff3700850362000768a300ef
:100ce000080032000b50e10003003200f0ff2f003b
:100cf000f1ff2700dcff37000001fd008101fd004e
:100d0000d9ff37000468a300d7ff3200faff37008d
:100d1000f8ff2700888360000b003a000000e00025
:100d200009003a00830364008283730002003200ea
:100d30000200be00ccff37000b50e100ceff3a00ae
:100d40000200be00c8ff37001400200081006400cc
:100d50003eff3700f8ff27008883610004003a0057
:100d60000200e00002003a008c007800beff37006d
:100d7000150020008301640039ff370001f82700c7
:100d80000000200081007500b7ff3700889fbe007b
:100d90008a9fbe008c9fbe001b0020000202be0086
:100da0000586680006002800060666004709de0082
:100db000f20fb200820032000243e80080003200ed
:100dc000c729de00f30fb2007d0032000343e800c4
:100dd0007b003200f107b2000170a000f507b200fd
:100de0000570a000c708dd004903de0086807000a2
:100df0004700dd00c72add004923de00868272003d
:100e00004722dd000305510004035000858358008c
:100e10000300310000004000818048000a05e9001d
:100e20008c1f78008a9fbe00040050008580580007
:100e30000402420085824a00000040008180480090
:100e40000005eb000004be006033b8000406be00dd
:100e50000d48e10056003100110009004dccd800ca
:100e60000c01b8000d02b8008481410060824a0084
:100e70008283530003045c0084845c0060055d0091
:100e80000a00e00025003a00800578000d40e100ee
:100e9000490031008800780007007800110009003f
:100ea0004d88d8000c01b8000d02b80084814100c3
:100eb00060824a006003110083835b0004045c00cd
:100ec000e0845c000900e00021003a004f01be0010
:100ed0000300e0002b003200e3016000070673000e
:100ee0008c81710001003200640070004200de005d
:100ef0004e5edd000c007000c258de0001e0a00074
:100f000083010700cf017800818071004f06be0089
:100f10004f05be004f04be00000006008c83430056
:100f20000d044c00e0844c0060054d000000e90019
:100f30000a00e000d4ff32008c8343000d044c0013
:100f4000e0844c0060054d000000e900ceff370052
:100f50000c0343008d834b0060044c00e0844c0084
:100f60000000e9000900e000d8ff32000c03430054
:100f70008d834b0060044c00e0844c000000e900cd
:100f8000d2ff37004200de004e5edd000c00700034
:100f9000c258de0001e0a000cf0178000300e000ad
:100fa000daff320060001000e0801800d7ff370041
:100fb000f0ff2f00aaff3700f0ff2f00b9ff370026
:100fc0000404be002f010700870678000004fd001e
:100fd0008104fd002b010700078366000678a3004b
:100fe000030032000960a7000800be002c00370093
:100ff0000d78a300020032000800be002800370070
:101000000778a30026003a0001f0a10009f0a10032
:101010000668a30003003200f1ff2700f0ff2f0055
:10102000baff37000d68a300030032000800be00bd
:101030008c807000b5ff37000768a30007003a00f6
:101040000648a30003003200f1ff2700f0ff2f0045
:10105000aeff37000d48a300030032006000b80067
:101060008c807000a9ff37000748a30004003200fd
:1010700001f82700000020008c807000a3ff3700db
:10108000760107000004fd008104fd0002057800e0
:10109000720107000802be008a01780059ff37007c
:1010a0000160a000120220009282880097ff3700a2
:1010b0000100e000120032000500e00010003200e4
:1010c000889fbe008a9fbe008c9fbe000006eb007a
:1010d00001f8a3000300320060001000e080180057
:1010e0000cf0a00005f8a30003003200600212001b
:1010f000e0821a000cf0a2008005eb0041ff3700ef
:101100006000b800020005000383680007002800a3
:1011100007036300470ade000480a100c71ade004f
:101120000580a100f70f20000720e10042003200f7
:101130000728e10040003200889fbe008a9fbe0061
:101140008c1f7800f107b200f307b2000400e00042
:10115000640032000170a0000500e0006800320069
:101160000370a00085054200eb07b1000204b8003f
:101170000302b8008484440060854a00020ab80073
:10118000848444000a854a00030ab8000405450027
:10119000040033000804d0008984d2000a85d200fc
:1011a0008b05e9006158e1003d0035000210200088
:1011b000090161000308200089816100f707200010
:1011c0008783640008867300c84cde00c853dd00c6
:1011d000878474004855de000300e00006003200fa
:1011e00082037600040032008904e80060054d00a7
:1011f0000a88a3000c003a00f70f20000758e1000e
:1012000044003d000a70a100c75ddd000a8575003d
:101210008a007300090078004f0678004f05be0071
:101220004f04be00000006000a05d1008984d300e7
:101230008b05e800f0ff3700881f7800060478006f
:1012400090000700070278000001fd008101fd0009
:101250008c00070087027800850372000778a300de
:10126000050032000001fd008101fd009f00070024
:101270004f04780000000600850372000748a300b1
:1012800003003200f0ff2f00f1ff2700f8ff3700c6
:101290000000200001f8270088807000f4ff37006c
:1012a000880178004848dd00808171004848de00f0
:1012b000c850dd0001007000c850de000604780050
:1012c0000b0178001600070088807000d2ff3700fd
:1012d0000500e00005003200170020003a0007007a
:1012e0009dff370081037000f9ff3a008600780007
:1012f0004f0678004f05be004f04be0000000500f9
:1013000083037100f9ff3200270020002e00070040
:1013100094ff370001f8270086807000f4ff370043
:101320000100e00026003200610111007810e100a8
:1013300023003c006022b8007010e100040035007a
:1013400080027800010078008000eb0070015100fd
:101350000200e0000900340070031100062add00dd
:10136000822ade008603dd00878272000200de0032
:10137000860bdd00070070008208de0084817100aa
:10138000f4ff2700048262008481710004002800b9
:10139000848262006102600005f0a6000000060081
:1013a00004827100070032000000e800e08048007d
:1013b000000006000002be006000b800efff37002a
:1013c0006000b80000000600889fbe000004eb002b
:1013d0006138e10016003a000100e00008003a0020
:1013e000c800de004800dd00880020000100e000a9
:1013f00003003a00c800de004800dd006804440035
:101400008184cf00e9845400060034008908dd009f
:10141000f08314008703de00878070000900dd0080
:1014200009044400610214004f04be0000000600dd
:101430000300e00008003a00c811de004811dd009a
:10144000880020000300e00003003a00c811de001d
:101450004811dd00680444008384cf00e98454000f
:10146000060034008919dd00f08314008713de00c4
:10147000878171000911dd0009044400e1021400b4
:10148000e9ff37002700200001f0a7001700200027
:10149000470bde00f60fb200040032000643e800fe
:1014a0000a0032004702b300000006000103780082
:1014b000f607b2000603700002003a000703b3000b
:1014c000000006008702b300000006000103780058
:1014d000f607b20006037000020032000770a00099
:1014e000000006000760a000000006000478a300ca
:1014f000040032000578a300030032000168a30055
:1015000001003a000200be000160a00000000600d9
:1015100081017000270032008002eb0001f8a30077
:101520000300320060001000e08018001500200069
:10153000f40720000202420020003400f7032000dc
:1015400087036000060420000003630002082000f7
:10155000000161004700de00c909dd000080710064
:10156000c708de000600e0000800320087037100b3
:10157000060032001000b0000180b0000188a30016
:1015800002003200c108de000402e800f107b200e8
:10159000f30f20000320e10003003d004722dd009f
:1015a000810072002900370001f827000000eb00dd
:1015b000260037006000b800000006006802120034
:1015c0007f20e100020034006000b8001f003700f7
:1015d0006011b8007020e10004003500800178003f
:1015e000010078008000eb00700252000400e0006f
:1015f00009003400f00312000719dd008419de0031
:101600000703dd00868171000400de00070bdd00aa
:10161000060070008408de00f7ff27008383630064
:1016200087037100060028000303630007003200ef
:101630000700e00003003a006101600002817300ce
:10164000020032001000b0000180b0000500a600ca
:101650000000060001f0a000000006004f0ade00b6
:101660004709de00f107b200f20fb2000b003200b2
:10167000f207b1000170a000c708dd00c901de005b
:10168000838070004700dd000400a6000000060013
:1016900060001000e080180000000600810f70005c
:1016a00001003a00000006008182cf000500e00042
:1016b00010003e008082cf00ee8242007028e100e0
:1016c0000400390007003e00800078000000eb00b5
:1016d0000e003700708312008600de000500dd007a
:1016e0000a003700708352008600dd000000eb0026
:1016f00006003700e28252008508dd007083120088
:101700000603de00868070000500dd007507b0006e
:101710000501ea000400a6000000060060001000b9
:10172000e080180000000600889fbe008a9fbe006f
:10173000841f78007c0007004f0078001100330000
:10174000f0ff2f00838f6c0006003b00040565004e
:101750000a00a7000800370009f0a60010002000ca
:1017600008003700820f5400838f5c0003003900ab
:101770001000200001003e000000200009f0a7003a
:101780000000ea004f05be004f04be000000e0006c
:1017900000000600881f7800030478000300e000c2
:1017a00007003d0060001000e08018006001190093
:1017b000e081190002003b0001f02d00030037001a
:1017c0000400070008f0a70001f0a0004f04780013
:1017d00000000600889fbe008a9fbe000082700045
:1017e0000402710004827100260032000004be0071
:1017f0000200be006011b8006b09200095022000b5
:101800000182cf000a0039000541b1000082cf00fb
:10181000070039000541b1000982cf0004003900fa
:101820000541b1000882cf00010039000541b10037
:1018300005425200120032000a003b008281710012
:10184000610164008100d1000080d3008984d3004d
:101850000884d3008b05e8000442e800f7ff3a0053
:10186000070037000804440089844c000000480049
:10187000818048008b05e9000442e900f9ff3a0045
:10188000030007004f05be004f04be000000060025
:1018900081002000618055000b003d000b002000fe
:1018a00061fe2f000100e1001d0034008281710003
:1018b000610164008904d1000884d3000000e800bd
:1018c000faff3a007100200061006400030070001c
:1018d000020060000900320061044400e0844c0012
:1018e0000988a500050032008b05e8006808e100c2
:1018f00002003a008904d1000884d300f20f2000ce
:101900000258e10005003d00c75ddd00f907b200a7
:101910008980750008007800000006000bf8270099
:101920008b007800000005000004be0014fc0700d6
:101930000003be000405be000200be0010fc07004c
:10194000844f7500000006000400fa00889fbe0066
:101950008a9fbe008c9fbe000205be000bf0a10056
:101960000800200009f82700880f5500898f5d00c6
:1019700005003e000003be0007f0a100880f5300e1
:10198000898f5b00060036001bfc07004f06be0077
:101990004f05be004f04be000080fa0000000600a4
:1019a0000800200009f82300880f5100898f590092
:1019b00002003a0097000700f4ff37004e1cde00db
:1019c0000900200088bf9f0099bf9f000fbe9700ad
:1019d000620466008004eb004f0ade000500200070
:1019e0000404740085847400e00f5300e08f5b00f2
:1019f00009003a00e20f5400e08f5c007f003200e3
:101a0000e20f5400e08f5c00e0ff3900e30f540068
:101a1000e08f5c005f003200e00f5500e08f5d005a
:101a200008003a00610064008000eb00e00f500005
:101a3000e08f580074003200b0fd200091fc2b00b4
:101a4000d2ff37000400200005f82700840f55005e
:101a5000858f5d000f003a008a0f53008b8f5b006b
:101a600040003a00e10f5400e08f5c005800320063
:101a7000e00f5400e08f5c0058003200e20f540089
:101a8000e08f5c002b003200e30f5400e08f5c001d
:101a9000310032000c0020000dd020000a02460068
:101aa0008b824e00840f5300858f5b00ddff3e006c
:101ab0000400200005f82700840f5300858f5b0089
:101ac000d8ff3200620264008002eb00e00f520097
:101ad000e08f5a00050032000606460087864e0059
:101ae0008c0f55008d8f5d002d003e00a7fc070078
:101af0008101070047000700e10f5400e08f5c0000
:101b000029003200e00f5400e08f5c009fff32009c
:101b1000e20f5400e08f5c0025003200e2d22b007f
:101b2000b33b2300b4fb0700b2fd20009304240064
:101b3000250037000200200003042400b0fd20002f
:101b40009104240070fd07000200200003e8230038
:101b50006dfd07008dff37000200200003042c00fc
:101b6000f6ff3700e10f5400e08f5c001e003200ea
:101b7000e00f5400e08f5c001e003200e20f5400c2
:101b8000e08f5c001d003200e30f5400e08f5c002a
:101b9000c0ff3a00b0fd200091042c007bff37000d
:101ba0006000b800d4ff370001f0a20077ff3700d3
:101bb000e2d22b00b33b23008ffb07000001be00e5
:101bc000b0fd20009104240082fb07006fff370066
:101bd000b0fd200091f42b006cff3700b0fd200019
:101be00091f4230069ff3700000020000100280065
:101bf00066ff37006000b80064ff3700b0fd2000ca
:101c00009104240061ff3700b0fd200091fc230007
:101c10005eff3700ea874700889fbe008a9fbe00ac
:101c20008c9fbe008e1f78000002be004f0dde00ac
:101c30000b002000000478008504780009f0a10062
:101c4000f0ff2f00f1c72400800f5400818f5c004b
:101c5000100036000000200001f82700800f54001b
:101c6000818f5c0025003e00020020000338200028
:101c7000a0fd200091fc23005ffb07000002be00d6
:101c8000e00f5500e08f5d001c00320005f0a2005f
:101c90001a003700f0ff2f00f1ed2300800f5400f1
:101ca000818f5c001c003e000087eb00f0ff2f00de
:101cb000f1972300800f5400818f5c0033003e00b9
:101cc0006000b80003f8270085806100e00f500035
:101cd000e08f580009003a000401be000400be0075
:101ce000f4b79f0085bf9f0007fd0700d0b79f0096
:101cf000e1b79f007fb297008fba97000400be0043
:101d00004f0778004f06be004f05be004f04be00cf
:101d1000af00b100000006000400be00f60007009e
:101d20000006be00f0ff2f0071f92300800f540061
:101d3000818f5c0055003e00f0ff2f00f1f2230080
:101d4000800f5400818f5c0041003e000c01be00fa
:101d50000c00be0028fb07000200200003f823004f
:101d60001cfb07000004be0002002000030024004a
:101d70000c00be0020fb07000001be000800be00f2
:101d800002fc07000002be000007eb000401be00d9
:101d90000400be00f4b79f0085bf9f00dafc070077
:101da0000006be000001be00d7fc07000004be0014
:101db00052c22a00c3d72300d3fc0700d2502f0001
:101dc00013e123000cfb07000801be00cefc070056
:101dd00092aa2a00a3ea230007fb07000c01be0019
:101de000c9fc07000006be0072242100a3dd2b0001
:101df0000800be00c4fc070082a92c00c3e4230035
:101e0000f4fa07000801be00bffc07000001be0095
:101e10000c00be00f8fa07007fb297008fba970057
:101e20000401be00b8fc07000003be000e00e00085
:101e30007fb297008fba970032003d000001be00cc
:101e40000400be00e3fa07000002be00abff37004b
:101e50000200200003f823000c00be00ddfa07009a
:101e60000004be000200200003f823000c00be00a6
:101e7000e1fa07000001be000800be00c3fb070036
:101e80000002be001e002000c0ff3700f0ff2f0040
:101e9000b1012400800f5400818f5c0012003e00cd
:101ea0000200200003fc23000c00be00c9fa07005a
:101eb0000004be000200200003fc23000c00be0052
:101ec00091fc07000200200003f82300cafa070073
:101ed0000001be000800be00acfb07000002be000f
:101ee0002e002000a9ff37000c01be0000002000da
:101ef00001f82b00a5fb07000002be003e002000f9
:101f0000a2ff37004277dd00e83621000e044400ce
:101f1000e03521000e0740001e0178009e01900070
:101f20000600be00f4b79f0085bf9f00a9fa070016
:101f30007fb297008fba97000401be00a5fa070090
:101f40000001be001800780098009000a1fa070078
:101f50004aff37000400fa000001be0003f0a100b0
:101f6000a4fd200095f42300840f5100858f5900b3
:101f70000e003e00f4ff2f00f5972300840f510060
:101f8000858f59003a003e000200200003b8270068
:101f900099fa0700e0bf9f00f1bf9f0000002000fa
:101fa00001f823000080fa00000006004f0ade005e
:101fb00005002000163d2500b7072400860f5100bc
:101fc000878f59001b003e0036be2c00670124009d
:101fd000860f5100878f59000a003600b2fd20009d
:101fe000930424000400e0000400320082fa070099
:101ff000ab01070001f0a200eaff370075fa070005
:10200000fbff37000400e00005003200b2fd2000b5
:1020100093fc230078fa07002c020700e1ff370049
:102020000001be00b0fd200091fc230069fa07000a
:10203000f9ff3700561d2300270e2400860f51009c
:10204000878f590014003e00f6dd2e00f70a2400a9
:10205000860f5100878f590009003600b2fd20001d
:10206000930c24000400e0000300320062fa070031
:102070008b010700cbff370056fa0700fcff370043
:102080000400e0000100320001f0a20042be2c007a
:1020900063092400e5ff3700f4ff2f00f5f7270060
:1020a000840f5100858f5900040036000001be00e6
:1020b0000200be0047fa0700baff3700c2ff2f0038
:1020c0000f014100aa010700630160006fb897008b
:1020d000ffb89700e10f510005003200e20f5100f8
:1020e000c3ff32000200e000cbff3a00e0ff370000
:1020f00001f0a200c8ff37000101780002f0a10042
:1021000082007800000006000400fa00889fbe00ec
:102110008a9fbe000203410083834900e00f530001
:10212000e08f5b000f0032000202be0005f0a1004c
:102130000800200009f82700880f5200898f5a00f4
:1021400008003e00a0bf9f00b1bf9f00470dde000a
:102150000b002000f40f20000a056200840f5500d8
:1021600007003a00e8fb07000001be0007fb07007c
:102170004f05be004f04be000080fa0000000600bc
:102180000002400081824800840f5300858f5b006d
:1021900006003900840f5300858f5b00f4ff3a007e
:1021a0006011b800d8fb0700f1ff37000a00e0001b
:1021b0004c003a002fbb9700bfbb9700493add00a7
:1021c000c732de00850272004932dd00e00f5200a6
:1021d000e08f5a003f003d00610215002fbb9700c1
:1021e000bfbb9700040478000804e9000300330033
:1021f0000603430087834b00fbff37000602be0047
:10220000471bde00070020000683fb000600e000fd
:102210003d003a00491cdd00c714de00890474004b
:102220004914dd00e00f5400e08f5c0032003d00f7
:10223000e10313000204be008703e900030033003a
:102240000804440089844c00fbff37000801520059
:1022500089815a00860f55002f003c00e00f510085
:10226000e08f590004003500e00f5100e08f590065
:10227000cbff32000202be004728de000100200032
:10228000e00f5000e08f58002e0032000a00e000fe
:10229000300034000000200001f82f00040240004c
:1022a000858248006150b900c700dd0000002000b1
:1022b00004007000858070006022b80002002800d1
:1022c000bfb9970083026100000072008180720034
:1022d000a7ff37000a05e9000402420085824a0090
:1022e000baff37002fba9700bfba9700f507b200c0
:1022f0000570a000c2ff37000603e900080444008f
:1023000089844c00c7ff37000204be00f907b20001
:102310000970a000cdff3700e00f5100e08f590099
:1023200004003500e00f5100e08f59009cff32009f
:102330000202be000402420085824a000a05e9004a
:10234000c2ff37000402420085824a000a05e90004
:10235000c9ff3700610515000400be000a05e90049
:10236000030033008100d1000080d300fbff370061
:10237000d1ff37000800fa00889fbe008a9fbe0088
:102380008c9fbe000004be004708de000086fb00f4
:1023900050092000800f560014003c0088bf9f00a9
:1023a00099bf9f000805be00e00f5400e08f5c005d
:1023b00001003d000bf0a2000200200003b0240049
:1023c0000a00be008cf90700d2072000820f5600d9
:1023d0000c003c00e0b79f00f1b79f006011b8000f
:1023e0000800be0048fb07000004be000800be0055
:1023f0004f06be004f05be004f04be000080fa002d
:10240000000006000200200003b0240071f907005c
:102410000a01be006ff907000006be000001be0001
:102420000a00be0074f907000004be00020020008c
:1024300003f023000c00be000cf907000000e000d0
:102440000c0034000200200003f823000800be0046
:1024500060f907000004be000fb897009fb897000e
:10246000e00f5000e08f5800e0ff3d0009f0a200af
:10247000deff37000200200003f02b000c00be003e
:10248000f8f807000000e000f3ff3c000200200025
:1024900003f823000800be0057f90700edff3700de
:1024a0000400fa00889fbe000004be008900780086
:1024b00001f0a100a4fd200095f42300840f50003a
:1024c000858f58001e003e00f4ff2f00f597230073
:1024d000840f5000858f580016003e006000b80041
:1024e00003f8270089806100e00f5000e08f58005a
:1024f0000b003a0002002000033820000800be0054
:1025000001fb07000001be00c2bf9f00d3bf9f00b8
:102510000800be004f04be000080fa000000060064
:102520000200200003b827000800be0032f90700af
:10253000f4ff37000800be00e40007001800370071
:102540004f49de0003002000143d2500b50724009c
:10255000840f5000858f58001d003e0034be2c00b3
:1025600065012400840f5000858f58000e003e0046
:102570000800be000200e000b2fd200093fc230032
:10258000050032001cf90700450007000004be00ea
:1025900009f0a200deff37000ef907004000070037
:1025a0000004be00daff37000800be000200e000b1
:1025b000b2fd200093042400030032000ef907004e
:1025c00001f0a200dcff370002f90700fcff370032
:1025d000541d2300250e2400840f5000858f5800c1
:1025e00017003e00f4dd2e00f50a2400840f500091
:1025f000858f580009003e000800be000200e00080
:1026000042be2c006309240002003200faf80700e1
:10261000e2ff3700eff80700dbff37000800be00dd
:102620000200e000b2fd2000930c24000200320002
:10263000f1f80700c0ff3700e6f80700beff3700db
:10264000f2ff2f00f3f72700820f5000838f58000e
:10265000050036000801be000800be00ddf80700d6
:102660000004be00aaff370082ff2f000f014100c7
:102670000800be003e000700630160004fb89700ed
:10268000dfb89700e10f5100c4ff3200e20f5100a4
:10269000cbff32000200e000bbff3a00a6ff37008c
:1026a0000400fa00889fbe008a9fbe008c9fbe0077
:1026b0000001be0094fa07000004be000001be0045
:1026c00091fa07000005be000200200003f02b0075
:1026d0000800be008cfa07000200200003f8230067
:1026e000c5f807000006be00f2a92a00a3d2230005
:1026f0000a00be0084fa07000001be000c00be0004
:10270000bdf807000002be0072a12900c37c2300af
:102710000800be0084bf9f0095bf9f007afa0700a3
:10272000f243200063ab2300aaf807000006be00b6
:102730000a01be000800be0073fa07000001be00d7
:102740000c00be0070fa07000001be000fba97002f
:102750009fba97000400be00a7f807004f06be000e
:102760004f05be004f04be000080fa0000000600c6
:102770000400fa00889fbe008a9fbe008c9fbe00a6
:1027800000067800810478008206780001f0a1003c
:10279000a2fd200093dc2400820f5000838f58009c
:1027a00023003e0032982f0023f223008900780096
:1027b00055fa07000200200003b424008ef8070039
:1027c0000200200003b4240082f807000005be00c8
:1027d00028f8070000047800a2fd200093fc2300e5
:1027e0000a00be0048fa07000001be000c00780095
:1027f0008900780077f807000002be00325a2800ee
:10280000832823000a00be0084bf9f0095bf9f005d
:102810003dfa07000001be000fba97009fba97006b
:102820000400be006bf80700808ebe000b0037006e
:10283000f2ff2f00f3f72700820f5000838f58001c
:102840000c003600000178008901780089007800ca
:1028500060f80700808ebe000004eb0008007800de
:102860004f06be004f05be004f04be000080fa00b8
:1028700000000600890078004c0007000005be003b
:1028800032982f0023f223001ffa070002002000d5
:1028900003f0230058f807005500070000047800f3
:1028a000bcfb070032982f0023f2230037f9070002
:1028b0000001be000a00be0046f807006000b80034
:1028c000a0069800b1069800d7ff37000400fa0070
:1028d000889fbe008a9fbe008c9fbe000006be007f
:1028e0000001be0008fa07000004be000001be009f
:1028f0000c00be0004fa07000005be000801be007f
:102900000800be0000fa07000a01be00fef9070039
:102910000002be00c2c32600636323000800be009d
:1029200084bf9f0095bf9f00f7f90700f27c20004d
:102930000395230027f807000001be000fba970097
:102940009fba97000400be00eff907000002be0026
:102950004288280083c023000800be0084bf9f0077
:1029600095bf9f00e8f90700b2aa2a00a3e223005e
:1029700018f807000a01be00e3f907000c01be00c9
:102980001df807000001be000fba97009fba97001c
:102990000400be0018f807004f06be004f05be0039
:1029a0004f04be000080fa00000006000400fa0098
:1029b0006011b800e2bf9f00f3bf9f006fbb97009c
:1029c000ffbb97000002be00f0ff2f00f1ff2f00b9
:1029d000f2ff2f00f3ff27000000620081806200f9
:1029e00002016300838163000080fa00000006009a
:1029f0000003be00e2f707006011b8000470a700f2
:102a000007f0a1006509b1001b003200120035007b
:102a1000860220000628e10008003500f3ff2700a9
:102a2000f2ff2f006110b9000700e00018003b0022
:102a3000030028006000b80002000500000040000c
:102a40008180480002014900838149008502e90034
:102a5000faff3a0008003700f88f420002003c00fd
:102a60008000eb00000005008100d1000080d30051
:102a70008502e800fcff3a000700e00004003b008c
:102a800060001000e080180060011900e08119006a
:042a9000000006003c
:020000040000fa
:102a94000a00fa002611070085100700b60b07008c
:102aa400a30b0700ce0b0700d21007001f08070076
:102ab40000120700e8090700ef0907003e0d0700b0
:102ac40012110700e14f50003f013a0013110700b3
:102ad4000a110700100798000e80e800610020002a
:102ae40010804000100078008000eb009ff7070082
:102af400323323003305240082f9070000017800f3
:102b040001007800820278000002780002002000b0
:102b14000358240005007800840078000000be00fb
:102b240099f8070020079800310798002e019000bb
:102b3400be019000000020008120240092f80700cc
:102b44000001780001007800820278000002780019
:102b540002002000030a24000500780084007800a5
:102b64000000be009af70700800178000101780098
:102b740003007800820078000000be00308b8800db
:102b8400418b8800308b8000418b800059f707000f
:102b94008040780080382100314098000e80e800a1
:102ba4004100200010804000100078008000eb00fd
:102bb4006ef70700323323003305240051f9070070
:102bc4000001780001007800820278000002780099
:102bd40002002000035824000500780084007800d7
:102be4000000be0068f8070020079800310798002d
:102bf4002e019000be0190000000200081202400de
:102c040061f8070000017800010078008202780072
:102c14000002780002002000030a24000500780066
:102c2400840078000000be0069f707008001780086
:102c34000101780003007800820078000000be00e3
:102c4400508b8800618b8800508b8000618b8000e2
:102c540028f7070080407800803821002140980040
:102c64000e80e8001080e800100078008000eb007f
:102c74003ef70700323323003305240021f907000f
:102c840000017800010078008202780000027800d8
:102c94000200200003582400050078008400780016
:102ca4000000be0038f8070020079800310798009c
:102cb4002e019000be01900000002000812024001d
:102cc40031f80700000178000100780082027800e2
:102cd4000002780002002000030a240005007800a6
:102ce400840078000000be0039f7070080017800f6
:102cf4000101780003007800820078000000be0023
:102d0400708b8800818b8800708b8000818b8000a1
:102d1400f8f60700804078008038210011409800c0
:102d24000e80e80081002000108040001000780030
:102d34008000eb000df70700323323003305240035
:102d4400f0f80700000178000100780082027800a2
:102d540000027800020020000358240005007800d7
:102d6400840078000000be0007f8070020079800e0
:102d7400310798002e019000be0190000000200051
:102d84008120240000f80700000178000100780089
:102d9400820278000002780002002000030a240066
:102da40005007800840078000000be0008f70700e2
:102db4008001780001017800030078008200780027
:102dc4000000be00908b8800a18b8800908b80004f
:102dd400a18b8000c7f6070080407800803821006e
:102de400414098001e009000100078008000eb0025
:102df400def607003233230033052400c1f8070050
:102e04000001780001007800820278000002780056
:102e14000200200003582400050078008400780094
:102e24000000be00d8f7070020079800310798007b
:102e34002e019000be01900000002000812024009b
:102e4400d1f70700000178000100780082027800c1
:102e54000002780002002000030a24000500780024
:102e6400840078000000be00d9f6070080017800d5
:102e74000101780003007800820078000000be00a1
:102e8400b08b8800c18b8800b08b8000c18b800020
:102e940098f60700804078008038210001487800c7
:102ea4008238210051002000000320005e05070045
:102eb40090818000a18180008ef607008040780018
:102ec400d038210001487800d238210021002000a8
:102ed4000004200054050700708180008181800077
:102ee40084f6070080407800d03821001140980013
:102ef400d238210021002000000420004a050700e8
:102f0400908b8000a18b800002002000031a240013
:102f140055f607000000e00002003400754ea800da
:102f240001003700754ea900308b8000418b800072
:102f340002002000031a24004bf607000000e00002
:102f440002003400856ea80001003700856ea900d8
:102f5400508b8000618b800002002000031a240043
:102f640041f607000000e00002003400848ea8004f
:102f740001003700848ea900708b8000818b800053
:102f840002002000031a240037f607000000e000c6
:102f94000200340084aea8000100370084aea9000a
:102fa400b08b8000c18b800002002000031a240033
:102fb4002df607000000e0000200340084cea800d3
:102fc4000100370084cea9000000eb00000f780058
:102fd4000500370037100700004f98000e48900096
:102fe400630507001e0fe8004c1007009e007800e0
:102ff400808f5000f7ff350000712200010020008f
:10300400fef40700aefe37000000fa0020d0bf0037
:103014000080fb006100b900f200200003002000e2
:10302400820f5000838f580073003e000006010099
:103034000f00370018003700210037002b0037003d
:103044002c003700360037003700370041003700c6
:10305400420037004c0037004d003700570037005e
:103064006500370064003700560037006000370001
:103074003a30ef003c30ef000041eb006000b80054
:10308400de07070012c0b3006000b800db070700ca
:1030940010c0b30020f0b700d2818000e38180002b
:1030a400803e200001002000800f5100818f5900d4
:1030b4005300360020c0b30020f0b70050003700a2
:1030c40070818000818180000041eb00cb07070004
:1030d40090818000a181800012c0b300c70707005f
:1030e40030c0b30020f0b7004600370048000700a6
:1030f4004400370070818000818180000041eb0032
:10310400be07070090818000a181800012c0b30037
:10311400ba07070050c0b30020f0b70039003700e9
:103124003b000700370037007081800081818000f8
:103134000041eb00b107070090818000a18180006d
:1031440012c0b300ad07070070c0b30020f0b70091
:103154002c0037002e0007002a0037007081800001
:10316400818180000041eb00a4070700908180006a
:10317400a181800012c0b300a007070090c0b30073
:1031840020f0b7001f003700210007001d003700a2
:1031940070818000818180000041eb009707070067
:1031a40090818000a181800012c0b30093070700c2
:1031b400b0c0b30020f0b7001200370014000700bd
:1031c4001000370070818000818180000041eb0095
:1031d4008a07070090818000a181800012c0b3009b
:1031e40086070700f0c0b30020f0b70005003700e1
:1031f40007000700030037002070ef0001003700cc
:1032040000000000000000000080fa00000006003a
:103214000200fa00909080000000e00006023a00ec
:103224000040eb00004f7800308b8000418b800021
:1032340002002000031a240089f507000000e000c2
:103244000e003d00508b8000618b80000200200046
:10325400031f240084f507000000e0000700350088
:10326400708b8000818b800002002000031a2400f0
:103274007bf507000000e00015003500908b80000e
:10328400a18b800002002000031a240074f50700bb
:103294000000e00011003d00508b8000618b800035
:1032a40002002000031f24006ff507000000e00067
:1032b4000a003500b08b8000c18b80000200200022
:1032c400031a240066f507000000e00003003d0037
:1032d40030c0b300004f780031013700308b8000dc
:1032e400418b800002002000831c24005cf5070051
:1032f4000000e0001f003d00508b8000618b8000c7
:1033040002002000031f240057f507000000e0001e
:1033140018003500708b8000818b80000200200033
:10332400831c24004ef507000000e00011003d005e
:10333400908b8000a18b800002002000031a2400df
:1033440047f507000000e0000a003d00b08b800054
:10335400c18b800002002000031a240040f50700fe
:103364000000e00003003d000040eb00004f780047
:103374000b013700508b8000618b8000020020001d
:10338400031f240038f507000000e0001400350096
:10339400908b8000a18b800002002000831c2400fd
:1033a4002ff507000000e0000d003d00b08b800009
:1033b400c18b800002002000831c24002af5070032
:1033c4000000e00006003400108180000000e800e6
:1033d4001081880040c0b300004f7800f00037002f
:1033e400508b8000618b800002002000031f2400aa
:1033f4001df507000000e00014003500908b8000ec
:10340400a18b800002002000831c240016f5070015
:103414000000e0000d003400b08b8000c18b800000
:1034240002002000831c24000df507000000e000ca
:1034340006003d00108180000000e8001081880033
:1034440050c0b300004f7800d5003700308b8000a7
:10345400418b800002002000831c240002f5070039
:103464000000e00014003500508b8000618b800068
:1034740002002000031f2400fbf407000000e0000a
:103484000d003500708b8000818b800002002000cd
:10349400831c2400f2f407000000e00006003d0055
:1034a400108180000000e8001081880010c0b30083
:1034b400004f7800ba003700308b8000418b8000c9
:1034c40002002000831c2400e5f407000000e00053
:1034d40014003d00508b8000618b800002002000ae
:1034e400031f2400e0f407000000e0000d00350095
:1034f400708b8000818b800002002000831c2400dc
:10350400d9f407000000e0000600350010818000b7
:103514000000e8001081880020c0b300004f78004c
:103524009f003700308b8000418b80000200200018
:10353400831c2400caf407000000e00014003d00ce
:10354400508b8000618b800002002000031f240048
:10355400c3f407000000e0000d003d00948b8000e0
:10356400a58b8000b08b8000c18b80000001be0061
:103574000400be00baf407000000e00004003d00af
:103584002230ef0070c0b300004f78008400370091
:10359400708b8000818b800002002000831c24003b
:1035a400aff407000000e00014003d00508b8000e1
:1035b400618b800002002000031f2400a8f4070090
:1035c4000000e0000d003d00948b8000a58b80007e
:1035d400b08b8000c18b80000001be000400be00df
:1035e400a1f407000000e000040034002230ef00e2
:1035f40080c0b300004f780069003700508b800012
:10360400618b800002002000031f240096f4070051
:103614000000e00012003500908b8000a18b800038
:1036240002002000031a24008ff407000000e000c9
:103634000b003500b08b8000c18b8000020020009d
:10364400031a240088f407000000e0000400350099
:103654002230ef000040eb00004f780050003700ac
:10366400308b8000418b800002002000031f240067
:103674007bf407000000e00014003d00508b800044
:10368400618b800002002000031f240076f40700f1
:103694000000e0000d003400348b8000458b800076
:1036a400708b8000818b80000001be000400be008e
:1036b4006bf407000000e00004003d002230ef003e
:1036c40020c0b300004f780035003700508b8000d5
:1036d400618b800002002000031f240062f40700b5
:1036e4000000e0000b003400708b8000818b8000b0
:1036f40002002000031f240059f407000000e0002a
:1037040004003d002230ef0010c0b300004f7800e9
:1037140023003700508b8000618b80000200200062
:10372400031f24004ef407000000e00004003d00e5
:103734002230ef0030c0b300004f7800180037008b
:10374400308b8000418b800002002000831c240009
:1037540045f407000000e00011003400508b8000a5
:10376400618b800002002000831c24003ef40700cb
:103774000000e0000a003500708b8000818b80001f
:1037840002002000831c240037f407000000e0003e
:10379400030035002230ef000040eb00004f7800ba
:1037a40011818000803e2000808f50001900340079
:1037b400348b8000458b8000708b8000818b80006f
:1037c4000001be000400be0027f407000000e00072
:1037d4000400340080c0b300004f78002230ef00b2
:1037e4000c003700348b8000458b8000708b800088
:1037f400818b80000001be000400be0018f40700a5
:103804000000e00003003d0070c0b300004f7800ea
:103814002230ef001e4078000004e0001b003a0054
:1038240020c0b30021f0b700508b8000618b800072
:1038340002002000032224000bf407000000e00033
:103844000900340000002000811c240070818800dd
:103854008181880000002000811c24009081880060
:10386400a18188006a00370000002000011a2400aa
:10387400708188008181880000002000011a2400e2
:1038840090818800a1818800610037001e40780083
:10389400e24f50000b003a0040c0b30021f0b700e3
:1038a40000002000011224007081880081818800ba
:1038b40000002000010a240090818800a181880072
:1038c400530037001e407800e14f50000b003a00cf
:1038d40060c0b30021f0b70000002000010a2400fa
:1038e400708188008181880000002000011224007a
:1038f40090818800a1818800450037001e4078002f
:10390400e34f50000b003a0080c0b30021f0b70031
:103914000000200001172400708188008181880044
:103924000000200001172c0090818800a1818800ec
:10393400370037001e407800e54f50000b003a0076
:1039440060c0b30021f0b70000002000010a240089
:103954007081880081818800000020000117240004
:1039640090818800a1818800290037001e407800da
:10397400e44f50000b003a0040c0b30021f0b70000
:1039840000002000011724007081880081818800d4
:1039940000002000010a240090818800a181880091
:1039a4001b0037001e407800e74f50000b003a0020
:1039b40080c0b30021f0b7000000200001172400ec
:1039c40070818800818188000000200001172c008c
:1039d40090818800a18188000d0037001e40780086
:1039e400e84f50000a003a00a0c0b30021f0b7002d
:1039f4000000200001172c0070818800818188005c
:103a0400000020000117240090818800a181880013
:103a140021d0bf000080fb0001022100914078000a
:103a24008180fb008100e900810f50000200320018
:103a340021d0bf0020f0b700000000000080fa0091
:103a4400000006000e00fa00000f7800120798002c
:103a540023079800340798004507980056079800f4
:103a6400670798001e0078001e019000ae019000c8
:103a74000288be001e0078003eb99700ceb99700b8
:103a840062009800730098001e0078003e019000c8
:103a9400ce01900022009800330098001e007800a8
:103aa4001eb99700aeb99700020898001308980051
:103ab4001e0078005e019000ee0190004200980024
:103ac400530098001e0078007eb197008eb99700cd
:103ad4002208980033089800000000000080fa00d3
:103ae400000006001200fa00889fbe0060079800dc
:103af40072079800030f98006e0090007e019000fa
:103b04008e09900002109800131098006e00900027
:103b140090009000100078006011b80095f3070041
:103b24000000e000240032006e009000600290006b
:103b3400f00290006e009000900090001000780059
:103b44000001be000400be008ff4070000017800ed
:103b54000100780082047800000478006e00900070
:103b6400f00090006000900001f0a2006e0190004f
:103b7400920190001201780083f40700000178009c
:103b840001007800820178000001780009007800c3
:103b9400880078000002be000300780082007800ec
:103ba4000001be007e0090008e089000ca0a070043
:103bb400008fbe00030037007e0190008e09900044
:103bc400028fbe006e0090009000900010007800fc
:103bd4001e0178009e0190004af5070080017800dc
:103be4000101780003007800820078000001be0023
:103bf4006e00900022109800331098006e00900020
:103c0400400c9000d00c900002002000a337240048
:103c14007e0090008e0890005bf40700000178009d
:103c24000100780082017800000178000300780028
:103c3400820078000001be000800be006df307009a
:103c44008001780001017800030078008200780088
:103c54000001be006e0090004208980053089800ce
:103c64006e009000b0009000200090006011b80039
:103c740040f307000000e000290032006e009000cd
:103c8400000a9000900a90006e009000b00090002e
:103c9400200090000001be000400be003af40700ba
:103ca40000017800010078008204780000047800a4
:103cb4006e009000900890000008900001f0a200af
:103cc4006e019000b2019000220190002ef40700d2
:103cd400000178000100780082017800000178007a
:103ce4006e009000400b9000d00b9000090078000b
:103cf400880078000002be0003007800820078008b
:103d04000001be000600be00730a07000001be00e9
:103d14006e00900042089800530898000500370090
:103d24006e0090007e0190008e0990004208980079
:103d3400530898006e009000400a9000d00a90004a
:103d44006e009000b0009000200090000001be00c2
:103d54000400be00ebf40700800178000101780044
:103d640003007800820078000001be006e0090001d
:103d740042109800531098006e009000f0089000d4
:103d8400600890000001be007e0090008e08900044
:103d94000ff3070000017800010078008202780028
:103da4000002780002002000a337240005007800f8
:103db400840078000000be00d2f407004007980099
:103dc400510798006e009000d000900040009000d1
:103dd4006011b800e7f207000000e000250032009f
:103de4006e009000200a9000b00a90006e009000cf
:103df400d0009000400090000001be000400be000e
:103e0400e1f30700000178000100780082047800e3
:103e1400000478006e009000b00890002008900024
:103e240001f0a2006e019000d201900042019000c6
:103e3400d5f30700000178000100780082017800c2
:103e44000001780009007800880078000002be00b4
:103e540003007800820078000001be004e0090004c
:103e6400de0090001c0a0700200798003107980024
:103e7400040037004e019000de01900022079800f4
:103e8400330798006e0090007e0190008e09900028
:103e940062089800730898006e009000d0009000ab
:103ea400400090002e019000be01900095f40700a0
:103eb4008001780001017800030078008200780016
:103ec4000001be006e00900062109800731098000c
:103ed4006e00900020129000b01290006e009000ce
:103ee400d0109000401090000001be000400be00fd
:103ef400c0f2070000017800010078008202780017
:103f0400000278006e009000f010900060109000a5
:103f14000001be0005007800840078000000be00a7
:103f2400b4f20700000178000100780082007800f4
:103f34008101780000017800030078008200780095
:103f44000000be004f04be000080fa00000006001e
:103f54000000fa00548d8000658d8000108c800074
:103f6400218c80000001be000400be0098f207000e
:103f74008001780001017800030078008200780055
:103f84000000be00908e8800a18e8800748d800091
:103f9400858d8000308c8000418c80000001be0043
:103fa4000400be008af20700800178000101780055
:103fb40003007800820078000000be0010908800a2
:103fc40021908800908e8000a18e80000001be00a8
:103fd400201b2100c3fe0700108d8800218d88005e
:103fe40010908000219080000001be00201e21005e
:103ff400bcfe0700308d8800418d8800308d800024
:10400400418d8000148d8000258d80000001be004c
:104014000400be0035040700000000000080fa0020
:10402400000006006000fa00908d8000a18d8000e1
:104034000001be008000eb000e0078001f0a07009c
:10404400b08d8000c18d80000001be0041002000c1
:104054000e007800190a0700d08d8000e18d8000e1
:104064000001be00810020000e007800130a070042
:10407400f08d8000018e80000001be00c100200090
:104084000e0078000d0a0700108e8000218e80003b
:104094000001be00010120000e007800070a07009d
:1040a400308e8000418e80000001be00410120005e
:1040b4000e007800010a07000e017800810120003b
:1040c40000072000d8000700108f8000218f800097
:1040d400780247000001be008000eb000400780075
:1040e400f6090700308f8000418f80007802470076
:1040f4000001be004100200004007800ef09070021
:10410400508f8000618f8000780247000001be005c
:104114008100200004007800e8090700708f800007
:10412400818f8000780247000001be00c10020009a
:1041340004007800e1090700908f8000a18f8000bf
:10414400780247000001be0001012000040078004d
:10415400da090700b08f8000c18f80007802470021
:104164000001be004101200004007800d3090700cb
:10417400780047000001780081012000100720002a
:10418400a9000700b08e8000c18e800004032000c7
:104194000e0242000001be008000eb000400780023
:1041a400c6090700d08e8000e18e80000403200041
:1041b4000e0242000001be0041002000040078000d
:1041c400be090700f08e8000018f800004032000e8
:1041d4000e0242000001be008100200004007800ad
:1041e400b60907003090800041908000040320004d
:1041f4000e0242000001be00c1002000040078004d
:10420400ae090700509080006190800004032000f4
:104214000e0242000001be000101200004007800eb
:10422400a60907007090800081908000040320009c
:104234000e0242000001be0041012000040078008b
:104244009e090700908e8000a18e80000403200048
:104254000e0242000001be0081012000040078002b
:10426400960907001090800021908000040320002c
:104274000e0242000001be00c101200004007800cb
:104284008e090700000320000e00400000017800a2
:10429400010220002007200063000700508d8000e9
:1042a400618d8000040520000e0242000001be0062
:1042b4008000eb000400780080090700708d800006
:1042c400818d8000040520000e0242000001be0022
:1042d4004100200004007800780907000005200050
:1042e4000e00400000017800810020000009200039
:1042f4004d000700108d8000218d80008405200072
:104304000e0242000001be008000eb0004007800b1
:104314006a090700308d8000418d800084052000eb
:104324000e0242000001be0041002000040078009b
:1043340062090700800520000e004000000178009b
:104344008100200010092000370007000000000051
:104354000080fa00000006000a00fa002007980016
:1043640031079800420798000000eb00000f780026
:104374009e007800e00f200000806800000f7800a5
:104384002e0090004880de009e00780000806800c7
:10439400000f78009e0078002e00900000806800d6
:1043a400000f78003e0090004880de009e007800f8
:1043b40000806800000f78009e0078003e009000a6
:1043c40000806800000f78000000eb0010079800e0
:1043d4000d0037001e009000e80047001100400067
:1043e400104078000080fb009e0078000080680088
:1043f400000f78000e80e8008e80e8001108e800c5
:1044040090007800110798009e0090003e009000f4
:10441400808f5000efff35001e00780000407800c8
:104424000080fa00000006000c00fa00889fbe001d
:104434008a9fbe00300798004107980052079800f1
:104444008f0478000f0078000005780068004700aa
:1044540061002000108440000800e9001007980063
:10446400080078000000e8000000d100800040004f
:104474000f00780081874700600040002007980003
:104484002e009000e1cfb300014878003e00900078
:104494004880de00804078002e0090001140980093
:1044a4003e009000804078002e009000214098004b
:1044b4004e0090004880de00804078002e0090007e
:1044c400314098004e009000804078002e0090000b
:1044d400414098000000eb00000f78000000eb0062
:1044e400000f78000a0037001e007800ea00470039
:1044f40011004000510020001e81400090407800cf
:104504002e00900002004000014878001e0fe800d1
:104514004e0090009e007800808f5000f2ff35001e
:10452400510020009e8540005e019000ce00900066
:104534003e00900088ff0700804078002e00900025
:104544000b004000014878002e009000880078009d
:104554006c0907008a0778000000000089077800ca
:104564004f05be004f04be000080fa0000000600a4
:104574000200fa00004f780050818000e30f5000e1
:1045840023003200e30f500007003c00e10f50000d
:1045940012003200e10f500016003c000000e00061
:1045a4000800320055003700e50f500025003200a6
:1045b400e50f50001c003500e60f50003a003200b1
:1045c4004e0037001e407800e24f40004d003a0094
:1045d40010002000508188004a0037001e80fb0034
:1045e4004800dd00208188002000200050818800e0
:1045f400470037001e80fb0021818000010040003d
:10460400208188003000200050818800400037005d
:104614001e80fb004800dd0030818800400020003f
:10462400508188003a0037001e80fb0031818000f1
:104634000100400030818800500020005081880033
:10464400330037003181800000402000808f50000b
:10465400020034002a30ef002c0037004181800032
:1046640030818000808f500028003d00418180000f
:1046740040292100010040001e487800408180004c
:104684000000e80040818800418180003081800082
:10469400808f50001d003a002830ef006000200099
:1046a400508188001900370031818000208180000a
:1046b4004229210028ff07002cf0b7002cd0bf00ae
:1046c4009e40780080cf500005003a003181800080
:1046d40020818000422921001000070005003700d6
:1046e40030818000422921008000780030012000c0
:1046f4000a0007002a30ef00050037002a30ef00d7
:104704000300370000000000010037000000000033
:10471400000000000080fa00000006003c00fa00df
:10472400889fbe00301f9800411f9800521f9800b8
:104734000f0478000f007800800478004e18900071
:104744008000e90011079800000040000000e80024
:104754000000d100800040000f00780081874700ee
:104764000000e8000000d10000004000200798008d
:10477400be18900010072000808f5000a000320067
:10478400be18900010072000808f50000d003c00e0
:10479400be18900000052000808f500059003200a0
:1047a400be18900000072000808f50006300320084
:1047b400be18900000022000808f50000e003200ce
:1047c400d4003700be18900000092000808f5000ec
:1047d400c1003200be18900010092000808f5000e4
:1047e400c3003200be18900000082000808f5000e3
:1047f400b4003200c70037000000eb00000f78005f
:104804000c0037009e007800a00320000e0040003a
:1048140010804000104078008080fb002e01900042
:104824001e007800000040000000410001087800ec
:104834001e0fe8004e1890009e007800808f5000f4
:10484400f0ff35002e00900010007800e10f5000ba
:104854000c003a002e009000100090000000e000d0
:1048640002003a00054ea900a70037002e00900070
:1048740010009000e10f5000a3003a00054ea8007c
:10488400a10037002e00900010007800e20f5000c5
:104894000c003a002e009000100090000000e00090
:1048a40002003a00052ea900970037002e00900060
:1048b40010009000e10f500093003a00052ea8006c
:1048c400910037002e00900010007800e30f500094
:1048d4008d003a002e009000100090000000e000cf
:1048e40002003a00040ea900870037002e00900051
:1048f40010009000e10f500083003a00040ea8005d
:10490400810037004e189000e80f500080003a00f4
:104914008000eb005e189000c4070700009a88002e
:10492400119a8800410020005e189000bf0707001c
:10493400209a8800319a8800750037008000eb00c7
:104944005e189000b90707003007980041079800e7
:10495400410020005e189000b4070700500798003b
:1049640061079800810020005e189000af070700df
:1049740070079800010f9800c10020005e18900095
:10498400aa070700100f9800210f980001012000ca
:104994005e189000a5070700300f9800410f98009b
:1049a400410120005e189000a0070700500f9800f6
:1049b400610f98005e089000ee089000809fbe0092
:1049c4003e089000ce089000809fbe001e08900014
:1049d400ae089000809fbe007e0390008e0b900076
:1049e4005e029000ee0290003e019000ce01900025
:1049f400201b210013fc0700ec87570045003700fb
:104a04008000eb005e18900088070700700f980084
:104a140001179800410020005e18900083070700ea
:104a24001017980021179800810020005e1890004c
:104a34007e0707003017980041179800c100200036
:104a44005e189000790707005017980061179800c6
:104a5400010120005e189000740707007017980089
:104a6400011f9800410120005e1890006f070700a5
:104a7400101f9800211f98001e189000ae18900077
:104a8400809fbe007e1090008e189000809fbe0014
:104a94005e109000ee109000809fbe003e139000c8
:104aa400ce1390001e129000ae1290007e0990006a
:104ab4008e119000201e2100e2fb0700ec875700b6
:104ac400140037005e189000104078000080fb004e
:104ad400909088000f0037008000eb005e18900073
:104ae40052070700508d8800618d88000900370047
:104af4008000eb005e1890004c070700708d880062
:104b0400818d880003003700000000000100370099
:104b14000000000089077800000000008807780082
:104b24004f04be000080fa00000006000000fa00f6
:104b340002ccbf000000a1000010a1000020a100d1
:104b440002ecb7000096200020608800106180000d
:104b540000a0a00000b0a0001061880023cca80031
:104b640023eca8003000200020618800106280003f
:104b740000a0a00000b0a0001062880043cca800f0
:104b840043eca800300020002062880001eca8005b
:104b9400000000000080fa00000006000400fa0093
:104ba400008fbe0002002000031c24001e007800b9
:104bb4009e00900053f10700000178000100780086
:104bc40082027800000278004082800051828000d6
:104bd4000001be0005007800840078000000be00db
:104be40084ef07000001780001007800820178005a
:104bf4000001780003007800820078000000be0005
:104c04003cef0700306188004082800051828000c0
:104c140038ef070070618800000000000080fa008f
:104c2400000006000000fa00889fbe00148b80007c
:104c3400258b8000f08a8000018b80000001be007b
:104c44000400be0006ef07000000e00012003d0073
:104c5400f88a8000098b8000108b8000218b8000f3
:104c6400020020000300240062ef07000001780026
:104c74000100780082027800000278000801be007a
:104c840005007800840078000000be007b06070061
:104c9400108b8800218b8800148b8000258b80006a
:104ca400f08a8000018b80000001be000400be0079
:104cb400edee07000000e00012003400f88a8000e6
:104cc400098b8000108b8000218b80000200200063
:104cd400030024003eef0700000178000100780083
:104ce40082027800000278000801be000500780006
:104cf400840078000000be0049060700108b88007d
:104d0400218b8800108b8000218b80006011b800fb
:104d1400d5ee07000000e0001e003500108b800077
:104d2400218b800002002000031c2400f5f0070002
:104d34000001780001007800820278000002780007
:104d440040828000518280000001be00050078008e
:104d5400840078000000be0026ef07000001780000
:104d640001007800820178000001780003007800d7
:104d7400820078000000be00deee0700306288008a
:104d84004082800051828000daee07007062880061
:104d94001e0037004082800051828000d5ee07005b
:104da40030628800108b8000218b800001f0a2000b
:104db40002002000031c2400d2f007000001780048
:104dc40001007800820278000002780040828000ae
:104dd400518280000001be00050078008400780044
:104de4000000be0003ef0700000178000100780016
:104df40082017800000178000300780082007800c6
:104e04000000be00bbee070070628800d48a8000f8
:104e1400e58a8000b08a8000c18a80000001be005b
:104e24000400be008eee07000000e00012003d000a
:104e3400b88a8000c98a8000d08a8000e18a800014
:104e44000200200003002400eaee070000017800bd
:104e54000100780082027800000278000801be0098
:104e640005007800840078000000be0003060700f7
:104e7400d08a8800e18a8800d48a8000e58a80008c
:104e8400b08a8000c18a80000001be000400be0018
:104e940075ee07000000e00012003400b88a8000bc
:104ea400c98a8000d08a8000e18a80000200200044
:104eb40003002400c6ee070000017800010078001a
:104ec40082027800000278000801be000500780024
:104ed400840078000000be00d1050700d08a880055
:104ee400e18a8800d08a8000e18a80006011b800dd
:104ef4005dee07000000e0001e003400d08a800050
:104f0400e18a800002002000031c24007df00700d9
:104f14000001780001007800820278000002780025
:104f240040828000518280000001be0005007800ac
:104f3400840078000000be00aeee07000001780097
:104f440001007800820178000001780003007800f5
:104f5400820078000000be0066ee07003061880021
:104f6400408280005182800062ee070070618800f8
:104f74001e00370040828000518280005dee0700f1
:104f840030618800d08a8000e18a800001f0a200ac
:104f940002002000031c24005af0070000017800de
:104fa40001007800820278000002780040828000cc
:104fb400518280000001be00050078008400780062
:104fc4000000be008bee07000001780001007800ad
:104fd40082017800000178000300780082007800e4
:104fe4000000be0043ee070070618800000000006e
:104ff4004f04be000080fa00000006000600fa001c
:10500400008fbe00424798004e4090000004e0002c
:1050140006003a001e0078009e00900001f0a200f5
:10502400f08a8800018b8800070037004e4090000a
:10503400e14f500004003a001e0178009e019000e8
:10504400b28a8800c38a8800000000000080fa0049
:10505400000006000600fa00008fbe0042479800d8
:105064004e4090000004e0000e003a001e0078005c
:105074009e00900001f0a20002002000c32524003d
:1050840020f0070080017800010178000300780017
:10509400820078000000be00f08a8800018b88003e
:1050a4000f0037004e409000e14f50000c003a00d2
:1050b40002002000c32524001e0078009e009000fa
:1050c40010f00700800178000101780003007800e7
:1050d400820078000000be00b08a8800c18a88007f
:1050e400000000000080fa00000006000800fa003a
:1050f400008fbe00220798003307980022972f00e4
:10510400f3e823002e009000be009000fdef07009e
:105114000001780001007800820278000002780023
:1051240002002000030024000500780084007800b9
:105134000000be0014ef07000001780001007800b1
:1051440082027800000278001e0178009e0190001f
:1051540005007800840078000000be0025ee0700fa
:1051640000017800010078008202780000027800d3
:1051740002002000c3252c0005007800840078007c
:105184000000be00dfef0700800178000101780015
:1051940003007800820078000000be00f08a8800d6
:1051a400018b880022972f00f3e823002e00900043
:1051b400be009000d3ef07000001780001007800e2
:1051c400820278000002780002002000030024001c
:1051d40005007800840078000000be00eaee0700b5
:1051e4000001780001007800820178000001780055
:1051f40003007800820078000001be001e007800e1
:105204009e009000f2ed0700000178000100780094
:10521400820278000002780002002000c3252400e6
:1052240005007800840078000000be00b5ef070098
:105234008001780001017800030078008200780082
:105244000000be00b08a8800c18a88000000000007
:105254000080fa00000006000000fa00c301a80064
:10526400dca1ef00dea1ef00c1e1a8000000000016
:105274000080fa00000006000000fa00c305a80040
:10528400dca5ef00dea5ef00c1e5a80000000000ea
:105294000080fa00000006001000fa00889fbe009b
:1052a4008a9fbe004080800051808000008088007a
:1052b40011808800608080007180800020808800d8
:1052c40031808800300e80008000eb00008fbe002b
:1052d400500e80008000eb00c000dd0000002000c4
:1052e4001e0f40005e974800302e80008000eb00c7
:1052f4002007980031079800502e80008000eb00b2
:10530400c000dd000000200064014700e401470004
:105314003319400023914800120278009202900051
:1053240024079800350798001e0078009e0090001e
:105334008bed0700c2532e007378230071ef070032
:1053440000017800010078008201780000017800f3
:105354000300780082007800408088005180880033
:105364002e009000be0090007ded0700c2532e0079
:1053740073782b0063ef07000001780001007800c8
:105384008201780000017800030078008200780030
:10539400608088007180880044808000558080008f
:1053a40000808000118080000001be000400be0067
:1053b40087ed070000017800010078008201780081
:1053c4000001780003007800820078008080880063
:1053d4009180880064808000758080002080800037
:1053e400318080000001be000400be0078ed07009b
:1053f4000001780001007800820178000001780043
:105404000300780082007800a0808800b1808800c2
:10541400808080009180800002002000a337240057
:1054240038ef07008001780001017800030078005c
:10543400820078000000be00d08b8800e18b8800d9
:10544400a0808000b180800002002000a3372400e7
:105454002cef070080017800010178000300780038
:10546400820078000000be00f08b8800018c880068
:10547400d48b8000e58b8000f08b8000018c800051
:105484000001be000400be005aed070000017800d0
:1054940001007800820278000002780002002000f7
:1054a4000300240005007800840078000000be009a
:1054b40035ee0700800178000101780003007800d0
:1054c400820078000000be00108c8800218c8800c7
:1054d400d48b8000e58b8000f08b8000018c8000f1
:1054e4000001be000400be0039ed07000001780091
:1054f40001007800820278000002780022972f00d1
:10550400f3e8230005007800840078000000be0062
:105514001dee070080017800010178000300780087
:10552400820078000000be00308c8800418c880026
:10553400b08c8000c18c8000508c8800618c880005
:10554400d08c8000e18c8000708c8800818c880075
:10555400f08c8000018d8000908c8800a18c8800e4
:10556400588c8000698c80001a8c80002b8c800001
:10557400928c8000a38c8000420798005307980007
:10558400308c8000418c800002002000a33f240066
:10559400fded070000017800010078008201780029
:1055a4000001780003007800820078000001be004a
:1055b4004e009000de0090000eed07000001780020
:1055c400010078008201780000017800030078006f
:1055d400820078000000be005df207000001be00fa
:1055e4000a00be00c7ee0700000178000100780041
:1055f400820278000002780002002000a337240011
:1056040005007800840078000000be00deed07008d
:105614000001780001007800820178000001780020
:1056240003007800820078000001be000800be007c
:10563400f0ec070080017800010178000300780095
:10564400820078000000be00b08c8800c18c880005
:10565400788c8000898c80001a8c80002b8c8000d0
:10566400948c8000a58c80006407980075079800ce
:10567400308c8000418c800002002000a33f240075
:10568400c1ed070000017800010078008201780074
:105694000001780003007800820078000001be0059
:1056a4006e009000fe009000d2ec0700000178002c
:1056b400010078008201780000017800030078007e
:1056c400820078000000be0074f307000001be00f1
:1056d4000a00be008bee070000017800010078008c
:1056e400820278000002780002002000a337240020
:1056f40005007800840078000000be00a2ed0700d9
