:020000040000fa
:080000000002040000000000f2
:020000040000fa
:04000800d60300001b
:020000040000fa
:04000c00d603000017
:020000040000fa
:04001000d603000013
:020000040000fa
:04001400d60300000f
:020000040000fa
:04001800d60300000b
:020000040000fa
:04001c00d603000007
:020000040000fa
:04002000d603000003
:020000040000fa
:04002400d6030000ff
:020000040000fa
:04002800d6030000fb
:020000040000fa
:04002c00d6030000f7
:020000040000fa
:04003000d6030000f3
:020000040000fa
:040034000e030000b7
:020000040000fa
:04003800d6030000eb
:020000040000fa
:04003c00d6030000e7
:020000040000fa
:04004000d6030000e3
:020000040000fa
:04004400d6030000df
:020000040000fa
:0400480006030000ab
:020000040000fa
:04004c00d6030000d7
:020000040000fa
:04005000d6030000d3
:020000040000fa
:040054009203000013
:020000040000fa
:040058006803000039
:020000040000fa
:04005c004403000059
:020000040000fa
:04006000d6030000c3
:020000040000fa
:04006400d6030000bf
:020000040000fa
:04006800d6030000bb
:020000040000fa
:04006c00d6030000b7
:020000040000fa
:04007000d6030000b3
:020000040000fa
:04007400d6030000af
:020000040000fa
:04007800d6030000ab
:020000040000fa
:04007c00d6030000a7
:020000040000fa
:04008000d6030000a3
:020000040000fa
:04008400d60300009f
:020000040000fa
:04008800d60300009b
:020000040000fa
:04008c00d603000097
:020000040000fa
:04009000d603000093
:020000040000fa
:040094002c03000039
:020000040000fa
:04009800d60300008b
:020000040000fa
:04009c00d603000087
:020000040000fa
:0400a000d603000083
:020000040000fa
:0400a400d60300007f
:020000040000fa
:0400a800d60300007b
:020000040000fa
:0400ac00d603000077
:020000040000fa
:0400b000d603000073
:020000040000fa
:0400b400d60300006f
:020000040000fa
:0400b800d60300006b
:020000040000fa
:0400bc00d603000067
:020000040000fa
:0400c000d603000063
:020000040000fa
:0400c400d60300005f
:020000040000fa
:0400c800d60300005b
:020000040000fa
:0400cc00d603000057
:020000040000fa
:0400d000d603000053
:020000040000fa
:0400d400d60300004f
:020000040000fa
:0400d800d60300004b
:020000040000fa
:0400dc00d603000047
:020000040000fa
:0400e000d603000043
:020000040000fa
:0400e400d60300003f
:020000040000fa
:0400e800d60300003b
:020000040000fa
:0400ec00d603000037
:020000040000fa
:0400f000d603000033
:020000040000fa
:0400f400d60300002f
:020000040000fa
:0400f800d60300002b
:020000040000fa
:0400fc00d603000027
:020000040000fa
:04010000d603000022
:020000040000fa
:04010400d60300001e
:020000040000fa
:04010800d60300001a
:020000040000fa
:04010c00d603000016
:020000040000fa
:04011000d603000012
:020000040000fa
:04011400d60300000e
:020000040000fa
:04011800d60300000a
:020000040000fa
:04011c00d603000006
:020000040000fa
:04012000d603000002
:020000040000fa
:04012400d6030000fe
:020000040000fa
:04012800d6030000fa
:020000040000fa
:04012c00d6030000f6
:020000040000fa
:04013000d6030000f2
:020000040000fa
:04013400d6030000ee
:020000040000fa
:04013800d6030000ea
:020000040000fa
:04013c00d6030000e6
:020000040000fa
:04014000d6030000e2
:020000040000fa
:04014400d6030000de
:020000040000fa
:04014800d6030000da
:020000040000fa
:04014c00d6030000d6
:020000040000fa
:04015000d6030000d2
:020000040000fa
:04015400d6030000ce
:020000040000fa
:04015800d6030000ca
:020000040000fa
:04015c00d6030000c6
:020000040000fa
:04016000d6030000c2
:020000040000fa
:04016400d6030000be
:020000040000fa
:04016800d6030000ba
:020000040000fa
:04016c00d6030000b6
:020000040000fa
:04017000d6030000b2
:020000040000fa
:04017400d6030000ae
:020000040000fa
:04017800d6030000aa
:020000040000fa
:04017c00d6030000a6
:020000040000fa
:04018000d6030000a2
:020000040000fa
:04018400d60300009e
:020000040000fa
:04018800d60300009a
:020000040000fa
:04018c00d603000096
:020000040000fa
:04019000d603000092
:020000040000fa
:04019400d60300008e
:020000040000fa
:04019800d60300008a
:020000040000fa
:04019c00d603000086
:020000040000fa
:0401a000d603000082
:020000040000fa
:0401a400d60300007e
:020000040000fa
:0401a800d60300007a
:020000040000fa
:0401ac00d603000076
:020000040000fa
:0401b000d603000072
:020000040000fa
:0401b400d60300006e
:020000040000fa
:0401b800d60300006a
:020000040000fa
:0401bc00d603000066
:020000040000fa
:0401c000d603000062
:020000040000fa
:0401c400d60300005e
:020000040000fa
:0401c800d60300005a
:020000040000fa
:0401cc00d603000056
:020000040000fa
:0401d000d603000052
:020000040000fa
:0401d400d60300004e
:020000040000fa
:0401d800d60300004a
:020000040000fa
:0401dc00d603000046
:020000040000fa
:0401e000d603000042
:020000040000fa
:0401e400d60300003e
:020000040000fa
:0401e800d60300003a
:020000040000fa
:0401ec00d603000036
:020000040000fa
:0401f000d603000032
:020000040000fa
:0401f400d60300002e
:020000040000fa
:0401f800d60300002a
:020000040000fa
:0401fc00d603000026
:020000040000fa
:04020000d603000021
:020000040000fa
:04020400d60300001d
:020000040000fa
:04020800d603000019
:020000040000fa
:04020c00d603000015
:020000040000fa
:04021000d603000011
:020000040000fa
:04021400d60300000d
:020000040000fa
:04021800d603000009
:020000040000fa
:04021c00d603000005
:020000040000fa
:04022000d603000001
:020000040000fa
:04022400d6030000fd
:020000040000fa
:04022800d6030000f9
:020000040000fa
:04022c00d6030000f5
:020000040000fa
:04023000d6030000f1
:020000040000fa
:04023400d6030000ed
:020000040000fa
:04023800d6030000e9
:020000040000fa
:04023c00d6030000e5
:020000040000fa
:04024000d6030000e1
:020000040000fa
:04024400d6030000dd
:020000040000fa
:04024800d6030000d9
:020000040000fa
:04024c00d6030000d5
:020000040000fa
:04025000d6030000d1
:020000040000fa
:04025400d6030000cd
:020000040000fa
:04025800d6030000c9
:020000040000fa
:04025c00d6030000c5
:020000040000fa
:04026000d6030000c1
:020000040000fa
:04026400d6030000bd
:020000040000fa
:04026800d6030000b9
:020000040000fa
:04026c00d6030000b5
:020000040000fa
:04027000d6030000b1
:020000040000fa
:04027400d6030000ad
:020000040000fa
:04027800d6030000a9
:020000040000fa
:04027c00d6030000a5
:020000040000fa
:04028000d6030000a1
:020000040000fa
:100400008f1e21000eff2c000e018800000000004e
:10041000000020000000e000020032000001200087
:100420002002880014000700e20007000000e0003e
:1004300003003a00c0e32100010020000200370061
:100440000000200001002000810f70000100320038
:100450000f000700000020000000e0000200320052
:100460000000020000000000460c02000000000036
:100470000040da000000fe00200020000000e00044
:1004800002003200100020009001880000000600e9
:10049000a1028800800478000000eb001f003700f4
:1004a000e284440054a0b4009905ba00e2844400f8
:1004b00054a0b4009906ba00e284440054a0b400e9
:1004c0000006eb00476fde00fd07b200ae018800ba
:1004d000636ce10003003a000ad801000000eb0061
:1004e0000e003700606ce10008003a00004deb00a0
:1004f0000a05e800020039003420ec000af0a000f0
:100500008b05e900f9ff3e00040037006168e10057
:10051000010032000086eb000b00070019c7ba008b
:100520000e04e0001905ba0003003a000a00e000da
:10053000dbff3a0000000600fe07b200ae028800b2
:100540008a047800f5ff37000cd0a300e20f4d00bd
:100550001c003b0089027800354dba000a05e8000e
:10056000020039003420ec000af0a0008b05e900fd
:100570000f003200254dba000a05e80002003900dc
:100580003420ec000af0a0008b05e90008003200de
:100590000c00e0000600320015cdba000a05e800a4
:1005a000020039003420ec000af0a0008b05e900bd
:1005b0008984e80054a0b4000b00e000e2ff3a0098
:1005c000000006009902ba00055d78008b05e9007d
:1005d000f7ff3200c82ade00055d78008b05e900d0
:1005e000f3ff32000c00e000f1ff320019ddba0029
:1005f000eeff3700880d0400000000002e170400f5
:100600000000000016180400000000000000fa00be
:100610000108a9000080fa00004006003600f8003a
:10062000809fbe00829fbe00849fbe00869fbe004a
:100630000000fa000068a900000d07000080fa0021
:100640004f03be004f02be004f01be004f00be0070
:100650003600f90000400600809fbe000000fa004e
:100660000368a900708080008180800061004000e4
:10067000e080480070808800818088000080fa0057
:100680004f00be0000400600801f78000000fa0006
:1006900001a8a90000188000f08e880010188000c2
:1006a000008f880020188000108f8800301880008c
:1006b000208f880040188000308f880010c0b30061
:1006c00035f0b7000080fa004f00780000400600c7
:1006d0003600f800809fbe00829fbe00849fbe004f
:1006e000869fbe000000fa000188a90051818000a9
:1006f00040818000808f5000020032006c0c0700a7
:10070000010037002c70ef000080fa004f03be009c
:100710004f02be004f01be004f00be003600f90080
:10072000004006003600f800809fbe00829fbe0099
:10073000849fbe00869fbe000000fa000168a900e9
:1007400010118000640060000000e0000100320031
:100750002242a90010118000620060000000e00049
:10076000060032002222a900050037003011800067
:1007700000407800c10c07000100370000000000b5
:1007800010118000610060000000e000f7ff3a00f7
:100790000080fa004f03be004f02be004f01be00b2
:1007a0004f00be003600f900004006000040da00ad
:1007b0000000fe000000050014002000ab0337001d
:1007c000f4ff2f00a90337000001be003d00070021
:1007d0000470a70003f0a1006509b1001600320003
:1007e0000d0035006828e10006003500f0ff2f00fd
:1007f000f1ff27000300e00013003b000100280088
:100800000000050000004000818048008502e900ea
:10081000fcff3a0008003700f88f420002003c005d
:100820008000eb00000005008100d1000080d300b3
:100830008502e800fcff3a000300e00002003b00f4
:1008400060001000e0801800000006000001be00fb
:100850001c0007000470a70003f0a10003f8a30028
:1008600013003a006509b10010003200090035009c
:100870006928e100020035000100280000000500a1
:1008800000004000818048008502e900fcff3a003a
:1008900000000600f88f4200050035008100d100fd
:1008a0000080d3008502e800fcff3a00000006004b
:1008b0008000eb00000005004f89de008201780017
:1008c00085033700c70ade00f107b200f50fb2005a
:1008d00008003200e1cf4200020032000170a000a7
:1008e00024000500810f700001003200040805009b
:1008f00044000500810f700002003a00140005005a
:100900008502e9000000400081c04800fcff3b0078
:100910000170a0002400050007f82700078361008c
:100920000638e10004003a00f707200087836100e1
:100930008703710001003a0003f0a200889fbe0007
:100940008a9fbe008c9fbe00470ade000480a10083
:10095000c71ade000580a100070028000785600097
:1009600087856100f70f20000720e1009e0032001c
:100970000728e1009c003200010678000400e00036
:10098000b4003200f7072000878060000170a000eb
:100990000500e000c0003200f707200087816100f9
:1009a0000370a000050652000f003a000b50e10052
:1009b0000b0032000308e10002003a000200e100ef
:1009c0007e0032000204500083845800040031008d
:1009d0000001fd008101fd008402fd008a05fd008b
:1009e0006044b800210037000520e10005003d000b
:1009f0000001fd008101fd008402fd008a05fd006b
:100a0000050652007a60e100050035000170a10082
:100a10004722dd00848070008a8070006300370008
:100a20006044b800ef02660007ff2f00070666006b
:100a30000500e00006003400f08312008714dd009a
:100a40000511de00071bdd00060171008519de00bf
:100a50007060e10005003500090478008204780028
:100a6000030178008001eb00700656000b50e10096
:100a700003003a0002004000838048000400370071
:100a800060041400e0841c000200580083805800b9
:100a90000188a300060032008100d1000080d3004d
:100aa0008984d3000884d3000402e80027003700bb
:100ab0000178a30025003a000100e00003003200a5
:100ac0008186cf00698656000a0037008c0020001e
:100ad0000000e00004003a00090078008804780073
:100ae0000004eb00700252008086cf000d06460025
:100af0000c06e9007060e100060035008000780017
:100b000009007800880478000004eb0070065600a5
:100b1000700252000c00e0000c0034008c08dd0074
:100b2000f00316000703de00868070000c00dd0075
:100b3000074bde00060070008c4cdd000743de0032
:100b4000868474000c44dd000c0252006120e10038
:100b500020003500610160000700280087816400e3
:100b6000f7ff270087836400070374000300e00099
:100b70000600320082037300040032000000e80027
:100b8000e08048000188a3000e003a00f70f200023
:100b90000720e1004a003d000170a1004722dd006e
:100ba000810072008a8070000000be004f06be0007
:100bb0004f05be004f04be00000006006000b800f4
:100bc000faff37008100d1000080d3000402e80062
:100bd000eeff37000401780089017400a1010700cd
:100be0008a807000f1ff3700f701070007027800e4
:100bf0000001fd008101fd00f3010700870278007c
:100c0000850372000778a300040032000001fd0094
:100c10008101fd0006020700e4ff37008503620042
:100c20000768a300080032000b50e1000300320007
:100c3000f0ff2f00f1ff2700dcff37000001fd006f
:100c40008101fd00d9ff37000468a300d7ff3200ff
:100c5000faff3700f8ff2700888360000b003a0096
:100c60000000e00009003a008303640082837300ff
:100c7000020032000200be00ccff37000b50e10042
:100c8000ceff3a000200be00c8ff3700140020006b
:100c9000810064003eff3700f8ff27008883610071
:100ca00004003a000200e00002003a008c007800e4
:100cb000beff3700150020008301640039ff3700b4
:100cc00001f827000000200081007500b7ff370001
:100cd000889fbe008a9fbe008c9fbe001b00200024
:100ce0000202be00058668000600280006066600af
:100cf0004709de00f20fb200820032000243e80032
:100d000080003200c729de00f30fb2007d00320000
:100d10000343e8007b003200f107b2000170a0003d
:100d2000f507b2000570a000c708dd004903de002a
:100d3000868070004700dd00c72add004923de0001
:100d4000868272004722dd00030551000403500033
:100d50008583580003003100000040008180480076
:100d60000a05e9008c1f78008a9fbe00040050002d
:100d7000858058000402420085824a00000040003d
:100d8000818048000005eb000004be006033b8001d
:100d90000406be000d48e1005600310011000900b4
:100da0004dccd8000c01b8000d02b8008481410080
:100db00060824a008283530003045c0084845c00e8
:100dc00060055d000a00e00025003a00800578001b
:100dd0000d40e100490031008800780007007800ec
:100de000110009004d88d8000c01b8000d02b800b0
:100df0008481410060824a006003110083835b00ac
:100e000004045c00e0845c000900e00021003a007a
:100e10004f01be000300e0002b003200e301600040
:100e2000070673008c8171000100320064007000bd
:100e30004200de004e5edd000c007000c258de0095
:100e400001e0a00083010700cf01780081807100dc
:100e50004f06be004f05be004f04be000000060056
:100e60008c8343000d044c00e0844c0060054d0071
:100e70000000e9000a00e000d4ff32008c83430048
:100e80000d044c00e0844c0060054d000000e900ba
:100e9000ceff37000c0343008d834b0060044c00f1
:100ea000e0844c000000e9000900e000d8ff3200b7
:100eb0000c0343008d834b0060044c00e0844c0025
:100ec0000000e900d2ff37004200de004e5edd0088
:100ed0000c007000c258de0001e0a000cf017800d5
:100ee0000300e000daff320060001000e08018002c
:100ef000d7ff3700f0ff2f00aaff3700f0ff2f00c9
:100f0000b9ff37000404be002f01070087067800f0
:100f10000004fd008104fd002b010700078366002b
:100f20000678a300030032000960a7000800be0095
:100f30002c0037000d78a300020032000800be002c
:100f4000280037000778a30026003a0001f0a1002e
:100f500009f0a1000668a30003003200f1ff27009a
:100f6000f0ff2f00baff37000d68a3000300320026
:100f70000800be008c807000b5ff37000768a30032
:100f800007003a000648a30003003200f1ff2700e3
:100f9000f0ff2f00aeff37000d48a3000300320022
:100fa0006000b8008c807000a9ff37000748a300dc
:100fb0000400320001f82700000020008c8070003f
:100fc000a3ff3700760107000004fd008104fd0047
:100fd00002057800720107000802be008a0178004d
:100fe00059ff37000160a00012022000b281880082
:100ff00097ff37000100e000120032000500e0001a
:1010000010003200889fbe008a9fbe008c9fbe00e9
:101010000006eb0001f8a30003003200600010009e
:10102000e08018000cf0a00005f8a30003003200d7
:1010300060021200e0821a000cf0a2008005eb00b2
:1010400041ff37006000b80002000500038368001c
:101050000700280007036300470ade000480a100a0
:10106000c71ade000580a100f70f20000720e1006d
:10107000420032000728e10040003200889fbe0095
:101080008a9fbe008c1f7800f107b200f307b20000
:101090000400e000640032000170a0000500e000e0
:1010a000680032000370a00085054200eb07b10024
:1010b0000204b8000302b8008484440060854a003a
:1010c000020ab800848444000a854a00030ab80072
:1010d00004054500040033000804d0008984d200d0
:1010e0000a85d2008b05e9006158e1003d0035001a
:1010f00002102000090161000308200089816100bd
:10110000f70720008783640008867300c84cde0060
:10111000c853dd00878474004855de000300e000fa
:101120000600320082037600040032008904e800e1
:1011300060054d000a88a3000c003a00f70f20005c
:101140000758e10044003d000a70a100c75ddd00c2
:101150000a8575008a007300090078004f06780040
:101160004f05be004f04be00000006000a05d10076
:101170008984d3008b05e800f0ff3700881f7800d2
:101180000604780090000700070278000001fd00c7
:101190008101fd008c000700870278008503720042
:1011a0000778a300050032000001fd008101fd0069
:1011b0009f0007004f0478000000060085037200be
:1011c0000748a30003003200f0ff2f00f1ff2700c3
:1011d000f8ff37000000200001f827008880700029
:1011e000f4ff3700880178004848dd0080817100f5
:1011f0004848de00c850dd0001007000c850de0025
:10120000060478000b017800160007008880700043
:10121000d2ff37000500e000050032001700200073
:101220003a0007009dff370081037000f9ff3a0084
:10123000860078004f0678004f05be004f04be00c0
:101240000000050083037100f9ff32002700200031
:101250002e00070094ff370001f8270086807000f9
:10126000f4ff37000100e0002600320061011100a8
:101270007810e10023003c006022b8007010e1000b
:101280000400350080027800010078008000eb0047
:10129000700151000200e0000900340070031100e9
:1012a000062add00822ade008603dd0087827200c6
:1012b0000200de00860bdd00070070008208de0001
:1012c00084817100f4ff2700048262008481710030
:1012d00004002800848262006102600005f0a6001c
:1012e0000000060004827100070032000000e800e0
:1012f000e0804800000006000002be006000b80068
:10130000efff37006000b80000000600889fbe00b5
:101310000004eb006138e10016003a000100e00033
:1013200008003a00c800de004800dd008800200008
:101330000100e00003003a00c800de004800dd00c4
:10134000680444008184cf00e9845400060034001e
:101350008908dd00f08314008703de0087807000b9
:101360000900dd0009044400610214004f04be00be
:10137000000006000300e00008003a00c811de008b
:101380004811dd00880020000300e00003003a005f
:10139000c811de004811dd00680444008384cf00da
:1013a000e9845400060034008919dd00f08314003c
:1013b0008713de00878171000911dd0009044400f4
:1013c000e1021400e9ff37002700200001f0a70028
:1013d00017002000470bde00f60fb20004003200b9
:1013e0000643e8000a0032004702b300000006008e
:1013f00001037800f607b2000603700002003a000d
:101400000703b300000006008702b30000000600d7
:1014100001037800f607b2000603700002003200f4
:101420000770a000000006000760a0000000060092
:101430000478a300040032000578a3000300320002
:101440000168a30001003a000200be000160a00094
:101450000000060081017000270032008002eb00ce
:1014600001f8a3000300320060001000e0801800c3
:1014700015002000f4072000020242002000340082
:10148000f7032000870360000604200000036300c8
:1014900002082000000161004700de00c909dd00ec
:1014a00000807100c708de000600e000080032007e
:1014b00087037100060032001000b0000180b00008
:1014c0000188a30002003200c108de000402e80027
:1014d000f107b200f30f20000320e10003003d00fc
:1014e0004722dd00810072002900370001f8270043
:1014f0000000eb00260037006000b8000000060086
:10150000680212007f20e100020034006000b80091
:101510001f0037006011b8007020e10004003500a2
:1015200080017800010078008000eb00700252001a
:101530000400e00009003400f00312000719dd0088
:101540008419de000703dd00868171000400de00df
:10155000070bdd00060070008408de00f7ff27009f
:101560008383630087037100060028000303630080
:10157000070032000700e00003003a00610160004c
:1015800002817300020032001000b0000180b00040
:101590000500a6000000060001f0a0000000060003
:1015a0004f0ade004709de00f107b200f20fb20079
:1015b0000b003200f207b1000170a000c708dd0087
:1015c000c901de00838070004700dd000400a60032
:1015d0000000060060001000e08018000000060017
:1015e000810f700001003a00000006008182cf00e8
:1015f0000500e00010003e008082cf00ee82420035
:101600007028e1000400390007003e0080007800e7
:101610000000eb000e003700708312008600de0031
:101620000500dd000a003700708352008600dd00ef
:101630000000eb0006003700e28252008508dd0062
:10164000708312000603de00868070000500dd0056
:101650007507b0000501ea000400a60000000600be
:1016600060001000e080180000000600889fbe00a7
:101670008a9fbe00841f78007c0007004f0078001e
:1016800011003300f0ff2f00838f6c0006003b0039
:10169000040565000a00a7000800370009f0a6004d
:1016a0001000200008003700820f5400838f5c0078
:1016b000030039001000200001003e00000020005f
:1016c00009f0a7000000ea004f05be004f04be006d
:1016d0000000e00000000600881f78000304780086
:1016e0000300e00007003d0060001000e0801800eb
:1016f00060011900e081190002003b0001f02d009b
:10170000030037000400070008f0a70001f0a00064
:101710004f04780000000600889fbe008a9fbe002c
:101720000082700004027100048271002600320001
:101730000004be000200be006011b8006b0920006a
:10174000950220000182cf000a0039000541b10056
:101750000082cf00070039000541b1000982cf00a7
:10176000040039000541b1000882cf0001003900b2
:101770000541b10005425200120032000a003b0050
:1017800082817100610164008100d1000080d3007a
:101790008984d3000884d3008b05e8000442e80064
:1017a000f7ff3a00070037000804440089844c0022
:1017b00000004800818048008b05e9000442e900f0
:1017c000f9ff3a00030007004f05be004f04be00ba
:1017d0000000060081002000618055000b003d00e4
:1017e0000b00200061fe2f000100e1001d0034000d
:1017f00082817100610164008904d1000884d300f2
:101800000000e800faff3a00710020006100640067
:10181000030070000200600009003200610444000f
:10182000e0844c000988a500050032008b05e80023
:101830006808e10002003a008904d1000884d3005e
:10184000f20f20000258e10005003d00c75ddd00f9
:10185000f907b200898075000800780000000600d2
:101860000bf827008b007800000005000004be0084
:1018700014fc07000003be000405be000200be0009
:0c18800010fc0700844f750000000600fb
:020000040000fa
:10188c000400fa0055090700270907003f05070067
:10189c0057050700620507002b08070054060700d0
:1018ac00b80807000000eb00000f780007003700b5
:1018bc00820807008e80e800804878000e80e800df
:1018cc0011002000b50707001e0fe800950807005f
:1018dc009e0f5000f6ff3c00007122006a090700c1
:1018ec00f0ff37000000fa0008d0bf000080fb00ba
:1018fc00cf80de00f200200003002000820f500099
:10190c00838f580079003e00000601000f0037005d
:10191c0018003700210037002b0037002d0037004e
:10192c0037003700390037004300370045003700d7
:10193c004f003700510037005b0037006b00370059
:10194c006a0037005b003700650037000e30ef008f
:10195c001030ef000041eb006000b800eb06070010
:10196c0012c0b3006000b800e806070010c0b30056
:10197c0008f0b7007280800083808000803e2000d9
:10198c0001002000800f5100818f59005a00360051
:10199c0020c0b30008f0b700580037000081800069
:1019ac00118180000041eb00d806070020818000e7
:1019bc003181800012c0b300d406070030c0b300e0
:1019cc0008f0b7004d00370080d82000000001005f
:1019dc004a00370000818000118180000041eb003b
:1019ec00ca060700208180003181800012c0b3003c
:1019fc00c606070050c0b30008f0b7003f00370020
:101a0c0080d82000000001003c00370000818000dd
:101a1c00118180000041eb00bc0607002081800092
:101a2c003181800012c0b300b806070070c0b3004b
:101a3c0008f0b7003100370080d82000000001000a
:101a4c002e00370000818000118180000041eb00e6
:101a5c00ae060700208180003181800012c0b300e7
:101a6c00aa06070090c0b30008f0b70023003700a7
:101a7c0080d8200000000100200037000081800089
:101a8c00118180000041eb00a0060700208180003e
:101a9c003181800012c0b3009c060700b0c0b300b7
:101aac0008f0b7001500370080d8200000000100b6
:101abc001200370000818000118180000041eb0092
:101acc0092060700208180003181800012c0b30093
:101adc008e060700f0c0b30008f0b700070037000f
:101aec0080d8200000000100040037000870ef00cf
:101afc000000000001003700000000000080fa0028
:101b0c00000006000200fa00881f78000040eb007d
:101b1c00004f7800508e8000618e800018c0b3009a
:101b2c0002002000031a240020fb07000000e00044
:101b3c00010035000044eb000804e0001600320000
:101b4c00708e8000818e800018c0b30002002000cf
:101b5c00031f240017fb07000000e00001003d00fc
:101b6c000044eb000804e0000b003200908e800073
:101b7c00a18e800018c0b30002002000031a2400bc
:101b8c000afb07000000e000010035000044eb00f8
:101b9c000804e00021003a00b08e8000c18e800065
:101bac0018c0b30002002000031a2400fffa07003b
:101bbc000000e000010035000044eb000804e000e8
:101bcc0019003200708e8000818e800018c0b30026
:101bdc0002002000031f2400f6fa07000000e000ba
:101bec0001003d000044eb000804e0000e00320050
:101bfc00d08e8000e18e800018c0b300020020005f
:101c0c00031a2400e9fa07000000e0000100350087
:101c1c000044eb000804e0000300320030c0b300c5
:101c2c00004f7800bd013700508e8000618e80001f
:101c3c0018c0b30002002000831c2400dbfa07004c
:101c4c000000e000010035000044eb000804e00057
:101c5c002f003200708e8000818e800018c0b3007f
:101c6c0002002000031f2400d2fa07000000e0004d
:101c7c0001003d000044eb000804e00024003200a9
:101c8c00908e8000a18e800018c0b300020020004e
:101c9c00831c2400c5fa07000000e0000100350099
:101cac000044eb000804e00019003200b08e800004
:101cbc00c18e800018c0b30002002000031a24005b
:101ccc00bafa07000000e000010035000044eb0008
:101cdc000804e0000e003200d08e8000e18e8000ff
:101cec0018c0b30002002000031a2400affa07004a
:101cfc000000e000010035000044eb000804e000a7
:101d0c00030032000040eb00004f780083013700e5
:101d1c00708e8000818e800018c0b30002002000fd
:101d2c00031f2400a3fa07000000e00001003d009f
:101d3c000044eb000804e0001c003200b08e800070
:101d4c00c18e800018c0b30002002000831c240048
:101d5c0096fa07000000e000010035000044eb009b
:101d6c000804e00011003200d08e8000e18e80006b
:101d7c0018c0b30002002000831c24008dfa070059
:101d8c000000e00001003c000044eb000804e0000f
:101d9c0006003200508080000000e800508088006f
:101dac0040c0b300004f78005c013700708e80009b
:101dbc00818e800018c0b30002002000031f240095
:101dcc007cfa07000000e00001003d000044eb003d
:101ddc000804e0001c003200b08e8000c18e800030
:101dec0018c0b30002002000831c240071fa070005
:101dfc000000e00001003c000044eb000804e0009f
:101e0c0011003200d08e8000e18e800018c0b3002b
:101e1c0002002000831c240064fa07000000e0008c
:101e2c00010035000044eb000804e000060032001d
:101e3c00508080000000e8005080880050c0b30043
:101e4c00004f780035013700508e8000618e800085
:101e5c0018c0b30002002000831c240055fa0700b0
:101e6c000000e00001003d000044eb000804e0002d
:101e7c001c003200708e8000818e800018c0b30070
:101e8c0002002000031f24004afa07000000e000b3
:101e9c0001003d000044eb000804e000110032009a
:101eac00908e8000a18e800018c0b300020020002c
:101ebc00831c24003dfa07000000e00001003500ff
:101ecc000044eb000804e000060032005080800063
:101edc000000e8005080880010c0b300004f78006c
:101eec000e013700508e8000618e800018c0b30048
:101efc0002002000831c24002cfa07000000e000e4
:101f0c00010035000044eb000804e0001c00320026
:101f1c00708e8000818e800018c0b30002002000fb
:101f2c00031f240023fa07000000e00001003d001d
:101f3c000044eb000804e00011003200908e800099
:101f4c00a18e800018c0b30002002000831c240066
:101f5c0018fa07000000e00001003d000044eb000f
:101f6c000804e00006003200508080000000e80009
:101f7c005080880020c0b300004f7800e700370085
:101f8c00508e8000618e800018c0b30002002000cb
:101f9c00831c240005fa07000000e0000100350056
:101fac000044eb000804e0001c003200708e80003e
:101fbc00818e800018c0b30002002000031f240093
:101fcc00faf907000000e000010035000044eb00c6
:101fdc000804e00011003200b48e8000c58e800031
:101fec00d08e8000e18e800018c0b3000001be00ce
:101ffc000400be00edf907000000e0000100350010
:10200c000044eb000804e000040032000a30ef004a
:10201c0070c0b300004f7800c0003700908e800075
:10202c00a18e800018c0b30002002000831c240085
:10203c00def907000000e000010035000044eb0071
:10204c000804e0001c003200708e8000818e80003d
:10205c0018c0b30002002000031f2400d3f90700ae
:10206c000000e000010035000044eb000804e00033
:10207c0011003200b48e8000c58e8000d08e80009e
:10208c00e18e800018c0b3000001be000400be0049
:10209c00c8f907000000e00001003c000044eb0020
:1020ac000804e000040032000a30ef0080c0b300e6
:1020bc00004f780099003700708e8000818e800070
:1020cc0018c0b30002002000031f2400b9f9070058
:1020dc000000e00001003d000044eb000804e000bb
:1020ec001a003200b08e8000c18e800018c0b30080
:1020fc0002002000031a2400aef907000000e000e3
:10210c0001003d000044eb000804e0000f00320029
:10211c00d08e8000e18e800018c0b3000200200039
:10212c00031a2400a3f907000000e00001003d00a1
:10213c000044eb000804e000040032000a30ef0019
:10214c000040eb00004f780074003700508e800088
:10215c00618e800018c0b30002002000031f240011
:10216c0092f907000000e000010035000044eb008c
:10217c000804e0001c003200708e8000818e80000c
:10218c0018c0b30002002000031f240089f90700c7
:10219c000000e00001003c000044eb000804e000fb
:1021ac0011003200548e8000658e8000908e80006d
:1021bc00a18e800018c0b3000001be000400be0058
:1021cc007af907000000e000010035000044eb0044
:1021dc000804e000040032000a30ef0020c0b30015
:1021ec00004f78004d003700708e8000818e80008b
:1021fc0018c0b30002002000031f24006df9070073
:10220c000000e00001003c000044eb000804e0008a
:10221c000f003200908e8000a18e800018c0b30099
:10222c0002002000031f240060f907000000e000fa
:10223c00010035000044eb000804e000040032000b
:10224c000a30ef0010c0b300004f780033003700a5
:10225c00708e8000818e800018c0b30002002000b8
:10226c00031f240051f907000000e00001003500b5
:10227c000044eb000804e000040032000a30ef00d8
:10228c0030c0b300004f780024003700508e80001f
:10229c00618e800018c0b30002002000831c240053
:1022ac0044f907000000e00001003c000044eb0092
:1022bc000804e00019003200708e8000818e8000ce
:1022cc0018c0b30002002000831c240039f9070059
:1022dc000000e00001003d000044eb000804e000b9
:1022ec000e003200908e8000a18e800018c0b300ca
:1022fc0002002000831c24002ef907000000e000df
:10230c0001003d000044eb000804e0000300320033
:10231c000a30ef000040eb00004f78005180800045
:10232c00803e2000808f500021003400548e8000ad
:10233c00658e8000908e8000a18e800018c0b30046
:10234c000001be000400be001af907000000e00006
:10235c0001003c000044eb000804e00004003200e3
:10236c0080c0b300004f78000a30ef001000370037
:10237c00548e8000658e8000908e8000a18e80002f
:10238c0018c0b3000001be000400be0007f907002e
:10239c000000e000010035000044eb000804e00000
:1023ac000300320070c0b300004f78000a30ef0019
:1023bc001e4078000004e0001f003a0020c0b3006b
:1023cc0009f0b700708e8000818e800018c0b300b9
:1023dc000200200003222400f6f807000000e000b1
:1023ec0001003c000044eb000804e000090032004e
:1023fc0000002000811c24000081880011818800cd
:10240c0000002000811c240020818800318188007c
:10241c006a00370000002000011a240000818800a7
:10242c001181880000002000011a240020818800fe
:10243c0031818800610037001e407800e24f500067
:10244c000b003a0040c0b30009f0b70000002000b8
:10245c0001122400008188001181880000002000f6
:10246c00010a240020818800318188005300370044
:10247c001e407800e14f50000b003a0060c0b300e2
:10248c0009f0b70000002000010a24000081880038
:10249c001181880000002000011224002081880096
:1024ac0031818800450037001e407800e34f500012
:1024bc000b003a0080c0b30009f0b7000000200008
:1024cc000117240000818800118188000000200081
:1024dc0001172c00208188003181880037003700db
:1024ec001e407800e54f50000b003a0060c0b3006e
:1024fc0009f0b70000002000010a240000818800c8
:10250c001181880000002000011724002081880020
:10251c0031818800290037001e407800e44f5000bc
:10252c000b003a0040c0b30009f0b70000002000d7
:10253c000117240000818800118188000000200010
:10254c00010a240020818800318188001b0037009b
:10255c001e407800e74f50000b003a0080c0b300db
:10256c0009f0b7000000200001172400008188004a
:10257c00118188000000200001172c0020818800a8
:10258c00318188000d0037001e407800e84f500064
:10259c000a003a00a0c0b30009f0b7000000200008
:1025ac0001172c0000818800118188000000200098
:1025bc0001172400208188003181880009d0bf00d8
:1025cc008080fb0008d0bf000080fb000000e90009
:1025dc00808f50000200320009d0bf0008f0b70015
:1025ec004f0478000080fa00000006000a00fa0090
:1025fc00e401470080097800660047000108780074
:10260c0068004700020878000000eb00000f78001b
:10261c00e00f20001e0f68006400470010007800d7
:10262c004880de001e0f6800640047001000780030
:10263c001e0f680066004700100078004880de001e
:10264c001e0f680066004700100078001e0f68001f
:10265c008000eb000e80e800010878000d003700c8
:10266c000e80e800900078006800470010007800a9
:10267c0001004000104078000080fb001e0f680035
:10268c000e80e800100078008000e8000e80e80062
:10269c00010878000e80e800900078006600470082
:1026ac0010007800808f5000edff35001e00780080
:1026bc00004078000080fa00000006000c00fa00d0
:1026cc00889fbe008a9fbe00e60147008009780003
:1026dc0068004700010878006a004700020878008b
:1026ec008f0478000f007800000578006800470020
:1026fc0010007800660440008800e9000e80e800b5
:10270c0001087800080078000000e8000000e800ec
:10271c000000d100800040000f0078008187470046
:10272c000000e8000000d10000004000e400470079
:10273c00800878006400470090007800e0cfb30078
:10274c008048780066004700100078004880de0062
:10275c008040780064004700100078000000e8001a
:10276c00014878006600470010007800804078002f
:10277c0064004700100078000080e80001487800f1
:10278c0068004700100078004880de008040780028
:10279c006400470010007800630040000148780096
:1027ac006800470010007800804078006400470003
:1027bc001000780064004000014878000000eb0035
:1027cc00000f78000000eb00000f78000c003700c1
:1027dc009e007800658040001e017800ea004700ea
:1027ec00910078008280400091407800640147009d
:1027fc001201780000004100014878001e0fe8002b
:10280c0068004700100078009e007800808f500010
:10281c00efff35009e007800e58540006a00470018
:10282c0010017800680047009000780066004700af
:10283c00100078006dff0700e4004700910078005d
:10284c008b804000804878006400470010007800be
:10285c0088007800d10307008a0778008907780080
:10286c004f05be004f04be000080fa0000000600b9
:10287c000200fa00004f7800e0808000e30f500067
:10288c0023003200e30f500007003c00e10f500022
:10289c0012003200e10f500016003c000000e00076
:1028ac000800320054003700e50f500025003200bc
:1028bc00e50f50001c003500e60f50003a003200c6
:1028cc004d0037001e407800e24f40004d003a00aa
:1028dc0010002000e08088004f0037001e80fb00b5
:1028ec004800dd00b080880020002000e0808800d7
:1028fc00490037001e80fb00b180800001004000c1
:10290c00b080880030002000e08088004200370052
:10291c001e80fb004800dd00c080880040002000c5
:10292c00e08088003c0037001e80fb00c1808000e6
:10293c0001004000c080880050002000e08088002a
:10294c0035003700c180800000402000808f50008f
:10295c00020034001c30ef002f003700d1808000c3
:10296c00c0808000808f500028003d00d180800006
:10297c0080132100010040001e487800d0808000a8
:10298c000000e800d0808800d1808000c0808000ea
:10299c00808f50001f003a001a30ef0060002000ba
:1029ac00e08088001c003700c1808000b08080006f
:1029bc00821321000dff07001ef0b7001ed0bf00d0
:1029cc009e4f500005003a00c1808000b08080000e
:1029dc00821321001200070005003700c080800020
:1029ec008213210080007800300120000c000700c9
:1029fc001c30ef00080037001c30ef000000000016
:102a0c000500370000000000030037000000000044
:102a1c0001003700000000000080fa0000000600f2
:102a2c001400fa00889fbe008a1f7800ee01470050
:102a3c008009780070004700010878007200470098
:102a4c00020878008f0478006e0047009000780030
:102a5c0000022000808f500067003a000f007800c1
:102a6c008000780070004700100078008001e900b9
:102a7c000e81e80003097800000040000000e80027
:102a8c000000e8000000d100000140000f007800b9
:102a9c00828747000000e8000000d10000004000e1
:102aac0064014700000978000000eb00000f78007b
:102abc000d0037001e0178007200470010007800ee
:102acc0002004000104078000081fb0064004700c9
:102adc00900178001e00780000004000008041004a
:102aec00020878001e0fe800700047001000780004
:102afc001e017800800f5100eeff35006400470086
:102b0c001000780010007800e10f500010003a001f
:102b1c0064004700100078000080e8001000780086
:102b2c000000e00002003a00254ea90031003700f9
:102b3c0064004700100078000080e8001000780066
:102b4c00e10f50002b003a00254ea8002900370059
:102b5c00640047001000780010007800e20f50006d
:102b6c0010003a0064004700100078000080e80074
:102b7c00100078000000e00002003a0064eea900aa
:102b8c001c00370064004700100078000080e8004b
:102b9c0010007800e10f500016003a0064eea80017
:102bac001400370064004700100078001000780013
:102bbc00e30f50000f003a0064004700100078004b
:102bcc000080e800100078000000e00002003a00ed
:102bdc0064cea9000700370064004700100078009d
:102bec000080e80010007800e10f500001003a006e
:102bfc0064cea800810778006e0047009000780032
:102c0c0000032000808f50002f003a000f00780046
:102c1c000005780070004700100478008800e90077
:102c2c006600470001087800080078000000e80002
:102c3c000000e8000000d100800040000f00780088
:102c4c00818747000000e8000000d1000000400030
:102c5c00e800470080087800908e8000a18e8000ec
:102c6c00f7f6070000407800e80047009100780074
:102c7c0080487800708e8000818e8000f0f607000e
:102c8c008040780068004700100078000000e800e1
:102c9c0001487800508e8000618e8000e8f60700b5
:102cac008040780068004700100078000080e80041
:102cbc000148780068004700100078008800780010
:102ccc00b60207008a0778006e0047009000780073
:102cdc0000042000808f500027003a000f0078007d
:102cec000005780070004700100478008800e900a7
:102cfc006a00470001087800080078000000e8002e
:102d0c000000e8000000d100800040000f007800b7
:102d1c00818747000000e8000000d100000040005f
:102d2c00ec00470080087800308e8000418e8000d7
:102d3c00c3f6070000407800ec00470091007800d3
:102d4c0080487800f08d8000018e8000bcf6070072
:102d5c00804078006c004700100078000000e8000c
:102d6c00014878006c00470010007800880078005b
:102d7c008a0207008a077800890778004f057800d7
:102d8c004f04be000080fa00000006000000fa00ac
:102d9c0013e1a90011e1a9001061a8001021a900fc
:102dac0081088000f0fc2f00008060008008880003
:102dbc000a21ef000621ef00202620007008880071
:102dcc0000a02500600888002142800080ff2f00b1
:102ddc00008060000000a000204288000108a900cb
:102dec002108a80011e1a8000080fa0000000600ec
:102dfc000000fa0005e1a9000421a9000068a9005f
:102e0c002068a80005e1a800e27221000000200063
:102e1c00a1372400020001000080fa000000060027
:102e2c000000fa001fe1a9001e21a9000368a900f7
:102e3c002368a8001fe1a80062812100000028007f
:102e4c00b1532400020001000080fa0000000600cb
:102e5c000400fa00881f7800008fbe002108800053
:102e6c00f0fc2f0000806000200888001e01780014
:102e7c009e0190000068290081c1240091f7070091
:102e8c0018c0b30002f02f00f377240049f60700b6
:102e9c000000e00001003c000044eb000804e000ee
:102eac005400320021088000f0fc2f0000806000ec
:102ebc000040a000200888001e0178009e019000b0
:102ecc000068290081c124007ef707000200200061
:102edc00031024007bf7070018c0b30002f02f008a
:102eec00f377240033f607000000e00001003c00fb
:102efc000044eb000804e00032003200210880009e
:102f0c00f0fc2f00008060000050a000200888001a
:102f1c001e0178009e0190000068290081c12400e8
:102f2c0068f70700020020000328240065f707005b
:102f3c0018c0b30002f02f00f37724001df6070031
:102f4c000000e00001003c000044eb000804e0003d
:102f5c0010003200210880000003200001007000e6
:102f6c00200888001e0178009e019000006829004e
:102f7c0081c1240053f7070002002000033824000d
:102f8c0050f707000df607000000780010088800c5
:102f9c00200037001e0178009e0190000068290077
:102fac0081c1240047f707000200200003282400f9
:102fbc0044f7070001f607000000780010088800ad
:102fcc00140037001e0178009e0190000068290053
:102fdc0081c124003bf707000200200003102400ed
:102fec0038f70700f5f50700000078001008880096
:102ffc00080037001e0178009e019000006829002f
:10300c0081c124002ff70700ecf5070000007800c1
:10301c00100888004f0478000080fa0000000600b9
:10302c000400fa00881f7800008fbe00f1088000b1
:10303c00f0fc2f0000806000f00888001e01780072
:10304c009e0190000068290081c124001df7070033
:10305c0018c0b30002f02f00f3772400d5f5070059
:10306c000000e00001003c000044eb000804e0001c
:10307c0054003200f1088000f0fc2f00008060004a
:10308c000040a000f00888001e0178009e0190000e
:10309c000068290081c124000af707000200200003
:1030ac000310240007f7070018c0b30002f02f002c
:1030bc00f3772400bff507000000e00001003c009e
:1030cc000044eb000804e00032003200f1088000fc
:1030dc00f0fc2f00008060000050a000f008880079
:1030ec001e0178009e0190000068290081c1240017
:1030fc00f4f607000200200003282400f1f6070074
:10310c0018c0b30002f02f00f3772400a9f50700d4
:10311c000000e00001003c000044eb000804e0006b
:10312c0010003200f1088000000320000100700044
:10313c00f00888001e0178009e01900000682900ac
:10314c0081c12400dff607000200200003382400b0
:10315c00dcf6070099f507000000780010088800dd
:10316c00200037001e0178009e01900000682900a5
:10317c0081c12400d3f6070002002000032824009c
:10318c00d0f607008df507000000780010088800c5
:10319c00140037001e0178009e0190000068290081
:1031ac0081c12400c7f60700020020000310240090
:1031bc00c4f6070081f507000000780010088800ad
:1031cc00080037001e0178009e019000006829005d
:1031dc0081c12400bbf6070078f5070000007800d9
:1031ec00100888004f0478000080fa0000000600e8
:1031fc000000fa001160800080ff2f00008060004a
:10320c001060880000fa20002060880023aca80021
:10321c00238ca80011618000f03f2f00008060001b
:10322c0000a0a00010618800300020002061880000
:10323c00c3aca800c38ca80011668000f03f2f001f
:10324c000080600000a0a000106688003000200004
:10325c002066880001eca8000080fa00000006003f
:10326c000000fa00889fbe008a9fbe00348e80004a
:10327c00458e8000108e8000218e800018c0b30017
:10328c000001be000400be0048f507000000e0008d
:10329c00010035000044eb000804e0000f00320090
:1032ac00188e8000298e80003a8e80004b8e800014
:1032bc0032d0bf000080fb00cf80de007bf5070022
:1032cc000001be000a00be0099f507000801be000f
:1032dc00d5000700308e8800418e8800348e800027
:1032ec00458e8000108e8000218e800018c0b300a7
:1032fc000001be000400be002ef507000000e00037
:10330c0001003c000044eb000804e0000f00320018
:10331c00188e8000298e80003a8e80004b8e8000a3
:10332c0032d0bf000080fb00cf80de005ff50700cd
:10333c000001be000a00be0074f507000801be00c3
:10334c009f000700308e8800418e8800308e8000f0
:10335c00418e800018c0b3006011b80015f507004d
:10336c000000e00001003c000044eb000804e00019
:10337c0004003200c3eca90024cea800c3cca800e2
:10338c0003003700c3cca90024eea800c3eca800ae
:10339c00308e8000418e80007300070002002000f8
:1033ac000322240026f7070025f50700000078000b
:1033bc0030668800f48d8000058e8000d08d8000f2
:1033cc00e18d800018c0b3000001be000400be00f7
:1033dc00f6f407000000e000010035000044eb00ab
:1033ec000804e0000f003200d88d8000e98d8000c9
:1033fc00fa8d80000b8e800032d0bf000080fb0065
:10340c00cf80de0029f507000001be000a00be00d7
:10341c0047f507000801be0083000700f08d880007
:10342c00018e8800f48d8000058e8000d08d800088
:10343c00e18d800018c0b3000001be000400be0086
:10344c00dcf407000000e00001003c000044eb004d
:10345c000804e0000f003200d88d8000e98d800058
:10346c00fa8d80000b8e800032d0bf000080fb00f4
:10347c00cf80de000df507000001be000a00be0083
:10348c0022f507000801be004d000700f08d8800f2
:10349c00018e8800f08d8000018e800018c0b30072
:1034ac006011b800c3f407000000e00001003c000c
:1034bc000044eb000804e0000400320023cca90017
:1034cc0015eea80023eca8000300370023eca9009c
:1034dc0015cea80023cca800f08d8000018e8000b2
:1034ec00210007000200200003222400d4f607006c
:1034fc00d3f4070000007800306188004f05be004f
:10350c004f04be000080fa00000006000600fa001e
:10351c00008fbe006400470002487800640047003a
:10352c00104078000004e00005003a001e0178000d
:10353c009e019000128e8800238e880008003700b0
:10354c006400470010407800e14f500004003a003e
:10355c001e0178009e019000d28d8800e38d8800ba
:10356c000080fa00000006000400fa00881f7800b2
:10357c00008fbe0018c0b3006011b8001e007800a8
:10358c009e0090008bf407000000e00001003d005d
:10359c000044eb000804e000030032001e00780039
:1035ac009e009000030037001e0078009e009000e3
:1035bc0001f0a2004f0478000080fa000000060021
:1035cc000800fa00881f7800008fbe0064004700d6
:1035dc000288be0018c0b3006400470010017800d8
:1035ec00900190001e0078009e00900071f407007e
:1035fc000000e00001003c000044eb000804e00087
:10360c00030032001e0078009e009000030037007b
:10361c006400470090009000100078004f04780080
:10362c000080fa00000006000800fa00881f7800ed
:10363c00008fbe00640047000288be0018c0b300b3
:10364c006400470010017800900190001e00780083
:10365c009e00900055f407000000e00001003500ca
:10366c000044eb000804e000030032001e00780068
:10367c009e0090000300370064004700900090000b
:10368c00100078004f0478000080fa00000006005b
:10369c000c00fa00881f7800008fbe006400470001
:1036ac000288be00680047000488be0018c0b30042
:1036bc006800470010017800900190001e0078000f
:1036cc009e0090003bf407000000e00001003c006d
:1036dc000044eb000804e0000400320068004700de
:1036ec00301f7800201778000f00370018c0b30087
:1036fc006400470010017800900190001e007800d3
:10370c009e00900029f407000000e0000100350045
:10371c000044eb000804e0000300320064004700a2
:10372c00301f7800201778001e0078009e00900053
:10373c004f0478000080fa00000006000400fa0034
:10374c00008fbe00b2fd2000930424001e00780000
:10375c009e0090005bf5070002002000433324001c
:10376c0037f607000080fa00000006000400fa009b
:10377c00008fbe00b2fd2000930424001e007800d0
:10378c009e0090002ef60700020020004333240018
:10379c004cf507000080fa00000006000600fa0055
:1037ac000e81e800000978006400470001087800e9
:1037bc000040eb00004f780058000700e400470081
:1037cc0091007800810f5000130034000040eb0092
:1037dc00004f7800070037001e80fb008e80e80049
:1037ec009100780000804000104078000c00070029
:1037fc001e4fe8001e80fb00e4004700910078009b
:10380c00810f5000f4ff35002f0007000004e0008a
:10381c0001003a00230007000080fa0000000600b7
:10382c000200fa00004f78004181800080032100e3
:10383c00010040001e487800408180000000e80034
:10384c004081880041818000f0072000808f50006b
:10385c00010034002830ef000080fa000000060060
:10386c000200fa0051818000800321000100400019
:10387c0010407800004f7800508180000000e80074
:10388c005081880051818000f0072000808f50000b
:10389c00010034002a30ef001e4078000080fa004e
:1038ac00000006000200fa0010c0b3002cf0b700b4
:1038bc00ebff0700004f78001e80fb0020118800f2
:1038cc000080fa00000006000000fa002cd0bf00b7
:1038dc000080fa00000006000200fa00518180000e
:1038ec0040818000808f500004003c0041818000aa
:1038fc0050818000008f500005003700418180000e
:10390c00508180000080500001082000010f400011
:10391c001e0078000080fa00000006000400fa0087
:10392c00edff0700000f7800f00720009e0050000c
:10393c000e80e800010878000e80e8001000780086
:10394c000080fa00000006000000fa0021e3a90044
:10395c002143a80001198000f0cf2f0000806000e7
:10396c00001988002043a90001198000000e2000d6
:10397c00010070000019880011198000f0ff21006f
:10398c0000806000101988002343a80011198000e2
:10399c00f0cf2f00008060001019880011198000f2
:1039ac0030f82f00008060000040a0001019880043
:1039bc002203a9002223a90025e3a900f0c0b3002b
:1039cc0024e3b70021198000f00f2e0080806000e6
:1039dc0000f0200001007000201988003303a900ba
:1039ec001e2ea8002e0ea8002f6ea8004fcea800e9
:1039fc006f2ea8003063a80030c3a8003163a80064
:103a0c0031c3a8002e03a8004119800000fc2f0030
:103a1c00008060004019880028e3a90001a8a900d3
:103a2c0021a8a80021e3a8000080fa0000000600ed
:103a3c000000fa002023a8000080fa000000060015
:103a4c000000fa00e01d21000080fa0000000600d2
:103a5c000000fa0035d0bf000080fa00000006001c
:103a6c000000fa003570ef000080fa00000006003c
:103a7c000200fa00004f78003b0007000000e00055
:103a8c000c00340071818000800b2100010040008b
:103a9c001e487800708180000000e800708188006a
:103aac0071818000f0072000808f500001003400ed
:103abc002e30ef000080fa00000006000200fa0031
:103acc0081818000800b210001004000104f7800a4
:103adc00808180000000e800808188008181800066
:103aec00f0072000808f5000010034003030ef00d0
:103afc001e4078000080fa00000006000000fa006a
:103b0c007181800080818000808f50000200320023
:103b1c0010c0b300010037000040eb000080fa0039
:103b2c00000006000200fa00818180007081800094
:103b3c00808f500004003c007181800080818000e7
:103b4c00008f50000500370071818000808180005b
:103b5c000080500001082000010f40001e0078007a
:103b6c000080fa00000006000200fa00edff0700da
:103b7c00f1072000008f50001e0078000080fa0032
:103b8c00000006000000fa002002a90001118000cc
:103b9c0090ff2f00008060000011880020a2a90077
:103bac002062a800500520004011880023a2a90023
:103bbc0023e2a9000188a9002188a8001111800026
:103bcc00f0f32f0000806000101188000168a9003c
:103bdc002168a80021e2a8002342a8000080fa0076
:103bec00000006000600fa000e81e80000097800cb
:103bfc0064004700010878000040eb00004f78009b
:103c0c000040eb00004f780011003700000000006e
:103c1c001111800000202000008060000000e000f6
:103c2c00fbff3a000e80e80010007800104078008e
:103c3c000080fb00201188000e80e8001000780046
:103c4c008000e8000e80e800010878001e4fe800b4
:103c5c001e80fb00e400470091007800810f5000ab
:0c3c6c00eaff35000080fa0000000600ae
:020000040000fa
:103c7800001000000c000000800000002010000070
:103c880008000000820000000000c8004100000099
:103c9800c84100000c1000000a000000800000006d
:103ca800b81100002600000080000000321000005b
:103cb800020000008200000005000000de11000084
:103cc8000a0000008000000034100000020000001c
:103cd8008000000038100000800000008000000014
:103ce800281000000600000080000000b810000046
:103cf80080000000800000002e100000040000007a
:103d080080000000381100008000000080000000e2
:103d1800161000000a0000008000000036100000a5
:0c3d28000200000080000000000000000d
:020000040000fa
:103d34000000fa000e2eef001e2eef002e2eef00d4
:103d44003e2eef004e2eef005e2eef006e2eef00a3
:103d5400214ea90060cea90060eea90011cea900f1
:103d640011eea90020cea90020eea900103a80008f
:103d7400000178000260a1006004200071052000a9
:103d840023742000804978008149780082497800b2
:103d94002136800000f82f00008060008001b3000d
:103da400203688001134800000fc2f000080600061
:103db4000000a00010348800103a80000001780050
:103dc4000260a0006004200071052000237420001c
:103dd4008049780081497800824978000080fa009f
:103de400000006000000fa00f0032000303a8800ca
:103df400213a8000f0f32f0000806000203a880010
:103e0400213a800000fe2f00008060000000a00026
:103e1400203a88001200200080072000a109200019
:103e24003374200080497800814978008249780001
:103e3400103a8000000178000200a0006004200015
:103e4400710520002374200080497800814978009e
:103e54008249780000000000113a80000000270029
:103e64008080600000002100808f5000faff3a003b
:103e740000000000113a8000000220000080600071
:103e84000000e000fbff32000080fa0000000600a2
:020000040000fa
:103e9400f03fb1000180b10006003500ee030900d7
:103ea40000000000403fb1000180b100fbff3d0075
:103eb4001000b000203fb00002003500008009006f
:083ec4000000000000000600f0
:020000040000fa
:02000004000af0
:04afe000cfff00009f
:020000040000fa
:02000004000af0
:04afe400f7ff000073
:020000040000fa
:02000004000af0
:04afe8007fff0000e7
:020000040000fa
:02000004000af0
:04afec005fff000003
:020000040000fa
:02000004000af0
:04aff00038ff000026
:020000040000fa
:02000004000af0
:04aff400ffffff005c
:00000001FF
