:020000040000fa
:080000000002040000000000f2
:020000040000fa
:04000800fa030000f7
:020000040000fa
:04000c00fa030000f3
:020000040000fa
:04001000fa030000ef
:020000040000fa
:04001400fa030000eb
:020000040000fa
:04001800fa030000e7
:020000040000fa
:04001c00fa030000e3
:020000040000fa
:04002000fa030000df
:020000040000fa
:04002400fa030000db
:020000040000fa
:04002800fa030000d7
:020000040000fa
:04002c00fa030000d3
:020000040000fa
:04003000fa030000cf
:020000040000fa
:0400340002030000c3
:020000040000fa
:04003800fa030000c7
:020000040000fa
:04003c00fa030000c3
:020000040000fa
:04004000fa030000bf
:020000040000fa
:04004400fa030000bb
:020000040000fa
:04004800fa020000b8
:020000040000fa
:04004c00fa030000b3
:020000040000fa
:04005000fa030000af
:020000040000fa
:04005400b6030000ef
:020000040000fa
:040058008c03000015
:020000040000fa
:04005c006803000035
:020000040000fa
:04006000fa0300009f
:020000040000fa
:04006400fa0300009b
:020000040000fa
:04006800fa03000097
:020000040000fa
:04006c00fa03000093
:020000040000fa
:04007000fa0300008f
:020000040000fa
:04007400fa0300008b
:020000040000fa
:04007800fa03000087
:020000040000fa
:04007c00fa03000083
:020000040000fa
:04008000fa0300007f
:020000040000fa
:04008400fa0300007b
:020000040000fa
:04008800fa03000077
:020000040000fa
:04008c00fa03000073
:020000040000fa
:04009000fa0300006f
:020000040000fa
:040094005003000015
:020000040000fa
:04009800fa03000067
:020000040000fa
:04009c00fa03000063
:020000040000fa
:0400a000fa0300005f
:020000040000fa
:0400a400fa0300005b
:020000040000fa
:0400a800fa03000057
:020000040000fa
:0400ac00fa03000053
:020000040000fa
:0400b000fa0300004f
:020000040000fa
:0400b400fa0300004b
:020000040000fa
:0400b800fa03000047
:020000040000fa
:0400bc00fa03000043
:020000040000fa
:0400c000fa0300003f
:020000040000fa
:0400c400fa0300003b
:020000040000fa
:0400c800fa03000037
:020000040000fa
:0400cc00fa03000033
:020000040000fa
:0400d000fa0300002f
:020000040000fa
:0400d400fa0300002b
:020000040000fa
:0400d800fa03000027
:020000040000fa
:0400dc00fa03000023
:020000040000fa
:0400e000fa0300001f
:020000040000fa
:0400e400fa0300001b
:020000040000fa
:0400e800fa03000017
:020000040000fa
:0400ec00fa03000013
:020000040000fa
:0400f000fa0300000f
:020000040000fa
:0400f400fa0300000b
:020000040000fa
:0400f800fa03000007
:020000040000fa
:0400fc00fa03000003
:020000040000fa
:04010000fa030000fe
:020000040000fa
:04010400fa030000fa
:020000040000fa
:04010800fa030000f6
:020000040000fa
:04010c00fa030000f2
:020000040000fa
:04011000fa030000ee
:020000040000fa
:04011400fa030000ea
:020000040000fa
:04011800fa030000e6
:020000040000fa
:04011c00fa030000e2
:020000040000fa
:04012000fa030000de
:020000040000fa
:04012400fa030000da
:020000040000fa
:04012800fa030000d6
:020000040000fa
:04012c00fa030000d2
:020000040000fa
:04013000fa030000ce
:020000040000fa
:04013400fa030000ca
:020000040000fa
:04013800fa030000c6
:020000040000fa
:04013c00fa030000c2
:020000040000fa
:04014000fa030000be
:020000040000fa
:04014400fa030000ba
:020000040000fa
:04014800fa030000b6
:020000040000fa
:04014c00fa030000b2
:020000040000fa
:04015000fa030000ae
:020000040000fa
:04015400fa030000aa
:020000040000fa
:04015800fa030000a6
:020000040000fa
:04015c00fa030000a2
:020000040000fa
:04016000fa0300009e
:020000040000fa
:04016400fa0300009a
:020000040000fa
:04016800fa03000096
:020000040000fa
:04016c00fa03000092
:020000040000fa
:04017000fa0300008e
:020000040000fa
:04017400fa0300008a
:020000040000fa
:04017800fa03000086
:020000040000fa
:04017c00fa03000082
:020000040000fa
:04018000fa0300007e
:020000040000fa
:04018400fa0300007a
:020000040000fa
:04018800fa03000076
:020000040000fa
:04018c00fa03000072
:020000040000fa
:04019000fa0300006e
:020000040000fa
:04019400fa0300006a
:020000040000fa
:04019800fa03000066
:020000040000fa
:04019c00fa03000062
:020000040000fa
:0401a000fa0300005e
:020000040000fa
:0401a400fa0300005a
:020000040000fa
:0401a800fa03000056
:020000040000fa
:0401ac00fa03000052
:020000040000fa
:0401b000fa0300004e
:020000040000fa
:0401b400fa0300004a
:020000040000fa
:0401b800fa03000046
:020000040000fa
:0401bc00fa03000042
:020000040000fa
:0401c000fa0300003e
:020000040000fa
:0401c400fa0300003a
:020000040000fa
:0401c800fa03000036
:020000040000fa
:0401cc00fa03000032
:020000040000fa
:0401d000fa0300002e
:020000040000fa
:0401d400fa0300002a
:020000040000fa
:0401d800fa03000026
:020000040000fa
:0401dc00fa03000022
:020000040000fa
:0401e000fa0300001e
:020000040000fa
:0401e400fa0300001a
:020000040000fa
:0401e800fa03000016
:020000040000fa
:0401ec00fa03000012
:020000040000fa
:0401f000fa0300000e
:020000040000fa
:0401f400fa0300000a
:020000040000fa
:0401f800fa03000006
:020000040000fa
:0401fc00fa03000002
:020000040000fa
:04020000fa030000fd
:020000040000fa
:04020400fa030000f9
:020000040000fa
:04020800fa030000f5
:020000040000fa
:04020c00fa030000f1
:020000040000fa
:04021000fa030000ed
:020000040000fa
:04021400fa030000e9
:020000040000fa
:04021800fa030000e5
:020000040000fa
:04021c00fa030000e1
:020000040000fa
:04022000fa030000dd
:020000040000fa
:04022400fa030000d9
:020000040000fa
:04022800fa030000d5
:020000040000fa
:04022c00fa030000d1
:020000040000fa
:04023000fa030000cd
:020000040000fa
:04023400fa030000c9
:020000040000fa
:04023800fa030000c5
:020000040000fa
:04023c00fa030000c1
:020000040000fa
:04024000fa030000bd
:020000040000fa
:04024400fa030000b9
:020000040000fa
:04024800fa030000b5
:020000040000fa
:04024c00fa030000b1
:020000040000fa
:04025000fa030000ad
:020000040000fa
:04025400fa030000a9
:020000040000fa
:04025800fa030000a5
:020000040000fa
:04025c00fa030000a1
:020000040000fa
:04026000fa0300009d
:020000040000fa
:04026400fa03000099
:020000040000fa
:100400006f3821000eff2d000e0188000000000053
:10041000000020000000e000020032000001200087
:100420002002880014000700f40007000000e0002c
:1004300003003a00c06d23000100200002003700d5
:100440000000200001002000810f70000100320038
:100450000f000700000020000000e0000200320052
:1004600000000200000000007617020000000000fb
:100470000040da000000fe00200020000000e00044
:1004800002003200100020009001880000000600e9
:10049000a1028800800478000000eb001f003700f4
:1004a000e284440054a0b4009905ba00e2844400f8
:1004b00054a0b4009906ba00e284440054a0b400e9
:1004c0000006eb00476fde00fd07b200ae018800ba
:1004d000636ce10003003a000ad801000000eb0061
:1004e0000e003700606ce10008003a00004deb00a0
:1004f0000a05e800020039003420ec000af0a000f0
:100500008b05e900f9ff3e00040037006168e10057
:10051000010032000086eb000b00070019c7ba008b
:100520000e04e0001905ba0003003a000a00e000da
:10053000dbff3a0000000600fe07b200ae028800b2
:100540008a047800f5ff37000cd0a300e20f4d00bd
:100550001c003b0089027800354dba000a05e8000e
:10056000020039003420ec000af0a0008b05e900fd
:100570000f003200254dba000a05e80002003900dc
:100580003420ec000af0a0008b05e90008003200de
:100590000c00e0000600320015cdba000a05e800a4
:1005a000020039003420ec000af0a0008b05e900bd
:1005b0008984e80054a0b4000b00e000e2ff3a0098
:1005c000000006009902ba00055d78008b05e9007d
:1005d000f7ff3200c82ade00055d78008b05e900d0
:1005e000f3ff32000c00e000f1ff320019ddba0029
:1005f000eeff37000000fa000108a9000080fa00b1
:10060000004006003600f800809fbe00829fbe00ba
:10061000849fbe00869fbe000000fa000068a9000b
:10062000b71a0700500b0700f2150700c1140700a6
:10063000909080000000e00002003a00848ea80044
:100640000600370090908000e10f500003003a0050
:1006500091130700ab0e0700848ea900b0818000c3
:100660000000e800b0818800b0818000f80f5000e1
:1006700004003400bf160700b11307006b10070019
:100680003630ef000080fa004f03be004f02be007c
:100690004f01be004f00be003600f90000400600ca
:1006a000809fbe000000fa000368a900d08180008e
:1006b000e181800061004000e0804800d081880036
:1006c000e18188000080fa004f00be000040060073
:1006d000801f78000000fa0001a8a900001880001f
:1006e000909b880010188000a09b88002018800034
:1006f000b09b880030188000c09b880040188000a4
:10070000d09b880010c0b30051f0b7000080fa0001
:100710004f007800004006003600f800809fbe00c1
:10072000829fbe00849fbe00869fbe000000fa002c
:100730000188a90001828000f0818000808f500034
:100740000200320027190700010037004270ef0055
:100750000080fa004f03be004f02be004f01be00f2
:100760004f00be003600f900004006003600f800d9
:10077000809fbe00829fbe00849fbe00869fbe00f9
:100780000000fa000168a9001011800064006000f8
:100790000000e000010032002242a9001011800098
:1007a000620060000000e000060032002222a90082
:1007b000050037003011800000407800601a070003
:1007c000010037000000000010118000610060008f
:1007d0000000e000f7ff3a000080fa004f03be007f
:1007e0004f02be004f01be004f00be003600f900b0
:1007f000004006000040da000000fe000000050096
:1008000014002000af033700f4ff2f00ad033700c2
:100810000001be00410007000470a70003f0a10022
:100820006509b100160032000d0035006828e100ae
:1008300006003500f0ff2f00f1ff27000300e00065
:1008400013003b00010028000000050000004000ec
:10085000818048008502e900fcff3a00080037006b
:10086000f88f420002003c008000eb000000050011
:100870008100d1000080d3008502e800fcff3a002f
:100880000300e00002003b0060001000e080180060
:10089000000006000001be00200007000470a70051
:1008a00003f0a10003f8a30013003a006509b100aa
:1008b00010003200090035006928e100020035000f
:1008c0000100280000000500000040008180480071
:1008d0008502e900fcff3a0000000600f88f4200a4
:1008e000050035008100d1000080d3008502e800ba
:1008f000fcff3a00000006008000eb00000005004d
:100900004f89de0082017800890337006011b8004a
:1009100097033700040020006a033700c70ade008f
:10092000f107b200f50fb20008003200e1cf42003b
:10093000020032000170a00024000500810f700049
:10094000010032000408050044000500810f70001a
:1009500002003a00140005008502e9000000400092
:1009600081c04800fcff3b000170a000240005008e
:1009700007f82700078361000638e10004003a0009
:10098000f7072000878361008703710001003a00a8
:1009900003f0a200889fbe008a9fbe008c9fbe000d
:1009a000470ade000480a100c71ade000580a1000e
:1009b000070028000785600087856100f70f200089
:1009c0000720e1009e0032000728e1009c00320071
:1009d000010678000400e000b4003200f7072000b0
:1009e000878060000170a0000500e000c0003200b8
:1009f000f7072000878161000370a0000506520000
:100a00000f003a000b50e1000b0032000308e10038
:100a100002003a000200e1007e00320002045000b1
:100a200083845800040031000001fd008101fd00b5
:100a30008402fd008a05fd006044b80021003700f3
:100a40000520e10005003d000001fd008101fd00e1
:100a50008402fd008a05fd00050652007a60e1006f
:100a6000050035000170a1004722dd008480700080
:100a70008a807000630037006044b800ef026600af
:100a800007ff2f00070666000500e000060034009f
:100a9000f08312008714dd000511de00071bdd0066
:100aa000060171008519de007060e1000500350067
:100ab0000904780082047800030178008001eb00cb
:100ac000700656000b50e10003003a00020040009f
:100ad000838048000400370060041400e0841c0098
:100ae00002005800838058000188a30006003200ed
:100af0008100d1000080d3008984d3000884d30012
:100b00000402e800270037000178a30025003a001e
:100b10000100e000030032008186cf0069865600a4
:100b20000a0037008c0020000000e00004003a00ba
:100b300009007800880478000004eb00700252007d
:100b40008086cf000d0646000c06e9007060e100cb
:100b500006003500800078000900780088047800dd
:100b60000004eb0070065600700252000c00e0001a
:100b70000c0034008c08dd00f00316000703de00d3
:100b8000868070000c00dd00074bde000600700060
:100b90008c4cdd000743de00868474000c44dd00cd
:100ba0000c0252006120e10020003500610160006c
:100bb0000700280087816400f7ff2700878364000f
:100bc000070374000300e000060032008203730094
:100bd000040032000000e800e08048000188a30023
:100be0000e003a00f70f20000720e1004a003d0008
:100bf0000170a1004722dd00810072008a80700030
:100c00000000be004f06be004f05be004f04be00f0
:100c1000000006006000b800faff37008100d10034
:100c20000080d3000402e800eeff370004017800e2
:100c300089017400a10107008a807000f1ff37006c
:100c4000f7010700070278000001fd008101fd00a7
:100c5000f301070087027800850372000778a3007c
:100c6000040032000001fd008101fd0006020700c2
:100c7000e4ff3700850362000768a3000800320024
:100c80000b50e10003003200f0ff2f00f1ff2700be
:100c9000dcff37000001fd008101fd00d9ff3700b6
:100ca0000468a300d7ff3200faff3700f8ff2700df
:100cb000888360000b003a000000e00009003a0061
:100cc0008303640082837300020032000200be00ce
:100cd000ccff37000b50e100ceff3a000200be000f
:100ce000c8ff370014002000810064003eff370079
:100cf000f8ff27008883610004003a000200e0004a
:100d000002003a008c007800beff3700150020007a
:100d10008301640039ff370001f82700000020003c
:100d200081007500b7ff3700889fbe008a9fbe0014
:100d30008c9fbe001b0020000202be0005866800da
:100d400006002800060666004709de00f20fb20022
:100d5000820032000243e80080003200c729de0032
:100d6000f30fb2007d0032000343e8007b00320045
:100d7000f107b2000170a000f507b2000570a000f5
:100d8000c708dd004903de00868070004700dd00f3
:100d9000c72add004923de00868272004722dd007b
:100da00003055100040350008583580003003100ff
:100db00000004000818048000a05e9008c1f78008f
:100dc0008a9fbe0004005000858058000402420043
:100dd00085824a0000004000818048000005eb0049
:100de0000004be006033b8000406be000d48e100f8
:100df00056003100110009004dccd8000c01b8009c
:100e00000d02b8008481410060824a008283530051
:100e100003045c0084845c0060055d000a00e0005f
:100e200025003a00800578000d40e10049003100be
:100e30008800780007007800110009004d88d8006c
:100e40000c01b8000d02b8008481410060824a00a4
:100e50006003110083835b0004045c00e0845c0099
:100e60000900e00021003a004f01be000300e0004d
:100e70002b003200e3016000070673008c817100d3
:100e800001003200640070004200de004e5edd00b2
:100e90000c007000c258de0001e0a00083010700d2
:100ea000cf017800818071004f06be004f05be0063
:100eb0004f04be00000006008c8343000d044c006c
:100ec000e0844c0060054d000000e9000a00e000ed
:100ed000d4ff32008c8343000d044c00e0844c00ae
:100ee00060054d000000e900ceff37000c03430011
:100ef0008d834b0060044c00e0844c000000e9004e
:100f00000900e000d8ff32000c0343008d834b0042
:100f100060044c00e0844c000000e900d2ff370080
:100f20004200de004e5edd000c007000c258de00a4
:100f300001e0a000cf0178000300e000daff3200fa
:100f400060001000e0801800d7ff3700f0ff2f008e
:100f5000aaff3700f0ff2f00b9ff37000404be00de
:100f60002f010700870678000004fd008104fd00c2
:100f70002b010700078366000678a30003003200f8
:100f80000960a7000800be002c0037000d78a30000
:100f9000020032000800be00280037000778a300d6
:100fa00026003a0001f0a10009f0a1000668a300a4
:100fb00003003200f1ff2700f0ff2f00baff3700d7
:100fc0000d68a300030032000800be008c80700092
:100fd000b5ff37000768a30007003a000648a300e2
:100fe00003003200f1ff2700f0ff2f00aeff3700b3
:100ff0000d48a300030032006000b8008c80700030
:10100000a9ff37000748a3000400320001f82700b9
:10101000000020008c807000a3ff370076010700dd
:101020000004fd008104fd00020578007201070044
:101030000802be008a01780059ff37000160a00055
:10104000120220009282880097ff37000100e00022
:10105000120032000500e00010003200889fbe0040
:101060008a9fbe008c9fbe000006eb0001f8a30023
:101070000300320060001000e08018000cf0a000b7
:1010800005f8a3000300320060021200e0821a009b
:101090000cf0a2008005eb0041ff37006000b800b3
:1010a00002000500038368000700280007036300af
:1010b000470ade000480a100c71ade000580a100f7
:1010c000f70f20000720e100420032000728e1006e
:1010d00040003200889fbe008a9fbe008c1f7800af
:1010e000f107b200f307b2000400e0006400320030
:1010f0000170a0000500e000680032000370a0004d
:1011000085054200eb07b1000204b8000302b800f5
:101110008484440060854a00020ab8008484440044
:101120000a854a00030ab80004054500040033009c
:101130000804d0008984d2000a85d2008b05e9001a
:101140006158e1003d0035000210200009016100f6
:101150000308200089816100f7072000878364006d
:1011600008867300c84cde00c853dd008784740015
:101170004855de000300e0000600320082037600de
:10118000040032008904e80060054d000a88a300cd
:101190000c003a00f70f20000758e10044003d0022
:1011a0000a70a100c75ddd000a8575008a00730022
:1011b000090078004f0678004f05be004f04be00be
:1011c000000006000a05d1008984d3008b05e800e1
:1011d000f0ff3700881f78000604780090000700b1
:1011e000070278000001fd008101fd008c0007006e
:1011f00087027800850372000778a300050032009b
:101200000001fd008101fd009f0007004f047800f0
:1012100000000600850372000748a30003003200a7
:10122000f0ff2f00f1ff2700f8ff3700000020003b
:1012300001f8270088807000f4ff370088017800eb
:101240004848dd00808171004848de00c850dd005c
:1012500001007000c850de00060478000b01780021
:101260001600070088807000d2ff37000500e000fc
:1012700005003200170020003a0007009dff3700ec
:1012800081037000f9ff3a00860078004f0678006d
:101290004f05be004f04be0000000500830371002f
:1012a000f9ff3200270020002e00070094ff3700ce
:1012b00001f8270086807000f4ff37000100e0008d
:1012c00026003200610111007810e10023003c008b
:1012d0006022b8007010e100040035008002780040
:1012e000010078008000eb00700151000200e00076
:1012f0000900340070031100062add00822ade0096
:101300008603dd00878272000200de00860bdd00ae
:10131000070070008208de0084817100f4ff27005e
:1013200004826200848171000400280084826200cb
:101330006102600005f0a600000006000482710052
:10134000070032000000e800e080480000000600ce
:101350000002be006000b800efff37006000b80078
:1013600000000600889fbe000004eb006138e10029
:1013700016003a000100e00008003a00c800de0054
:101380004800dd00880020000100e00003003a0072
:10139000c800de004800dd00680444008184cf00fe
:1013a000e9845400060034008908dd00f08314004d
:1013b0008703de00878070000900dd000904440017
:1013c000610214004f04be00000006000300e000ac
:1013d00008003a00c811de004811dd008800200036
:1013e0000300e00003003a00c811de004811dd00f0
:1013f000680444008384cf00e9845400060034006c
:101400008919dd00f08314008713de0087817100e5
:101410000911dd0009044400e1021400e9ff37006e
:101420002700200001f0a70017002000470bde0076
:10143000f60fb200040032000643e8000a00320052
:101440004702b3000000060001037800f607b2006f
:101450000603700002003a000703b3000000060014
:101460008702b3000000060001037800f607b2000f
:1014700006037000020032000770a00000000600a2
:101480000760a000000006000478a30004003200fa
:101490000578a300030032000168a30001003a00b0
:1014a0000200be000160a000000006008101700083
:1014b000270032008002eb0001f8a3000300320095
:1014c00060001000e080180015002000f4072000e4
:1014d0000202420020003400f7032000870360006e
:1014e00006042000000363000208200000016100e0
:1014f0004700de00c909dd0000807100c708de007a
:101500000600e00008003200870371000600320088
:101510001000b0000180b0000188a300020032007a
:10152000c108de000402e800f107b200f30f20005a
:101530000320e10003003d004722dd00810072002e
:101540002900370001f827000000eb0026003700d3
:101550006000b80000000600680212007f20e10071
:10156000020034006000b8001f0037006011b800ae
:101570007020e1000400350080017800010078004f
:101580008000eb00700252000400e000090034000b
:10159000f00312000719dd008419de000703dd00e7
:1015a000868171000400de00070bdd00060070007c
:1015b0008408de00f7ff2700838363008703710040
:1015c0000600280003036300070032000700e00064
:1015d00003003a00610160000281730002003200e2
:1015e0001000b0000180b0000500a6000000060059
:1015f00001f0a000000006004f0ade004709de00ef
:10160000f107b200f20fb2000b003200f207b10096
:101610000170a000c708dd00c901de0083807000f2
:101620004700dd000400a600000006006000100076
:10163000e080180000000600810f700001003a00f1
:10164000000006008182cf000500e00010003e008f
:101650008082cf00ee8242007028e1000400390051
:1016600007003e00800078000000eb000e0037000d
:10167000708312008600de000500dd000a003700de
:10168000708352008600dd000000eb00060037008a
:10169000e28252008508dd00708312000603de003e
:1016a000868070000500dd007507b0000501ea00c6
:1016b0000400a6000000060060001000e080180092
:1016c00000000600889fbe008a9fbe00841f78002d
:1016d0007c0007004f00780011003300f0ff2f005e
:1016e000838f6c0006003b00040565000a00a7001c
:1016f0000800370009f0a60010002000080037009d
:10170000820f5400838f5c0003003900100020001a
:1017100001003e000000200009f0a7000000ea00e0
:101720004f05be004f04be000000e00000000600b0
:10173000881f7800030478000300e00007003d00e4
:1017400060001000e080180060011900e0811900bd
:1017500002003b0001f02d000300370004000700e9
:1017600008f0a70001f0a0004f0478000000060078
:10177000889fbe008a9fbe00008270000402710034
:1017800004827100260032000004be000200be0088
:101790006011b8006b092000950220000182cf0083
:1017a0000a0039000541b1000082cf00070039006e
:1017b0000541b1000982cf00040039000541b100a4
:1017c0000882cf00010039000541b10005425200f6
:1017d000120032000a003b00828171006101640046
:1017e0008100d1000080d3008984d3000884d30015
:1017f0008b05e8000442e800f7ff3a0007003700d5
:101800000804440089844c0000004800818048009e
:101810008b05e9000442e900f9ff3a0003000700e4
:101820004f05be004f04be000000060081002000ee
:10183000618055000b003d000b00200061fe2f0071
:101840000100e1001d00340082817100610164002b
:101850008904d1000884d3000000e800faff3a00b0
:10186000710020006100640003007000020060004d
:101870000900320061044400e0844c000988a5009e
:10188000050032008b05e8006808e10002003a001c
:101890008904d1000884d300f20f20000258e1002f
:1018a00005003d00c75ddd00f907b20089807500c5
:1018b00008007800000006000bf827008b00780075
:1018c000000005000004be0014fc07000003be0079
:1018d0000405be000200be0010fc0700844f750026
:1018e00000000600000006000800fa00889fbe0005
:1018f0008a9fbe008c9fbe000004be000200be0096
:10190000e2b79f00f3b79f00f6ff0700810278005f
:1019100005f0a100000278000c0020000df827005f
:101920006fb19700ffb197008c0f52008d8f5a0056
:101930000a003e000800be00eaff070081027800ae
:1019400005f0a100000278006fb19700ffb1970089
:101950008c0f52008d8f5a00030036000800be0025
:101960000cfc0700980037000203be0000002000b6
:1019700001f82300800f5300818f5b0003003a00c1
:101980000800be00980007008f0037000802be0064
:101990004e3dde000b0020006000b80062006500d4
:1019a0004f4dde000b0020000a0570008b85700093
:1019b0008500780001f0a10008007800e00f5000d9
:1019c000e08f580007003a00e20f5500e08f5d00fd
:1019d00033003200e30f5500e08f5d007b003a00da
:1019e000320037008702780005f0a1000602780077
:1019f000e00f5200e08f5a003b0032008c0f520083
:101a00008d8f5a002c003a00840f5000858f5800ab
:101a100018003a00e20f5500e08f5d000900320027
:101a2000e30f5500e08f5d0009003200e10f550023
:101a3000e08f5d005b003200b8fd200099f42300c8
:101a40006200370002002000030424000200370077
:101a50000200200003042c00b0fd200091042400ab
:101a600090fd07000200200003e823008dfd070021
:101a700055003700e20f5500e08f5d00080032008e
:101a8000e30f5500e08f5d00080032006044b800ad
:101a9000e10f5500e08f5d004c003a004400370034
:101aa000b8fd20009904240048003700b8fd20004c
:101ab00099042c00450037000600200007d02000c4
:101ac0000403430085834b0086bf9f0097bf9f00a0
:101ad000800f5300818f5b00030039008c0f500092
:101ae0008d8f580005003a000a08a3003300320029
:101af000b8fd200099fc2b00340037006033b8009b
:101b000062036500e00f5300e08f5b0008003200c5
:101b10000c0020000dd020000003460081834e0001
:101b20006000b800840f5300858f5b00040039000b
:101b30000800be007cfc07007c0107002a000700ab
:101b4000e10f5500e08f5d00050032001e003900f6
:101b5000e20f5500e08f5d000b003a0003003700f4
:101b60000004be0009f0a20018003700e2d22b00ea
:101b7000b33b230087fb07000001be00b0fd20003f
:101b80009104240005003700e2d22b00b33b230070
:101b900080fb0700b2fd20009304240074fb0700c3
:101ba00009003700b8fd200099f42b00070037002a
:101bb000080020000900280004003700b8fd2000bc
:101bc00099fc2300010037000004be000800be009d
:101bd0004f06be004f05be004f04be000080fa0055
:101be00000000600000006000c00fa00889fbe00fe
:101bf0008a9fbe008c9fbe000004be004f09de001d
:101c000003002000e2b79f00f3b79f008106780031
:101c10000df0a10000067800f0ff2f00f1c72400ae
:101c2000800f5600818f5e00100036000800be0055
:101c3000ecff07008101780003f0a10000017800ab
:101c40000000200001f82700800f5100818f59000b
:101c5000b7003e000200200003382000a0fd200055
:101c600091fc23004bfb0700a8003700f0ff2f007a
:101c7000f1ed2300800f5600818f5e0011003e00c1
:101c80000085eb00f0ff2f00f1972300800f560036
:101c9000818f5e0055003e00f0ff2f00f10720000d
:101ca000800f5600818f5e00a1003e000801be003b
:101cb0000800be00fbfc0700c0b79f00d1b79f0023
:101cc0009b0037000800be00180107000004be009a
:101cd000f0ff2f0071f92300800f5600818f5e0006
:101ce00025003e00f0ff2f00f1f22300800f560088
:101cf000818f5e0011003e000801be000800be009a
:101d000024fb07000200200003f8230018fb070053
:101d10000005be0002002000030024000800be00f1
:101d20001cfb07000001be000a00be00fefb07000e
:101d30000004be000005eb002c003700020020006c
:101d400003f823000800be0009fb07000005be00e1
:101d50000200200003f823000800be000dfb07006e
:101d60000001be000a00be00effb07000004be0039
:101d70001a0020001d003700f0ff2f00b1012400e1
:101d8000800f5600818f5e0012003e00020020008e
:101d900003fc23000800be00f5fa07000005be00a2
:101da0000200200003fc23000800be00bdfc070069
:101db0000200200003f82300f6fa07000001be002d
:101dc0000a00be00d8fb07000004be002a00200065
:101dd000060037000801be000000200001f82b00bb
:101de000d1fb07000004be003a0020000801be003d
:101df0000800be00abfc07000002be000001be00f0
:101e000084bf9f0095bf9f00a6fc07000006be0090
:101e100052c22a00c3d72300a2fc0700d2502f00d1
:101e200013e12300dbfa07000001be000c00be0036
:101e30009cfc070092aa2a00a3ea2300d5fa070017
:101e40000001be000fba97009fba97000400be00c1
:101e500094fc07000002be0072242100a3dd2b00c9
:101e60000c00be0084bf9f0095bf9f008dfc070043
:101e700082a92c00c3e42300bdfa07000001be00c4
:101e80000c00be0087fc07000001be000fba9700df
:101e90009fba9700e10f450009003a000400be0018
:101ea000bcfa07000001be000800be007dfc070070
:101eb0000001be000800be00adfa07001b0037009d
:101ec0004255dd002c3521000a0646000400be0004
:101ed000b0fa07000001be000800be0071fc070058
:101ee000223621000a0541001a0178009a0190006b
:101ef0009ffa07000801be009dfa07000001be001e
:101f00001c0078009c00900099fa07006fb19700c0
:101f1000ffb19700e00f5100e08f5900030032003d
:101f20000004be0009f0a200010037000004be005a
:101f30000800be004f06be004f05be004f04be00a5
:101f40000080fa00000006000800fa000002be004f
:101f50008501780003f0a10000017800a6fd2000b3
:101f600097f42300860f5100878f59000d003e0023
:101f7000f4ff2f00f5972300840f5100858f59003f
:101f80005a003e000200200003b8270081fa070033
:101f9000e0bf9f00f1bf9f000000200001f8230078
:101fa000600037004f0ade0005002000163d2500c6
:101fb000b7072400860f5100878f590019003e0093
:101fc00036be2c0067012400860f5100878f590010
:101fd0000a0036000400e00004003200b2fd2000d8
:101fe000930424006bfa070048003700b2fd20007c
:101ff000930424005efa0700440037000400e00068
:1020000004003200b2fd200093fc230061fa0700b7
:10201000430037000001be00b0fd200091fc23000a
:1020200019003700561d2300270e2400860f51008b
:10203000878f590016003e00f6dd2e00f70a2400b7
:10204000860f5100878f59000a0036000400e00017
:1020500004003200b2fd2000930c24004dfa07006a
:1020600022003700b2fd2000930c240040fa070044
:102070001e0037000400e0000100320001f0a20061
:1020800042be2c006309240039fa070024003700ff
:10209000f4ff2f00f5f72700840f5100858f5900ba
:1020a000030036000001be0031fa07001d003700b2
:1020b00068815700cf0207006011b800630160001b
:1020c000e10f5100e08f59000a003200e20f510089
:1020d000e08f59000b003200e00f5100e08f5900f3
:1020e0000d003a004fb89700dfb897009302070041
:1020f0000c0037004fb89700dfb8970001f0a2003e
:10210000070037004fb89700dfb897008b02070031
:1021100001f0a200030037004fb89700dfb8970026
:102120000d0307000080fa00000006000001be0059
:102130008300780001f0a100020078000000060092
:10214000000006000400fa00889fbe008a9fbe00bf
:102150008c9fbe000005be000204be00f8ff070011
:102160000006be008d00780001f0a1000c00780090
:102170000200200003f82700820f5000838f5800d0
:102180001d003e000800be0082bf9f0093bf9f005d
:10219000ebff07008102780005f0a1000002780043
:1021a0000fb997009fb99700820f5200838f5a0092
:1021b00010003e004feade00840278004f89de0006
:1021c00082017800820f5200838f5a00040032008f
:1021d000e00f5600e08f5e0006003d00060037006d
:1021e0000801be000a00be0085f907000000e000fb
:1021f000010035000a04be000800be004f06be0004
:102200004f05be004f04be000080fa00000006002b
:10221000000006000400fa00889fbe008a9fbe00ee
:102220008c9fbe000005be000204be00f8ff070040
:102230000006be008d00780001f0a1000c007800bf
:102240000200200003f82700820f5000838f5800ff
:102250001d003e000800be0082bf9f0093bf9f008c
:10226000ebff07008102780005f0a1000002780072
:102270000fb997009fb99700820f5200838f5a00c1
:1022800010003e004feade00840278004f89de0035
:1022900082017800820f5200838f5a0004003200be
:1022a000e00f5600e08f5e0007003d00050037009c
:1022b0000801be000a00be0051f907000000e0005e
:1022c00001003d000a04be000800be004f06be002b
:1022d0004f05be004f04be000080fa00000006005b
:1022e000000006000400fa00889fbe008a9fbe001e
:1022f0008c9fbe000004be000205be000206410025
:1023000083864900e00f5600e08f5e001400320023
:102310000200be0082bf9f0093bf9f00f0ff070036
:102320008102780005f0a100000278000000200082
:1023300001f827000fb997009fb99700800f52004e
:10234000818f5a0006003e000802be00474bde00a7
:10235000070020000680fb00e14f430005003a0023
:102360000800be004ffb07000001be006efa070028
:10237000090037000801440089814c008c0f51008e
:102380008d8f590006003e0074003a006011b800bd
:102390000800be0043fb07000004be006f003700ca
:1023a0000000e00013003a004949dd00c741de00ab
:1023b000830171004941dd00030037000000e9009e
:1023c0000201410083814900e00f5100e08f590074
:1023d000faff3d00e10010000401be008100e900a9
:1023e000030033000201410083814900fbff3700f5
:1023f0000400370085017800f307b2000801780077
:102400000370a000475bde00070020008600780014
:10241000f10fb20012003a00495bdd00c753de0045
:10242000870373004953dd00030037008100e90092
:102430000603430087834b00e00f5300e08f5b00ef
:10244000faff3d00618310000603e900030033003a
:102450000a0545008b854d00fbff37001000370053
:102460008b037800f707b2000a0378000605be0068
:102470000b70a0000a003700e00f5300e08f5b00f4
:1024800004003500e00f5300e08f5b00bfff320017
:102490000601be0002014100838149000000e900fd
:1024a0000a0351008b835900810f5000f2ff3c005a
:1024b000e00f5300e08f5b0003003d000900370090
:1024c0000601be0007003700e00f5300e08f5b00fd
:1024d000fbff3a00adff3700020141008381490054
:1024e0000000e900471bde0007002000e00f53005a
:1024f000e08f5b00f8ff32000000e0000a003400cb
:102500000600200007f82f000201430083814b00e2
:10251000cf80de00c700dd00000020000201700057
:102520008381700006003700610010000000e900a0
:10253000030033008301d1000281d300fbff370089
:10254000000020000100280085836000000378005f
:1025500006017100878171000204be000800be0000
:102560004f06be004f05be004f04be000080fa00bb
:10257000000006000400fa00889fbe008a9fbe008b
:102580008c9fbe000004be004708de00f00fb200c2
:1025900051092000810f500041003c000806be0098
:1025a000e00f5400e08f5c0003003d000805be0012
:1025b0000bf0a200010037000805be00d107200083
:1025c000810f50000a003c000200200003b02400ec
:1025d0000a00be00eff8070080bf9f0091bf9f0078
:1025e0006011b8000800be00aefa07002b003700eb
:1025f0000200200003b024000a00be00e5f8070036
:102600000200200003b02400d9f807000a01be0030
:10261000d7f807000004be000200200003f02300ea
:1026200079f807000000e000070034000a01be004e
:102630000800be00d7f807000200200003f82300be
:10264000cbf807000f0037000200200003f02b003a
:102650000800be006af807000000e00006003c0029
:102660000a01be000800be00caf8070002002000f0
:1026700003f82300020037000a01be000800be0074
:10268000c4f80700e00f5600e08f5e0003003d0035
:102690000004be0009f0a200010037000004be00e3
:1026a0000800be004f06be004f05be004f04be002e
:1026b0000080fa00000006000800fa00889fbe00b3
:1026c0000004be000001be008300780001f0a100fc
:1026d00008007800a4fd200095f42300840f50002a
:1026e000858f580018003e00f2ff2f00f39723005b
:1026f000820f5000838f580011003e00f2ff2f0020
:10270000f3072000820f5000838f580005003e0021
:1027100002002000033820000800be0061fa070014
:10272000040037000200200003b827000800be00a4
:1027300098f80700c0bf9f00d1bf9f00710037000d
:102740000800be00680037004f49de00030020008b
:10275000143d2500b5072400840f5000858f5800d4
:102760001f003e0034be2c0065012400840f500081
:10277000858f58000e003e000200e0000500320088
:10278000b2fd200093fc23000800be0081f8070082
:1027900059003700b2fd200093fc23000800be0062
:1027a00073f80700e50007000004be00550037007d
:1027b0000200e00005003200b2fd20009304240076
:1027c0000800be0073f8070046003700b2fd200085
:1027d000930424000800be0065f80700410037009c
:1027e000541d2300250e2400840f5000858f5800af
:1027f0001d003e00f4dd2e00f50a2400840f500079
:10280000858f58000c003e000200e00005003200f9
:1028100042be2c00630924000800be005df80700da
:10282000e0ff370042be2c00630924000800be0010
:102830004ff80700300037000200e00005003200ca
:10284000b2fd2000930c24000800be0051f80700e0
:1028500025003700b2fd2000930c24000800be00c4
:1028600043f8070020003700f2ff2f00f3f727009e
:10287000820f5000838f5800040036000801be000c
:102880000800be003af80700c7ff37006c81570008
:102890000800be00d70007006011b80063016000a7
:1028a000e10f5100e08f590009003200e20f5100a2
:1028b000e08f590009003200e00f5100e08f59000d
:1028c0000b003a002fb89700bfb8970006003700fa
:1028d0002fb89700bfb89700b2ff37002fb8970006
:1028e000bfb8970001f0a2001b010700aeff370040
:1028f0002fb89700bfb89700900007000004be00f3
:1029000009f0a2000800be004f04be000080fa00db
:1029100000000600889fbe008a9fbe008c9fbe00fc
:102920000004be000400200005f827008583600035
:1029300004037800840f5300858f5b0007003a0082
:102940000801be000800be00d6f907000001be0065
:102950000800be000ff8070010003700e00f50001d
:10296000e08f58000f003c008101780003f0a100c7
:1029700000017800e00f5100e08f59006a0032003a
:1029800010022000209c88000801be000800be0044
:10299000f7f707000001be00e3f807000004be00df
:1029a00061003700478cde00cf8cde00e00f540062
:1029b000e08f5c000f003a006044b800040037006c
:1029c000000040008180480061044400e0844c0025
:1029d00004002000050820008181620004017800c5
:1029e000e00f5100e08f5900f5ff32006104140040
:1029f000e0841c00f807b1000980b1008101780073
:102a0000f307b200000178000200be000170a000d0
:102a10000808a30002003200000040008180480046
:102a20008984d1000884d3000000400081804800e0
:102a30009401200002002000031020006055b8001f
:102a40006066b8000c0341008d834900800f53007d
:102a5000818f5b0006003c00060641008786490026
:102a600006005000878058000a0541008b85490008
:102a700000004000818048008301d1000281d30022
:102a80000402e900efff3a00e00f5000e08f580029
:102a90001b0032000226240023da20000000200060
:102aa00001f82300b2f707000200200003f823001a
:102ab00055f707000000e000110035000226240051
:102ac00023da20000000200001f82300b1f70700fe
:102ad0000200200003f823004bf707000000e0008d
:102ae0000300340062054500e0854d000400370016
:102af0006000b800610065000005450081854d005b
:102b0000c744dd00080020000000200001f0230081
:102b100008044000898448008b85d1000a85d300d1
:102b20000804450089844d000800be004f06be0021
:102b30004f05be004f04be0000000600889fbe0087
:102b40008a9fbe008c9fbe000001be0055f90700a1
:102b50000004be000001be0052f907000005be00df
:102b60000200200003f02b000800be004df9070012
:102b70000200200003f8230086f707000006be00cd
:102b8000f2a92a00a3d223000a00be0045f90700db
:102b90000001be000c00be007ef707000006be006c
:102ba0000801be000a00be003ef907000005be0095
:102bb00072a12900c37c23000800be0039f9070078
:102bc000f243200063ab230069f707000001be0059
:102bd0000a00be0033f907000001be000c00be0071
:102be0006cf707004f06be004f05be004f04be0045
:102bf000000006000800fa00889fbe008a9fbe0001
:102c00008c9fbe000005be00020478000001be00db
:102c10008300780001f0a1000a007800a2fd2000e6
:102c200093dc2400820f5000838f58001d003e006b
:102c300032982f0023f223000a00be0019f9070082
:102c40000200200003b4240052f707000200200015
:102c500003b4240046f707000006be00ecf60700a8
:102c600080047800a2fd200093fc23000c00be002d
:102c70000cf907000001be000a00be003cf7070087
:102c80000005be00325a2800832823000c00be0035
:102c900004f907000001be000a00be0034f7070077
:102ca00026003700f2ff2f00f3f72700820f5000b5
:102cb000838f5800060036000a01be000a00be00dd
:102cc0002bf70700008cbe008004eb001c003700cf
:102cd0000a00be00500007000005be0032982f0019
:102ce00023f22300eff807000200200003f0230086
:102cf00028f70700540007000203be000002be00d0
:102d0000e4b79f00f5b79f0086bf9f0097bf9f0065
:102d100087fa070032982f0023f2230002f80700f9
:102d20000001be000a00be0011f707006000b800f5
:102d30002004980031049800efb49700008cbe0086
:102d4000090078004f06be004f05be004f04be00cc
:102d50000080fa0000000600889fbe008a9fbe0027
:102d60008c9fbe000005be000001be00cdf807002c
:102d70000004be000a01be00caf807000006be003b
:102d80004288280083c023000800be00c5f8070061
:102d9000b2aa2a00a3e22300f5f607000001be0054
:102da0000c00be00bff807000001be000a00be0014
:102db000f8f607000005be000801be000800be00ce
:102dc000b8f807000001be000c00be00b5f807000f
:102dd0000006be00c2c32600636323000800be00d5
:102de000b0f80700f27c200003952300e0f607000e
:102df0000001be000c00be00aaf807000001be00e2
:102e00000a00be00e3f607004f06be004f05be00f5
:102e10004f04be00000006006022b8006033b80016
:102e20000002be00f0ff2f00f1ff2f00f2ff2f0085
:102e3000f3ff27000000620081806200020163004e
:102e400083816300000006000003be00b3f60700a4
:102e50006011b8000470a70007f0a1006509b10077
:102e60001b00320012003500860220000628e10017
:102e700008003500f3ff2700f2ff2f006110b900b2
:102e80000700e00018003b00030028006000b800c5
:102e90000200050000004000818048000201490056
:102ea000838149008502e900faff3a0008003700f3
:102eb000f88f420002003c008000eb00000005009b
:102ec0008100d1000080d3008502e800fcff3a00b9
:102ed0000700e00004003b0060001000e0801800e4
:0c2ee00060011900e081190000000600ec
:020000040000fa
:102eec000a00fa00881f7800fd0f0700610f070029
:102efc00d40c0700ec0c0700f60c0700431007007d
:102f0c00580a0700d0100700a50b0700ad0b0700ef
:102f1c00510407007f100700e14f500000013a00f8
:102f2c008010070077100700100798001e00900013
:102f3c000080e800100078008000eb0070f60700bd
:102f4c00323323003305240053f80700020020001d
:102f5c000358240071f70700d2cc2c00c3042400c2
:102f6c004df8070020079800310798002e019000bb
:102f7c00be019000000020008120240067f70700ac
:102f8c0002002000030a240076f60700308b88002c
:102f9c00418b8800308b8000418b80003af6070013
:102fac0080407800c0372100014878001e00900056
:102fbc0064004000100078008000eb0050f6070021
:102fcc00323323003305240033f8070002002000bd
:102fdc000358240051f70700d2cc2c00c304240062
:102fec002df8070020079800310798002e0190005b
:102ffc00be019000000020008120240047f707004c
:10300c0002002000030a240056f60700508b8800ab
:10301c00618b8800508b8000618b80001af6070052
:10302c0080407800e0372100014878001e009000b5
:10303c0068004000100078008000eb0030f60700bc
:10304c00323323003305240013f80700020020005c
:10305c000358240031f70700d2cc2c00c304240001
:10306c000df8070020079800310798002e019000fa
:10307c00be019000000020008120240027f70700eb
:10308c0002002000030a240036f60700708b88002b
:10309c00818b8800708b8000818b8000faf5070093
:1030ac0080407800f0372100014878001e00900025
:1030bc00100078008000eb0011f60700323323007b
:1030cc0033052400f4f70700020020000358240005
:1030dc0012f70700d2cc2c00c3042400eef7070033
:1030ec0020079800310798002e019000be01900037
:1030fc00000020008120240008f7070002002000b7
:10310c00030a240017f60700908b8800a18b880017
:10311c00908b8000a18b8000dbf50700804078004d
:10312c00d0372100014878001e0090006600400056
:10313c00100078008000eb00f1f50700323323001b
:10314c0033052400d4f707000200200003582400a4
:10315c00f2f60700d2cc2c00c3042400cef70700f3
:10316c0020079800310798002e019000be019000b6
:10317c000000200081202400e8f607000200200057
:10318c00030a2400f7f50700b08b8800c18b880078
:10319c00b08b8000c18b8000bbf5070080407800ad
:1031ac000038210001487800c2372100510020006e
:1031bc0000032000ec05070090818000a1818000b5
:1031cc00b1f50700804078001038210001487800e4
:1031dc00123821002100200000042000e205070025
:1031ec007081800081818000a7f507008040780005
:1031fc0020382100014878001238210021002000dd
:10320c0000042000d8050700908b8000a18b800063
:10321c0018c0b30002002000031f240077f507003c
:10322c000000e00001003c000044eb000804e0005a
:10323c0002003200856ea80001003700856ea900df
:10324c00308b8000418b800018c0b300020020003e
:10325c00031f240069f507000000e00001003c009a
:10326c000044eb000804e00002003200848ea80049
:10327c0001003700848ea900508b8000618b800088
:10328c0018c0b30002002000031f24005bf50700e8
:10329c000000e00001003c000044eb000804e000ea
:1032ac0002003200754ea80001003700754ea900cf
:1032bc00708b8000818b800018c0b300020020004e
:1032cc00031f24004df507000000e00001003c0046
:1032dc000044eb000804e0000200320084aea800b9
:1032ec000100370084aea900b08b8000c18b800038
:1032fc0018c0b30002002000031f24003ff5070094
:10330c000000e00001003c000044eb000804e00079
:10331c000200320084cea8000100370084cea90040
:10332c000000eb00000f780005003700940f070039
:10333c00004f98000e489000dd0507001e0fe800b6
:10334c00a90f07009e0f5000f8ff3c0000712200ef
:10335c0001002000f00f0700eefe37000000fa001d
:10336c0020d0bf000080fb00cf80de00f2002000e8
:10337c0003002000820f5000838f580073003e0022
:10338c00000601000f00370018003700210037003d
:10339c002b0037002c003700360037003700370081
:1033ac0041003700420037004c0037004d00370019
:1033bc0057003700650037006400370056003700af
:1033cc00600037003a30ef003c30ef000041eb007a
:1033dc006000b8001d0a070012c0b3006000b800fe
:1033ec001a0a070010c0b30020f0b700d281800089
:1033fc00e3818000803e200001002000800f5100fe
:10340c00818f59005400360020c0b30020f0b70063
:10341c005200370070818000818180000041eb00f8
:10342c000a0a070090818000a181800012c0b300bd
:10343c00060a070030c0b30020f0b7004700370081
:10344c0048000700450037007081800081818000b2
:10345c000041eb00fd09070090818000a1818000f4
:10346c0012c0b300f909070050c0b30020f0b70038
:10347c003a0037003b0007003800370070818000ad
:10348c00818180000041eb00f009070090818000f1
:10349c00a181800012c0b300ec09070070c0b3001a
:1034ac0020f0b7002d0037002e0007002b0037004e
:1034bc0070818000818180000041eb00e3090700ee
:1034cc0090818000a181800012c0b300df09070049
:1034dc0090c0b30020f0b700200037002100070097
:1034ec001e00370070818000818180000041eb005c
:1034fc00d609070090818000a181800012c0b30022
:10350c00d2090700b0c0b30020f0b7001300370099
:10351c001400070011003700708180008181800049
:10352c000041eb00c909070090818000a181800057
:10353c0012c0b300c5090700f0c0b30020f0b700fb
:10354c000600370007000700040037002070ef006a
:10355c000000000001003700000000000080fa00ad
:10356c00000006000200fa00881f7800909080008e
:10357c000000e000b5023a000040eb00004f78007c
:10358c00308b8000418b800018c0b30002002000fb
:10359c00031a240097f407000000e0000100350036
:1035ac000044eb000804e00016003200508b800051
:1035bc00618b800018c0b30002002000031f2400a0
:1035cc008ef407000000e00001003d000044eb0019
:1035dc000804e0000b003200708b8000818b8000af
:1035ec0018c0b30002002000031a240081f4070065
:1035fc000000e000010035000044eb000804e0008e
:10360c0021003a00908b8000a18b800018c0b30081
:10361c0002002000031a240076f407000000e000ea
:10362c00010035000044eb000804e00019003200f2
:10363c00508b8000618b800018c0b300020020000a
:10364c00031f24006df407000000e00001003d00a2
:10365c000044eb000804e0000e003200b08b800048
:10366c00c18b800018c0b30002002000031a240094
:10367c0060f407000000e000010035000044eb009e
:10368c000804e0000300320030c0b300004f7800a3
:10369c00bd013700308b8000418b800018c0b30017
:1036ac0002002000831c240052f407000000e000fc
:1036bc00010035000044eb000804e0002f0032004c
:1036cc00508b8000618b800018c0b300020020007a
:1036dc00031f240049f407000000e00001003d0036
:1036ec000044eb000804e00024003200708b8000e2
:1036fc00818b800018c0b30002002000831c2400c2
:10370c003cf407000000e000010035000044eb0031
:10371c000804e00019003200908b8000a18b80001f
:10372c0018c0b30002002000031a240031f4070073
:10373c000000e000010035000044eb000804e0004c
:10374c000e003200b08b8000c18b800018c0b3001b
:10375c0002002000031a240026f407000000e000f9
:10376c00010035000044eb000804e00003003200c7
:10377c000040eb00004f780083013700508b800035
:10378c00618b800018c0b30002002000031f2400ce
:10379c001af407000000e00001003d000044eb00bb
:1037ac000804e0001c003200908b8000a18b80008c
:1037bc0018c0b30002002000831c24000df4070085
:1037cc000000e000010035000044eb000804e000bc
:1037dc0011003200b08b8000c18b800018c0b30088
:1037ec0002002000831c240004f407000000e00009
:1037fc0001003c000044eb000804e000060032002d
:10380c00108180000000e8001081880040c0b300e7
:10381c00004f78005c013700508b8000618b80007a
:10382c0018c0b30002002000031f2400f3f30700ac
:10383c000000e00001003d000044eb000804e00043
:10384c001c003200908b8000a18b800018c0b3004c
:10385c0002002000831c2400e8f307000000e000b5
:10386c0001003c000044eb000804e00011003200b1
:10387c00b08b8000c18b800018c0b3000200200008
:10388c00831c2400dbf307000000e000010035007e
:10389c000044eb000804e0000600320010818000b8
:1038ac000000e8001081880050c0b300004f780081
:1038bc0035013700308b8000418b800018c0b3007d
:1038cc0002002000831c2400ccf307000000e00061
:1038dc0001003d000044eb000804e0001c00320035
:1038ec00508b8000618b800018c0b3000200200058
:1038fc00031f2400c1f307000000e00001003d009d
:10390c000044eb000804e00011003200708b8000d2
:10391c00818b800018c0b30002002000831c24009f
:10392c00b4f307000000e000010035000044eb0098
:10393c000804e00006003200108180000000e8005e
:10394c001081880010c0b300004f78000e013700c2
:10395c00308b8000418b800018c0b3000200200027
:10396c00831c2400a3f307000000e00001003500d5
:10397c000044eb000804e0001c003200508b800077
:10398c00618b800018c0b30002002000031f2400cc
:10399c009af307000000e00001003d000044eb003a
:1039ac000804e00011003200708b8000818b8000d5
:1039bc0018c0b30002002000831c24008ff3070002
:1039cc000000e00001003d000044eb000804e000b2
:1039dc0006003200108180000000e8001081880091
:1039ec0020c0b300004f7800e7003700308b800018
:1039fc00418b800018c0b30002002000831c2400ff
:103a0c007cf307000000e000010035000044eb00ef
:103a1c000804e0001c003200508b8000618b800099
:103a2c0018c0b30002002000031f240071f307002c
:103a3c000000e000010035000044eb000804e00049
:103a4c0011003200948b8000a58b8000b08b80001d
:103a5c00c18b800018c0b3000001be000400be0082
:103a6c0064f307000000e000010035000044eb00a7
:103a7c000804e000040032002230ef0070c0b300f4
:103a8c00004f7800c0003700708b8000818b800065
:103a9c0018c0b30002002000831c240055f307005b
:103aac000000e000010035000044eb000804e000d9
:103abc001c003200508b8000618b800018c0b3005a
:103acc0002002000031f24004af307000000e0005e
:103adc00010035000044eb000804e0001100320046
:103aec00948b8000a58b8000b08b8000c18b8000f4
:103afc0018c0b3000001be000400be003ff3070075
:103b0c000000e00001003c000044eb000804e00071
:103b1c00040032002230ef0080c0b300004f780068
:103b2c0099003700508b8000618b800018c0b30067
:103b3c0002002000031f240030f307000000e00007
:103b4c0001003d000044eb000804e0001a003200c4
:103b5c00908b8000a18b800018c0b3000200200065
:103b6c00031a240025f307000000e00001003d00cb
:103b7c000044eb000804e0000f003200b08b800022
:103b8c00c18b800018c0b30002002000031a24006f
:103b9c001af307000000e00001003d000044eb00b8
:103bac000804e000040032002230ef000040eb007b
:103bbc00004f780074003700308b8000418b800000
:103bcc0018c0b30002002000031f240009f30700f3
:103bdc000000e000010035000044eb000804e000a8
:103bec001c003200508b8000618b800018c0b30029
:103bfc0002002000031f240000f307000000e00077
:103c0c0001003c000044eb000804e000110032000d
:103c1c00348b8000458b8000708b8000818b800002
:103c2c0018c0b3000001be000400be00f1f2070092
:103c3c000000e000010035000044eb000804e00047
:103c4c00040032002230ef0020c0b300004f780097
:103c5c004d003700508b8000618b800018c0b30082
:103c6c0002002000031f2400e4f207000000e00023
:103c7c0001003c000044eb000804e0000f0032009f
:103c8c00708b8000818b800018c0b3000200200074
:103c9c00031f2400d7f207000000e00001003500ec
:103cac000044eb000804e000040032002230ef0076
:103cbc0010c0b300004f780033003700508b8000e9
:103ccc00618b800018c0b30002002000031f240089
:103cdc00c8f207000000e000010035000044eb00d2
:103cec000804e000040032002230ef0030c0b300c2
:103cfc00004f780024003700308b8000418b80000f
:103d0c0018c0b30002002000831c2400bbf2070083
:103d1c000000e00001003c000044eb000804e0005f
:103d2c0019003200508b8000618b800018c0b300ea
:103d3c0002002000831c2400b0f207000000e00009
:103d4c0001003d000044eb000804e0000e003200ce
:103d5c00708b8000818b800018c0b30002002000a3
:103d6c00831c2400a5f207000000e00001003d00c8
:103d7c000044eb000804e000030032002230ef00a6
:103d8c000040eb00004f780011818000803e200045
:103d9c00808f500021003400348b8000458b8000d4
:103dac00708b8000818b800018c0b3000001be00b6
:103dbc000400be0091f207000000e00001003c008e
:103dcc000044eb000804e0000400320080c0b300a3
:103ddc00004f78002230ef0010003700348b800049
:103dec00458b8000708b8000818b800018c0b300e5
:103dfc000001be000400be007ef207000000e000df
:103e0c00010035000044eb000804e0000300320020
:103e1c0070c0b300004f78002230ef001e407800d5
:103e2c000004e0001f003a0020c0b30021f0b700ee
:103e3c00508b8000618b800018c0b3000200200002
:103e4c00032224006df207000000e00001003c009a
:103e5c000044eb000804e0000900320000002000e0
:103e6c00811c240070818800818188000000200062
:103e7c00811c240090818800a18188006a00370091
:103e8c0000002000011a24007081880081818800c4
:103e9c0000002000011a240090818800a181880074
:103eac00610037001e407800e24f50000b003a00d2
:103ebc0040c0b30021f0b700000020000112240024
:103ecc00708188008181880000002000010a240094
:103edc0090818800a1818800530037001e40780033
:103eec00e14f50000b003a0060c0b30021f0b70066
:103efc0000002000010a2400708188008181880064
:103f0c00000020000112240090818800a18188000b
:103f1c00450037001e407800e34f50000b003a007c
:103f2c0080c0b30021f0b70000002000011724006e
:103f3c0070818800818188000000200001172c000e
:103f4c0090818800a1818800370037001e407800de
:103f5c00e54f50000b003a0060c0b30021f0b700f1
:103f6c0000002000010a24007081880081818800f3
:103f7c00000020000117240090818800a181880096
:103f8c00290037001e407800e44f50000b003a0027
:103f9c0040c0b30021f0b70000002000011724003e
:103fac00708188008181880000002000010a2400b3
:103fbc0090818800a18188001b0037001e4078008a
:103fcc00e74f50000b003a0080c0b30021f0b7005f
:103fdc000000200001172400708188008181880076
:103fec000000200001172c0090818800a18188001e
:103ffc000d0037001e407800e84f50000a003a00d0
:10400c00a0c0b30021f0b7000000200001172c0065
:10401c007081880081818800000020000117240035
:10402c0090818800a181880021d0bf008080fb0096
:10403c0020d0bf000080fb000000e900808f500002
:10404c000200320021d0bf0020f0b7004f047800ee
:10405c000080fa00000006000000fa006000b800c2
:10406c0060998800719988006000b8008099880078
:10407c00919988006000b800c0988800d198880099
:10408c006000b80020998800319988006000b80061
:10409c0040998800519988006000b800a099880068
:1040ac00b19988006000b800c0998800d199880047
:1040bc006000b800a0988800b19888006000b80033
:1040cc00e0998800f199880000002000812c2400e0
:1040dc00409a8800519a880000002000812c24000e
:1040ec00609a8800719a88000000eb00809a880022
:1040fc000080fa00000006001000fa00889fbe0045
:10410c008a9fbe00449a8000559a8000a099800036
:10411c00b19980000001be000400be00faf1070056
:10412c000000e00009003a00649a8000759a800053
:10413c00c0998000d19980000001be000400be002f
:10414c00f1f107000000e000ab013200a099800003
:10415c00b1998000409a8800519a8800c0998000db
:10416c00d1998000609a8800719a8800a499800087
:10417c00b599800060998000719980000001be00a3
:10418c000400be00f7f107000004be00c4998000d3
:10419c00d599800080998000919980000001be0023
:1041ac000400be00eff107000801be00cbf50700cc
:1041bc00009a8800119a8800a8988000b99880000d
:1041cc00c0988000d1988000049a8000159a8000d5
:1041dc000001be000400be00210a07000001be0061
:1041ec000800be00dff10700e0988800f198880015
:1041fc0040998000519980000001be00a6f3070091
:10420c00a2702d0033ca2300c4f207000099880065
:10421c0011998800c4998000d599800080998000fc
:10422c00919980000001be000400be00cdf1070092
:10423c000001be0098f307000004be00a4998000a2
:10424c00b599800060998000719980000001be00d2
:10425c000400be00c3f107000001be008ef307008e
:10426c000001be000800be00c7f10700a6f9070058
:10427c00209a8800319a880020998000319980001a
:10428c000001be0084f30700d2cc2c00c3e4230051
:10429c00a2f20700008fbe002099800031998000a7
:1042ac000001be007cf307000001be0000002000ee
:1042bc0001f82300abf10700d2cc2c00c3e423009f
:1042cc0096f207002007980031079800d2818000f1
:1042dc00e3818000608280007182800000005100c8
:1042ec008180590086f1070040079800510798001b
:1042fc00e0988000f198800018c0b3006011b800fd
:10430c003ef107000000e00001003c000044eb001f
:10431c000804e0003f003200409980005199800071
:10432c0018c0b3006011b80032f107000000e000c3
:10433c00010035000044eb000804e00008003200e6
:10434c004099800051998000a2702d0033c2230047
:10435c0084f1070040998800519988006d0037005e
:10436c00e4988000f59880000099800011998000f5
:10437c0018c0b3000001be000400be001ff107000e
:10438c000000e00001003c000044eb000804e000e9
:10439c0018003200409980005199800018c0b30079
:1043ac00020020000304240012f107000000e000ca
:1043bc00010035000044eb000804e0000800320066
:1043cc004099800051998000a2702d0033c22300c7
:1043dc006df1070040998800519988004d00370015
:1043ec0000002000010424004099880051998800a5
:1043fc00480037004099800051998000a2702d0030
:10440c0033c2230057f10700409988005199880066
:10441c0040003700409980005199800018c0b300cb
:10442c006011b800f5f007000000e00001003c004e
:10443c000044eb000804e0000800320040998000c2
:10444c0051998000a2702d0033c2230045f1070062
:10445c0040998800519988002e003700e098800020
:10446c00f19880008e0807000002be0000998000c1
:10447c001199800018c0b3000001be000400be00fa
:10448c00def007000000e00001003c000044eb00ff
:10449c000804e00018003200409980005199800017
:1044ac0018c0b3000200200003042c00d3f0070056
:1044bc000000e00001003c000044eb000804e000b8
:1044cc00080032004099800051998000a2702d00a4
:1044dc0033c2230023f107004099880051998800ca
:1044ec000c003700000020000104240040998800d3
:1044fc00519988000700370040998000519980003d
:10450c00a2702d0033c223001ff1070040998800d0
:10451c0051998800e0988000f198800060080700ad
:10452c0018c0b3000200200003f02300b1f0070014
:10453c000000e000010035000044eb000804e0003e
:10454c00070032006000b80040998800519988003b
:10455c00a0988000b1988000c0988800d1988800fd
:10456c00209a8000319a800018c0b300d2cc2c0065
:10457c00c3dc23009ff007000000e00001003500c1
:10458c000044eb000804e0000b0032006000b800af
:10459c002099880031998800609980007199800079
:1045ac00a0998800b1998800809980009199800029
:1045bc00c0998800d1998800289a8000399a800087
:1045cc00d2cc2c00c3dc23001e0078009e0090008f
:1045dc00edf007001ac0b3000001be000800be00d9
:1045ec0084f007000000e000010034000045eb00ff
:1045fc000a04e000130032002899800039998000e9
:10460c00d2cc2c00c3dc23004e009000de009000c6
:10461c00a1f207000001be000800be00d1f00700a7
:10462c002099880031998800209980003199800068
:10463c006011b800c0f607002099880031998800f5
:10464c0044003700289a8000399a80002e0190008f
:10465c00be0190001e0078009e009000caf007007a
:10466c001ac0b3000001be000800be0063f00700d2
:10467c000000e00001003c000045eb000a04e000f3
:10468c00140032002899800039998000d2cc2c007b
:10469c00c3dc23004e009000de0090007ef2070089
:1046ac000001be000800be00b7f00700209988008a
:1046bc0031998800209980003199800002002000f7
:1046cc0003f82300d0f60700209988003199880060
:1046dc0020003700289a8000399a800020998000a9
:1046ec003199800002002000030024008bf10700a8
:1046fc000001be000800be00a3f0070082f807000e
:10470c0060079800710798002899800039998000fb
:10471c00d2cc2c00c3dc23004e009000de009000b5
:10472c005df207000001be000800be0096f0070015
:10473c002099880031998800209980003199800057
:10474c006e019000fe019000aff6070020998800e2
:10475c003199880068998000799980002a998000a5
:10476c003b998000c0988000d1988000f3f5070039
:10477c000001be000a00be0047f207004e01900087
:10478c00de01900044f207000001be000800be00ec
:10479c007df00700609988007199880088998000e5
:1047ac00999980002a9980003b998000c0988000dc
:1047bc00d1988000bdf707000001be000a00be00c2
:1047cc0035f207004e019000de01900032f2070036
:1047dc000001be000800be006bf007008099880045
:1047ec0091998800d0818000e181800060828800ee
:1047fc0071828800060037006000b800209988009c
:10480c00319988006000b80040998800519988005f
:10481c004f05be004f04be000080fa0000000600e9
:10482c001800fa0060998000719980000001be00a8
:10483c008000eb000e0078003d0807008099800096
:10484c00919980000001be00410020000e0078000c
:10485c0037080700c0988000d19880000001be0086
:10486c00810020000e00780031080700209980009c
:10487c00319980000001be00c10020000e007800bc
:10488c002b08070040998000519980000001be0060
:10489c00010120000e00780025080700d08180005f
:1048ac00e181800016f007000001be0041012000ec
:1048bc000e0078001e0807000e0178008101200010
:1048cc0000052000280007000080fa000000060008
:1048dc000a00fa0020079800310798004207980058
:1048ec000000eb00000f7800e00f20001e0f6800a6
:1048fc002e0090004880de001e0f68002e009000f5
:10490c001e0f68003e0090004880de001e0f6800fd
:10491c003e0090001e0f68000000eb00100798008e
:10492c00090037001e009000ce009000008040006f
:10493c00104078000080fb001e0f68001e009000e5
:10494c000000e800100798009e0090003e009000c8
:10495c00808f5000f3ff35001e0078000040780077
:10496c000080fa00000006000c00fa00889fbe00d0
:10497c008a9fbe00300798004107980052079800a4
:10498c008f0478000f007800000578004e0090002e
:10499c00660440000800e900100798000800780041
:1049ac000000e8000000e8000000d100800040009a
:1049bc000f007800818747000000e8000000d1005c
:1049cc0000004000200798002e009000e1cfb300bb
:1049dc00014878003e0090004880de00804078005e
:1049ec002e009000114098003e009000804078000e
:1049fc002e009000214098004e0090004880de0070
:104a0c00804078002e009000314098004e009000bd
:104a1c00804078002e009000414098000000eb0090
:104a2c00000f78000000eb00000f78000a00370040
:104a3c009e007800658040009e0078005e0190002a
:104a4c0081004100914078002e019000000041004f
:104a5c00014878001e0fe8004e0090009e00780080
:104a6c00808f5000f2ff35009e007800e5854000f5
:104a7c005e019000ce0090003e00900094ff070075
:104a8c00ae0090008b804000804878002e00900093
:104a9c0088007800130807008a07780089077800d7
:104aac004f05be004f04be000080fa000000060057
:104abc000200fa00004f780050818000e30f500094
:104acc0023003200e30f500007003c00e10f5000c0
:104adc0012003200e10f500016003c000000e00014
:104aec000800320054003700e50f5000250032005a
:104afc00e50f50001c003500e60f50003a00320064
:104b0c004d0037001e407800e24f40004d003a0047
:104b1c0010002000508188004f0037001e80fb00e1
:104b2c004800dd0020818800200020005081880092
:104b3c00490037009e80fb002081800000804000ef
:104b4c00208188003000200050818800420037000e
:104b5c001e80fb004800dd003081880040002000f2
:104b6c00508188003c0037009e80fb003081800023
:104b7c000080400030818800500020005081880067
:104b8c00350037003181800000402000808f5000bc
:104b9c00020034002a30ef002f00370041818000e2
:104bac0030818000808f500028003d0040818000c3
:104bbc0041292100008040001e487800408180007f
:104bcc000000e80040818800418180003081800035
:104bdc00808f50001f003a002830ef00600020004a
:104bec00508188001c0037003181800020818000ba
:104bfc004229210036ff07002cf0b7002cd0bf0053
:104c0c009e4f500005003a003181800020818000c9
:104c1c004229210012000700050037003081800076
:104c2c004229210080007800300120000c00070090
:104c3c002a30ef00080037002a30ef000000000097
:104c4c0005003700000000000300370000000000e2
:104c5c0001003700000000000080fa000000060090
:104c6c004000fa00889fbe00501f9800611f9800fa
:104c7c00721f98000f0478000f00780080047800f1
:104c8c006e1890008000e9001107980000004000a9
:104c9c000000e8000000e8000000d10080004000a7
:104cac000f007800818747000000e8000000d10069
:104cbc0000004000200798006e1890008000e9006a
:104ccc0031079800000040000000e8000000e800f8
:104cdc000000d100800040000f0078008187470061
:104cec000000e8000000d1000000400040079800e0
:104cfc005e18900011072000810f500098003200c0
:104d0c0011072000810f50000a003c000105200013
:104d1c00810f50005300320001072000810f50001a
:104d2c005e00320001022000810f50000b003200a7
:104d3c00d600370001092000810f5000be00320060
:104d4c0011092000810f5000c10032000108200021
:104d5c00810f5000b3003200cc0037000000eb0094
:104d6c00000f78000b0037001e007800fe18900032
:104d7c0000804000104078008080fb002e019000e5
:104d8c001e0078000000400000004100010878007f
:104d9c001e0fe8006e1890009e007800808f500067
:104dac00f1ff35002e00900010007800e10f50004c
:104dbc000c003a002e009000100090000000e00063
:104dcc0002003a00848ea900b00037002e0090003b
:104ddc0010009000e10f5000a3003a00848ea80050
:104dec00aa0037002e00900010007800e20f50004f
:104dfc000c003a002e009000100090000000e00023
:104e0c0002003a0084aea900a00037002e009000ea
:104e1c0010009000e10f500095003a0084aea800fd
:104e2c009a0037002e00900010007800e30f50001d
:104e3c0091003a002e009000100090000000e0005d
:104e4c0002003a0084cea900900037002e0090009a
:104e5c0010009000e10f500089003a0084cea800a9
:104e6c008a0037006e189000e80f500086003a0058
:104e7c008000eb007e18900093060700a099880034
:104e8c00b1998800410020007e1890008e06070022
:104e9c00c0998800d19988007c0037008000eb0015
:104eac007e1890008806070050079800610798004c
:104ebc00410020007e1890008306070070079800c0
:104ecc00010f9800810020007e1890007e060700dc
:104edc00100f9800210f9800c10020007e18900040
:104eec0079060700300f9800410f9800010120004f
:104efc007e18900074060700500f9800610f980000
:104f0c00410120007e1890006f060700700f98007a
:104f1c00011798007e0890008e109000809fbe00b4
:104f2c005e089000ee089000809fbe003e08900046
:104f3c00ce089000809fbe001e0b9000ae0b900020
:104f4c007e0290008e0a90005e019000ee019000af
:104f5c00201b210052000700ec8757004b00370044
:104f6c008000eb007e189000570607001017980081
:104f7c0021179800410020007e189000520607006f
:104f8c003017980041179800810020007e1890007f
:104f9c004d0607005017980061179800c1002000bb
:104fac007e1890004806070070179800011f9800a3
:104fbc00010120007e18900043060700101f980086
:104fcc00211f9800410120007e1890003e0607002a
:104fdc00301f9800411f98003e189000ce1890008a
:104fec00809fbe001e189000ae189000809fbe00df
:104ffc007e1090008e189000809fbe005e13900073
:10500c00ee1390003e129000ce1290001e119000f4
:10501c00ae119000201e210021000700ec875700e4
:10502c001a0037007e189000104078000080fb00ba
:10503c0090908800150037008000eb007e189000df
:10504c0021060700508d8800618d88000f00370005
:10505c008000eb007e1890001b060700708d880006
:10506c00818d880009003700000000000700370020
:10507c0000000000050037000000000003003700ae
:10508c0000000000010037000000000089077800d4
:10509c00880778004f04be000080fa00000006006c
:1050ac000e00fa00000f78001207980023079800f2
:1050bc003407980045079800560798006707980032
:1050cc001e0078001e019000ae0190000288be0008
:1050dc001e0078003eb99700ceb997006200980088
:1050ec00730098001e0078003e019000ce019000e5
:1050fc0022009800330098001e0078001eb997001b
:10510c00aeb9970002089800130898001e007800aa
:10511c005e019000ee019000420098005300980050
:10512c001e0078007eb197008eb997002208980077
:10513c00330898000080fa00000006001200fa0004
:10514c00889fbe006007980072079800030f9800b4
:10515c006e0090007e0190008e0990000210980065
:10516c00131098006e0090009000900010007800d2
:10517c006011b800e4ed07000000e0001c003200f4
:10518c006e00900060029000f00290006e009000a3
:10519c0090009000100078000001be000400be00da
:1051ac00deee07000004be006e009000f0009000e0
:1051bc00600090000002be0005f0a2006e0090009e
:1051cc0090009000100078000001be000400be00aa
:1051dc00d2ee07000802be000001be007e00900067
:1051ec008e08900074050700008fbe000300370086
:1051fc007e0190008e099000028fbe006e00900020
:10520c0090009000100078001e0178009e01900024
:10521c00a1ef07006e019000201198003111980049
:10522c006e009000400c9000d00c9000020020000a
:10523c00a33724007e0090008e089000b7ee070084
:10524c000001be000800be00cfed07006e0190000b
:10525c0040099800510998006e009000b000900031
:10526c00200090006011b800a7ed07000000e000de
:10527c00200032006e009000000a9000900a90000e
:10528c006e009000b0009000200090000001be0065
:10529c000400be00a1ee07000004be006e009000ea
:1052ac0090089000000890000002be0005f0a200db
:1052bc006e009000b0009000200090000001be0035
:1052cc000400be0095ee07006e019000420b9000aa
:1052dc00d20b90000802be000001be000600be000a
:1052ec00350507006e01900040099800510998009f
:1052fc00050037006e0090007e0190008e09900032
:10530c0042089800530898006e009000400a9000e4
:10531c00d00a90006e009000b00090002000900029
:10532c000001be000400be005bef07006e019000a0
:10533c0040119800511198006e009000f0089000f8
:10534c00600890000001be007e0090008e08900066
:10535c0084ed070002002000a33724004eef070065
:10536c0040079800510798006e009000d000900004
:10537c00400090006011b80063ed07000000e000f1
:10538c001d0032006e009000200a9000b00a9000c0
:10539c006e009000d0009000400090000001be0014
:1053ac000400be005dee07000004be006e0090001d
:1053bc00b0089000200890000002be0005f0a2008a
:1053cc006e009000d0009000400090000001be00e4
:1053dc000400be0051ee07000802be000001be0032
:1053ec004e009000de009000f304070020079800a8
:1053fc0031079800040037004e019000de01900048
:10540c0022079800330798006e0090007e019000f0
:10541c008e09900062089800730898006e00900046
:10542c00d0009000400090002e019000be01900032
:10543c0019ef07006e01900060119800711198002f
:10544c006e00900020129000b01290006e00900040
:10545c00d0109000401090000001be000400be006f
:10546c0049ed07000002be006e009000f0109000a5
:10547c00601090000001be000400be0042ed070069
:10548c004f04be000080fa00000006000000fa0085
:10549c00548d8000658d8000108c8000218c8000e4
:1054ac000001be000400be002eed0700908e8800a7
:1054bc00a18e8800748d8000858d8000308c8000da
:1054cc00418c80000001be000400be0025ed0700e9
:1054dc001090880021908800908e8000a18e800012
:1054ec000001be00201b210014ff0700108d880056
:1054fc00218d880010908000219080000001be005a
:10550c00201e21000dff0700308d8800418d880082
:10551c00308d8000418d8000148d8000258d8000a1
:10552c000001be000400be00f60107000080fa0076
:10553c00000006006000fa00908d8000a18d8000b4
:10554c000001be008000eb000e007800f80407009c
:10555c00b08d8000c18d80000001be004100200094
:10556c000e007800f2040700d08d8000e18d8000e1
:10557c000001be00810020000e007800ec04070042
:10558c00f08d8000018e80000001be00c100200063
:10559c000e007800e6040700108e8000218e80003b
:1055ac000001be00010120000e007800e00407009d
:1055bc00308e8000418e80000001be004101200031
:1055cc000e007800da0407000e017800810120003b
:1055dc0000072000e4fc0700108f8000218f800062
:1055ec00780247000001be008000eb000400780048
:1055fc00cf040700308f8000418f80007802470075
:10560c000001be004100200004007800c80407001f
:10561c00508f8000618f8000780247000001be002f
:10562c008100200004007800c1040700708f800006
:10563c00818f8000780247000001be00c10020006d
:10564c0004007800ba040700908f8000a18f8000be
:10565c00780247000001be00010120000400780020
:10566c00b3040700b08f8000c18f80007802470020
:10567c000001be004101200004007800ac040700ca
:10568c0078004700000178008101200010072000fd
:10569c00b5fc0700b08e8000c18e80000403200092
:1056ac000e0242000001be008000eb0004007800f6
:1056bc009f040700d08e8000e18e80000403200040
:1056cc000e0242000001be004100200004007800e0
:1056dc0097040700f08e8000018f800004032000e7
:1056ec000e0242000001be00810020000400780080
