:020000040000fa
:080000000002040000000000f2
:020000040000fa
:04000800f6030000fb
:020000040000fa
:04000c00f6030000f7
:020000040000fa
:04001000f6030000f3
:020000040000fa
:04001400f6030000ef
:020000040000fa
:04001800f6030000eb
:020000040000fa
:04001c00f6030000e7
:020000040000fa
:04002000f6030000e3
:020000040000fa
:04002400f6030000df
:020000040000fa
:04002800f6030000db
:020000040000fa
:04002c00f6030000d7
:020000040000fa
:04003000f6030000d3
:020000040000fa
:0400340002030000c3
:020000040000fa
:04003800f6030000cb
:020000040000fa
:04003c00f6030000c7
:020000040000fa
:04004000f6030000c3
:020000040000fa
:04004400f6030000bf
:020000040000fa
:04004800fa020000b8
:020000040000fa
:04004c00f6030000b7
:020000040000fa
:04005000f6030000b3
:020000040000fa
:04005400b2030000f3
:020000040000fa
:040058008803000019
:020000040000fa
:04005c006403000039
:020000040000fa
:04006000f6030000a3
:020000040000fa
:04006400f60300009f
:020000040000fa
:04006800f60300009b
:020000040000fa
:04006c00f603000097
:020000040000fa
:04007000f603000093
:020000040000fa
:04007400f60300008f
:020000040000fa
:04007800f60300008b
:020000040000fa
:04007c00f603000087
:020000040000fa
:04008000f603000083
:020000040000fa
:04008400f60300007f
:020000040000fa
:04008800f60300007b
:020000040000fa
:04008c00f603000077
:020000040000fa
:04009000f603000073
:020000040000fa
:040094004c03000019
:020000040000fa
:04009800f60300006b
:020000040000fa
:04009c00f603000067
:020000040000fa
:0400a000f603000063
:020000040000fa
:0400a400f60300005f
:020000040000fa
:0400a800f60300005b
:020000040000fa
:0400ac00f603000057
:020000040000fa
:0400b000f603000053
:020000040000fa
:0400b400f60300004f
:020000040000fa
:0400b800f60300004b
:020000040000fa
:0400bc00f603000047
:020000040000fa
:0400c000f603000043
:020000040000fa
:0400c400f60300003f
:020000040000fa
:0400c800f60300003b
:020000040000fa
:0400cc00f603000037
:020000040000fa
:0400d000f603000033
:020000040000fa
:0400d400f60300002f
:020000040000fa
:0400d800f60300002b
:020000040000fa
:0400dc00f603000027
:020000040000fa
:0400e000f603000023
:020000040000fa
:0400e400f60300001f
:020000040000fa
:0400e800f60300001b
:020000040000fa
:0400ec00f603000017
:020000040000fa
:0400f000f603000013
:020000040000fa
:0400f400f60300000f
:020000040000fa
:0400f800f60300000b
:020000040000fa
:0400fc00f603000007
:020000040000fa
:04010000f603000002
:020000040000fa
:04010400f6030000fe
:020000040000fa
:04010800f6030000fa
:020000040000fa
:04010c00f6030000f6
:020000040000fa
:04011000f6030000f2
:020000040000fa
:04011400f6030000ee
:020000040000fa
:04011800f6030000ea
:020000040000fa
:04011c00f6030000e6
:020000040000fa
:04012000f6030000e2
:020000040000fa
:04012400f6030000de
:020000040000fa
:04012800f6030000da
:020000040000fa
:04012c00f6030000d6
:020000040000fa
:04013000f6030000d2
:020000040000fa
:04013400f6030000ce
:020000040000fa
:04013800f6030000ca
:020000040000fa
:04013c00f6030000c6
:020000040000fa
:04014000f6030000c2
:020000040000fa
:04014400f6030000be
:020000040000fa
:04014800f6030000ba
:020000040000fa
:04014c00f6030000b6
:020000040000fa
:04015000f6030000b2
:020000040000fa
:04015400f6030000ae
:020000040000fa
:04015800f6030000aa
:020000040000fa
:04015c00f6030000a6
:020000040000fa
:04016000f6030000a2
:020000040000fa
:04016400f60300009e
:020000040000fa
:04016800f60300009a
:020000040000fa
:04016c00f603000096
:020000040000fa
:04017000f603000092
:020000040000fa
:04017400f60300008e
:020000040000fa
:04017800f60300008a
:020000040000fa
:04017c00f603000086
:020000040000fa
:04018000f603000082
:020000040000fa
:04018400f60300007e
:020000040000fa
:04018800f60300007a
:020000040000fa
:04018c00f603000076
:020000040000fa
:04019000f603000072
:020000040000fa
:04019400f60300006e
:020000040000fa
:04019800f60300006a
:020000040000fa
:04019c00f603000066
:020000040000fa
:0401a000f603000062
:020000040000fa
:0401a400f60300005e
:020000040000fa
:0401a800f60300005a
:020000040000fa
:0401ac00f603000056
:020000040000fa
:0401b000f603000052
:020000040000fa
:0401b400f60300004e
:020000040000fa
:0401b800f60300004a
:020000040000fa
:0401bc00f603000046
:020000040000fa
:0401c000f603000042
:020000040000fa
:0401c400f60300003e
:020000040000fa
:0401c800f60300003a
:020000040000fa
:0401cc00f603000036
:020000040000fa
:0401d000f603000032
:020000040000fa
:0401d400f60300002e
:020000040000fa
:0401d800f60300002a
:020000040000fa
:0401dc00f603000026
:020000040000fa
:0401e000f603000022
:020000040000fa
:0401e400f60300001e
:020000040000fa
:0401e800f60300001a
:020000040000fa
:0401ec00f603000016
:020000040000fa
:0401f000f603000012
:020000040000fa
:0401f400f60300000e
:020000040000fa
:0401f800f60300000a
:020000040000fa
:0401fc00f603000006
:020000040000fa
:04020000f603000001
:020000040000fa
:04020400f6030000fd
:020000040000fa
:04020800f6030000f9
:020000040000fa
:04020c00f6030000f5
:020000040000fa
:04021000f6030000f1
:020000040000fa
:04021400f6030000ed
:020000040000fa
:04021800f6030000e9
:020000040000fa
:04021c00f6030000e5
:020000040000fa
:04022000f6030000e1
:020000040000fa
:04022400f6030000dd
:020000040000fa
:04022800f6030000d9
:020000040000fa
:04022c00f6030000d5
:020000040000fa
:04023000f6030000d1
:020000040000fa
:04023400f6030000cd
:020000040000fa
:04023800f6030000c9
:020000040000fa
:04023c00f6030000c5
:020000040000fa
:04024000f6030000c1
:020000040000fa
:04024400f6030000bd
:020000040000fa
:04024800f6030000b9
:020000040000fa
:04024c00f6030000b5
:020000040000fa
:04025000f6030000b1
:020000040000fa
:04025400f6030000ad
:020000040000fa
:04025800f6030000a9
:020000040000fa
:04025c00f6030000a5
:020000040000fa
:04026000f6030000a1
:020000040000fa
:04026400f60300009d
:020000040000fa
:04026800f603000099
:020000040000fa
:04026c00f603000095
:020000040000fa
:04027000f603000091
:020000040000fa
:04027400f60300008d
:020000040000fa
:04027800f603000089
:020000040000fa
:04027c00f603000085
:020000040000fa
:04028000f603000081
:020000040000fa
:100400000f4521000eff2c000e01880000000000a7
:10041000000020000000e000020032000001200087
:100420002002880014000700f20007000000e0002e
:1004300003003a00602b2300010020000200370077
:100440000000200001002000810f70000100320038
:100450000f000700000020000000e0000200320052
:100460000000020000000000b019020000000000bf
:100470000040da000000fe00200020000000e00044
:1004800002003200100020009001880000000600e9
:10049000a1028800800478000000eb001f003700f4
:1004a000e284440054a0b4009905ba00e2844400f8
:1004b00054a0b4009906ba00e284440054a0b400e9
:1004c0000006eb00476fde00fd07b200ae018800ba
:1004d000636ce10003003a000ad801000000eb0061
:1004e0000e003700606ce10008003a00004deb00a0
:1004f0000a05e800020039003420ec000af0a000f0
:100500008b05e900f9ff3e00040037006168e10057
:10051000010032000086eb000b00070019c7ba008b
:100520000e04e0001905ba0003003a000a00e000da
:10053000dbff3a0000000600fe07b200ae028800b2
:100540008a047800f5ff37000cd0a300e20f4d00bd
:100550001c003b0089027800354dba000a05e8000e
:10056000020039003420ec000af0a0008b05e900fd
:100570000f003200254dba000a05e80002003900dc
:100580003420ec000af0a0008b05e90008003200de
:100590000c00e0000600320015cdba000a05e800a4
:1005a000020039003420ec000af0a0008b05e900bd
:1005b0008984e80054a0b4000b00e000e2ff3a0098
:1005c000000006009902ba00055d78008b05e9007d
:1005d000f7ff3200c82ade00055d78008b05e900d0
:1005e000f3ff32000c00e000f1ff320019ddba0029
:1005f000eeff37000000fa000108a9000080fa00b1
:10060000004006003600f800809fbe00829fbe00ba
:10061000849fbe00869fbe000000fa000068a9000b
:1006200015190700330c0700d31307003117070013
:10063000e09980000000e00002003a00254ea8008a
:1006400005003700e0998000e10f500002003a00f9
:10065000c1120700254ea900b08180000000e8000b
:10066000b0818800b0818000f80f50000300340092
:10067000a3140700e21207003630ef000080fa00f2
:100680004f03be004f02be004f01be004f00be0030
:100690003600f90000400600809fbe000000fa000e
:1006a0000368a900d0818000e181800061004000e2
:1006b000e0804800d0818800e18188000080fa0055
:1006c0004f00be0000400600801f78000000fa00c6
:1006d00001a8a90000188000f0a18800101880006f
:1006e00000a288002018800010a288003018800026
:1006f00020a288004018800030a2880010c0b300fb
:100700004bf0b7000080fa004f0078000040060070
:100710003600f800809fbe00829fbe00849fbe000e
:10072000869fbe000000fa000188a90001828000b7
:10073000f0818000808f5000020032006b180700ab
:10074000010037004270ef000080fa004f03be0046
:100750004f02be004f01be004f00be003600f90040
:10076000004006003600f800809fbe00829fbe0059
:10077000849fbe00869fbe000000fa000168a900a9
:1007800010118000640060000000e00001003200f1
:100790002242a90010118000620060000000e00009
:1007a000060032002222a900050037003011800027
:1007b0000040780005190700010037000000000024
:1007c00010118000610060000000e000f7ff3a00b7
:1007d0000080fa004f03be004f02be004f01be0072
:1007e0004f00be003600f900004006000040da006d
:1007f0000000fe000000050014002000ad033700db
:10080000f4ff2f00ab0337000001be003f000700dc
:100810000470a70003f0a1006509b10016003200c2
:100820000d0035006828e10006003500f0ff2f00bc
:10083000f1ff27000300e00013003b000100280047
:100840000000050000004000818048008502e900aa
:10085000fcff3a0008003700f88f420002003c001d
:100860008000eb00000005008100d1000080d30073
:100870008502e800fcff3a000300e00002003b00b4
:1008800060001000e0801800000006000001be00bb
:100890001e0007000470a70003f0a10003f8a300e6
:1008a00013003a006509b10010003200090035005c
:1008b0006928e10002003500010028000000050061
:1008c00000004000818048008502e900fcff3a00fa
:1008d00000000600f88f4200050035008100d100bd
:1008e0000080d3008502e800fcff3a00000006000b
:1008f0008000eb00000005004f89de0082017800d7
:10090000870337006011b80095033700c70ade007f
:10091000f107b200f50fb20008003200e1cf42004b
:10092000020032000170a00024000500810f700059
:10093000010032000408050044000500810f70002a
:1009400002003a00140005008502e90000004000a2
:1009500081c04800fcff3b000170a000240005009e
:1009600007f82700078361000638e10004003a0019
:10097000f7072000878361008703710001003a00b8
:1009800003f0a200889fbe008a9fbe008c9fbe001d
:10099000470ade000480a100c71ade000580a1001e
:1009a000070028000785600087856100f70f200099
:1009b0000720e1009e0032000728e1009c00320081
:1009c000010678000400e000b4003200f7072000c0
:1009d000878060000170a0000500e000c0003200c8
:1009e000f7072000878161000370a0000506520010
:1009f0000f003a000b50e1000b0032000308e10049
:100a000002003a000200e1007e00320002045000c1
:100a100083845800040031000001fd008101fd00c5
:100a20008402fd008a05fd006044b8002100370003
:100a30000520e10005003d000001fd008101fd00f1
:100a40008402fd008a05fd00050652007a60e1007f
:100a5000050035000170a1004722dd008480700090
:100a60008a807000630037006044b800ef026600bf
:100a700007ff2f00070666000500e00006003400af
:100a8000f08312008714dd000511de00071bdd0076
:100a9000060171008519de007060e1000500350077
:100aa0000904780082047800030178008001eb00db
:100ab000700656000b50e10003003a0002004000af
:100ac000838048000400370060041400e0841c00a8
:100ad00002005800838058000188a30006003200fd
:100ae0008100d1000080d3008984d3000884d30022
:100af0000402e800270037000178a30025003a002f
:100b00000100e000030032008186cf0069865600b4
:100b10000a0037008c0020000000e00004003a00ca
:100b200009007800880478000004eb00700252008d
:100b30008086cf000d0646000c06e9007060e100db
:100b400006003500800078000900780088047800ed
:100b50000004eb0070065600700252000c00e0002a
:100b60000c0034008c08dd00f00316000703de00e3
:100b7000868070000c00dd00074bde000600700070
:100b80008c4cdd000743de00868474000c44dd00dd
:100b90000c0252006120e10020003500610160007c
:100ba0000700280087816400f7ff2700878364001f
:100bb000070374000300e0000600320082037300a4
:100bc000040032000000e800e08048000188a30033
:100bd0000e003a00f70f20000720e1004a003d0018
:100be0000170a1004722dd00810072008a80700040
:100bf0000000be004f06be004f05be004f04be0001
:100c0000000006006000b800faff37008100d10044
:100c10000080d3000402e800eeff370004017800f2
:100c200089017400a10107008a807000f1ff37007c
:100c3000f7010700070278000001fd008101fd00b7
:100c4000f301070087027800850372000778a3008c
:100c5000040032000001fd008101fd0006020700d2
:100c6000e4ff3700850362000768a3000800320034
:100c70000b50e10003003200f0ff2f00f1ff2700ce
:100c8000dcff37000001fd008101fd00d9ff3700c6
:100c90000468a300d7ff3200faff3700f8ff2700ef
:100ca000888360000b003a000000e00009003a0071
:100cb0008303640082837300020032000200be00de
:100cc000ccff37000b50e100ceff3a000200be001f
:100cd000c8ff370014002000810064003eff370089
:100ce000f8ff27008883610004003a000200e0005a
:100cf00002003a008c007800beff3700150020008b
:100d00008301640039ff370001f82700000020004c
:100d100081007500b7ff3700889fbe008a9fbe0024
:100d20008c9fbe001b0020000202be0005866800ea
:100d300006002800060666004709de00f20fb20032
:100d4000820032000243e80080003200c729de0042
:100d5000f30fb2007d0032000343e8007b00320055
:100d6000f107b2000170a000f507b2000570a00005
:100d7000c708dd004903de00868070004700dd0003
:100d8000c72add004923de00868272004722dd008b
:100d9000030551000403500085835800030031000f
:100da00000004000818048000a05e9008c1f78009f
:100db0008a9fbe0004005000858058000402420053
:100dc00085824a0000004000818048000005eb0059
:100dd0000004be006033b8000406be000d48e10008
:100de00056003100110009004dccd8000c01b800ac
:100df0000d02b8008481410060824a008283530062
:100e000003045c0084845c0060055d000a00e0006f
:100e100025003a00800578000d40e10049003100ce
:100e20008800780007007800110009004d88d8007c
:100e30000c01b8000d02b8008481410060824a00b4
:100e40006003110083835b0004045c00e0845c00a9
:100e50000900e00021003a004f01be000300e0005d
:100e60002b003200e3016000070673008c817100e3
:100e700001003200640070004200de004e5edd00c2
:100e80000c007000c258de0001e0a00083010700e2
:100e9000cf017800818071004f06be004f05be0073
:100ea0004f04be00000006008c8343000d044c007c
:100eb000e0844c0060054d000000e9000a00e000fd
:100ec000d4ff32008c8343000d044c00e0844c00be
:100ed00060054d000000e900ceff37000c03430021
:100ee0008d834b0060044c00e0844c000000e9005e
:100ef0000900e000d8ff32000c0343008d834b0053
:100f000060044c00e0844c000000e900d2ff370090
:100f10004200de004e5edd000c007000c258de00b4
:100f200001e0a000cf0178000300e000daff32000a
:100f300060001000e0801800d7ff3700f0ff2f009e
:100f4000aaff3700f0ff2f00b9ff37000404be00ee
:100f50002f010700870678000004fd008104fd00d2
:100f60002b010700078366000678a3000300320008
:100f70000960a7000800be002c0037000d78a30010
:100f8000020032000800be00280037000778a300e6
:100f900026003a0001f0a10009f0a1000668a300b4
:100fa00003003200f1ff2700f0ff2f00baff3700e7
:100fb0000d68a300030032000800be008c807000a2
:100fc000b5ff37000768a30007003a000648a300f2
:100fd00003003200f1ff2700f0ff2f00aeff3700c3
:100fe0000d48a300030032006000b8008c80700040
:100ff000a9ff37000748a3000400320001f82700ca
:10100000000020008c807000a3ff370076010700ed
:101010000004fd008104fd00020578007201070054
:101020000802be008a01780059ff37000160a00065
:10103000120220006282880097ff37000100e00062
:10104000120032000500e00010003200889fbe0050
:101050008a9fbe008c9fbe000006eb0001f8a30033
:101060000300320060001000e08018000cf0a000c7
:1010700005f8a3000300320060021200e0821a00ab
:101080000cf0a2008005eb0041ff37006000b800c3
:1010900002000500038368000700280007036300bf
:1010a000470ade000480a100c71ade000580a10007
:1010b000f70f20000720e100420032000728e1007e
:1010c00040003200889fbe008a9fbe008c1f7800bf
:1010d000f107b200f307b2000400e0006400320040
:1010e0000170a0000500e000680032000370a0005d
:1010f00085054200eb07b1000204b8000302b80006
:101100008484440060854a00020ab8008484440054
:101110000a854a00030ab8000405450004003300ac
:101120000804d0008984d2000a85d2008b05e9002a
:101130006158e1003d003500021020000901610006
:101140000308200089816100f7072000878364007d
:1011500008867300c84cde00c853dd008784740025
:101160004855de000300e0000600320082037600ee
:10117000040032008904e80060054d000a88a300dd
:101180000c003a00f70f20000758e10044003d0032
:101190000a70a100c75ddd000a8575008a00730032
:1011a000090078004f0678004f05be004f04be00ce
:1011b000000006000a05d1008984d3008b05e800f1
:1011c000f0ff3700881f78000604780090000700c1
:1011d000070278000001fd008101fd008c0007007e
:1011e00087027800850372000778a30005003200ab
:1011f0000001fd008101fd009f0007004f04780001
:1012000000000600850372000748a30003003200b7
:10121000f0ff2f00f1ff2700f8ff3700000020004b
:1012200001f8270088807000f4ff370088017800fb
:101230004848dd00808171004848de00c850dd006c
:1012400001007000c850de00060478000b01780031
:101250001600070088807000d2ff37000500e0000c
:1012600005003200170020003a0007009dff3700fc
:1012700081037000f9ff3a00860078004f0678007d
:101280004f05be004f04be0000000500830371003f
:10129000f9ff3200270020002e00070094ff3700de
:1012a00001f8270086807000f4ff37000100e0009d
:1012b00026003200610111007810e10023003c009b
:1012c0006022b8007010e100040035008002780050
:1012d000010078008000eb00700151000200e00086
:1012e0000900340070031100062add00822ade00a6
:1012f0008603dd00878272000200de00860bdd00bf
:10130000070070008208de0084817100f4ff27006e
:1013100004826200848171000400280084826200db
:101320006102600005f0a600000006000482710062
:10133000070032000000e800e080480000000600de
:101340000002be006000b800efff37006000b80088
:1013500000000600889fbe000004eb006138e10039
:1013600016003a000100e00008003a00c800de0064
:101370004800dd00880020000100e00003003a0082
:10138000c800de004800dd00680444008184cf000e
:10139000e9845400060034008908dd00f08314005d
:1013a0008703de00878070000900dd000904440027
:1013b000610214004f04be00000006000300e000bc
:1013c00008003a00c811de004811dd008800200046
:1013d0000300e00003003a00c811de004811dd0000
:1013e000680444008384cf00e9845400060034007c
:1013f0008919dd00f08314008713de0087817100f6
:101400000911dd0009044400e1021400e9ff37007e
:101410002700200001f0a70017002000470bde0086
:10142000f60fb200040032000643e8000a00320062
:101430004702b3000000060001037800f607b2007f
:101440000603700002003a000703b3000000060024
:101450008702b3000000060001037800f607b2001f
:1014600006037000020032000770a00000000600b2
:101470000760a000000006000478a300040032000a
:101480000578a300030032000168a30001003a00c0
:101490000200be000160a000000006008101700093
:1014a000270032008002eb0001f8a30003003200a5
:1014b00060001000e080180015002000f4072000f4
:1014c0000202420020003400f7032000870360007e
:1014d00006042000000363000208200000016100f0
:1014e0004700de00c909dd0000807100c708de008a
:1014f0000600e00008003200870371000600320099
:101500001000b0000180b0000188a300020032008a
:10151000c108de000402e800f107b200f30f20006a
:101520000320e10003003d004722dd00810072003e
:101530002900370001f827000000eb0026003700e3
:101540006000b80000000600680212007f20e10081
:10155000020034006000b8001f0037006011b800be
:101560007020e1000400350080017800010078005f
:101570008000eb00700252000400e000090034001b
:10158000f00312000719dd008419de000703dd00f7
:10159000868171000400de00070bdd00060070008c
:1015a0008408de00f7ff2700838363008703710050
:1015b0000600280003036300070032000700e00074
:1015c00003003a00610160000281730002003200f2
:1015d0001000b0000180b0000500a6000000060069
:1015e00001f0a000000006004f0ade004709de00ff
:1015f000f107b200f20fb2000b003200f207b100a7
:101600000170a000c708dd00c901de008380700002
:101610004700dd000400a600000006006000100086
:10162000e080180000000600810f700001003a0001
:10163000000006008182cf000500e00010003e009f
:101640008082cf00ee8242007028e1000400390061
:1016500007003e00800078000000eb000e0037001d
:10166000708312008600de000500dd000a003700ee
:10167000708352008600dd000000eb00060037009a
:10168000e28252008508dd00708312000603de004e
:10169000868070000500dd007507b0000501ea00d6
:1016a0000400a6000000060060001000e0801800a2
:1016b00000000600889fbe008a9fbe00841f78003d
:1016c0007c0007004f00780011003300f0ff2f006e
:1016d000838f6c0006003b00040565000a00a7002c
:1016e0000800370009f0a6001000200008003700ad
:1016f000820f5400838f5c0003003900100020002b
:1017000001003e000000200009f0a7000000ea00f0
:101710004f05be004f04be000000e00000000600c0
:10172000881f7800030478000300e00007003d00f4
:1017300060001000e080180060011900e0811900cd
:1017400002003b0001f02d000300370004000700f9
:1017500008f0a70001f0a0004f0478000000060088
:10176000889fbe008a9fbe00008270000402710044
:1017700004827100260032000004be000200be0098
:101780006011b8006b092000950220000182cf0093
:101790000a0039000541b1000082cf00070039007e
:1017a0000541b1000982cf00040039000541b100b4
:1017b0000882cf00010039000541b1000542520006
:1017c000120032000a003b00828171006101640056
:1017d0008100d1000080d3008984d3000884d30025
:1017e0008b05e8000442e800f7ff3a0007003700e5
:1017f0000804440089844c000000480081804800af
:101800008b05e9000442e900f9ff3a0003000700f4
:101810004f05be004f04be000000060081002000fe
:10182000618055000b003d000b00200061fe2f0081
:101830000100e1001d00340082817100610164003b
:101840008904d1000884d3000000e800faff3a00c0
:10185000710020006100640003007000020060005d
:101860000900320061044400e0844c000988a500ae
:10187000050032008b05e8006808e10002003a002c
:101880008904d1000884d300f20f20000258e1003f
:1018900005003d00c75ddd00f907b20089807500d5
:1018a00008007800000006000bf827008b00780085
:1018b000000005000004be0014fc07000003be0089
:1018c0000405be000200be0010fc0700844f750036
:1018d000000006000800fa000002be008501780042
:1018e00003f0a10000017800a6fd200097f423007a
:1018f000860f5100878f590008003e00f4ff2f002b
:10190000f5972300840f5100858f590055003e0044
:101910000000200001f82300600037004f0ade00bd
:1019200005002000163d2500b7072400860f510052
:10193000878f590019003e0036be2c006701240035
:10194000860f5100878f59000a0036000400e0001e
:1019500004003200b2fd20009304240009fc0700bb
:1019600048003700b2fd200093042400fcfb070070
:10197000440037000400e00004003200b2fd200003
:1019800093fc2300fffb0700430037000001be006b
:10199000b0fd200091fc230019003700561d2300e4
:1019a000270e2400860f5100878f590016003e0035
:1019b000f6dd2e00f70a2400860f5100878f5900ac
:1019c0000a0036000400e00004003200b2fd2000ee
:1019d000930c2400ebfb070022003700b2fd20002f
:1019e000930c2400defb07001e0037000400e0001b
:1019f0000100320001f0a20042be2c006309240065
:101a0000d7fb070024003700f4ff2f00f5f727006d
:101a1000840f5100858f5900030036000001be007d
:101a2000cffb07001d0037006881570065010700e4
:101a30006011b80063016000e10f5100e08f5900b0
:101a40000a003200e20f5100e08f59000b00320013
:101a5000e00f5100e08f59000d003a004fb8970099
:101a6000dfb89700290107000c0037004fb8970036
:101a7000dfb8970001f0a200070037004fb89700c9
:101a8000dfb897002101070001f0a2000300370032
:101a90004fb89700dfb89700a60107000080fa0052
:101aa00000000600000006000400fa00889fbe0047
:101ab0008a9fbe008c9fbe000004be000205be00cf
:101ac0000206410083864900e00f5600e08f5e0069
:101ad000140032000200be0082bf9f0093bf9f002f
:101ae000f0ff07008102780005f0a10000027800f5
:101af0000000200001f827000fb997009fb9970058
:101b0000800f5200818f5a0006003e000802be007e
:101b1000474bde00070020000680fb00e14f43003a
:101b200005003a000800be005afd07000001be0093
:101b300079fc0700090037000801440089814c0046
:101b40008c0f51008d8f590006003e0074003a0042
:101b50006011b8000800be004efd07000004be0082
:101b60006f0037000000e00013003a004949dd0033
:101b7000c741de00830171004941dd0003003700e9
:101b80000000e9000201410083814900e00f51009b
:101b9000e08f5900faff3d00e10010000401be0093
:101ba0008100e90003003300020141008381490004
:101bb000fbff37000400370085017800f307b2000f
:101bc000080178000370a000475bde0007002000da
:101bd00086007800f10fb20012003a00495bdd0088
:101be000c753de00870373004953dd00030037004d
:101bf0008100e9000603430087834b00e00f530098
:101c0000e08f5b00faff3d00618310000603e900ee
:101c1000030033000a0545008b854d00fbff3700ac
:101c2000100037008b037800f707b2000a03780032
:101c30000605be000b70a0000a003700e00f53003d
:101c4000e08f5b0004003500e00f5300e08f5b0085
:101c5000bfff32000601be0002014100838149003e
:101c60000000e9000a0351008b835900810f5000e6
:101c7000f2ff3c00e00f5300e08f5b0003003d00eb
:101c8000090037000601be0007003700e00f5300cf
:101c9000e08f5b00fbff3a00adff3700020141001f
:101ca000838149000000e900471bde000700200097
:101cb000e00f5300e08f5b00f8ff32000000e0000f
:101cc0000a0034000600200007f82f00020143003c
:101cd00083814b00cf80de00c700dd0000002000c4
:101ce000020170008381700006003700610010005f
:101cf0000000e900030033008301d1000281d3001a
:101d0000fbff3700000020000100280085836000f1
:101d10000003780006017100878171000204be0093
:101d20000800be004f06be004f05be004f04be00b7
:101d30000080fa00000006000800fa000002be0061
:101d40008501780003f0a10000017800a6fd2000c5
:101d500097f42300860f5100878f590006003e003c
:101d6000f4ff2f00f5972300840f5100858f590051
:101d7000640036005d0037004f0ade0005002000d9
:101d8000163d2500b7072400860f5100878f5900a4
:101d900019003e0036be2c0067012400860f51005a
:101da000878f59000a003e000400e0000400320062
:101db000b2fd200093fc2300f2fa07004f00370029
:101dc000b2fd200093fc2300e5fa07004200370033
:101dd0000400e00004003200b2fd2000930424005f
:101de000e8fa070040003700b2fd20009304240009
:101df000dbfa07003c003700561d2300270e2400a5
:101e0000860f5100878f590019003e00f6dd2e0025
:101e1000f70a2400860f5100878f59000a003e0000
:101e20000400e0000400320042be2c0063092400dc
:101e3000d4fa07002800370042be2c0063092400b2
:101e4000c7fa07002d0037000400e000040032004c
:101e5000b2fd2000930c2400cafa070023003700cb
:101e6000b2fd2000930c2400bdfa07001f003700cc
:101e7000f4ff2f00f5f72700840f5100858f5900dc
:101e8000030036000001be00b5fa07001d00370050
:101e9000688157004b0007006011b80063016000c3
:101ea000e10f5100e08f590009003200e20f5100ac
:101eb000e08f59000a003200e00f5100e08f590016
:101ec0000c003a004fb89700dfb8970007003700c2
:101ed0004fb89700dfb897000c00070009003700e3
:101ee0004fb89700dfb8970001f0a20091000700fb
:101ef000040037004fb89700dfb8970003000700d1
:101f000001f0a2000080fa0000000600889fbe00d9
:101f10008a9fbe008c9fbe000001be005dfc0700d2
:101f20000004be000001be005afc07000005be0010
:101f30000200200003f02b000800be0055fc070043
:101f40000200200003f823008efa07000006be00fe
:101f5000f2a92a00a3d223000a00be004dfc07000c
:101f60000001be000c00be0086fa07000006be009d
:101f70000801be000a00be0046fc07000005be00c6
:101f800072a12900c37c23000800be0041fc0700a9
:101f9000f243200063ab230071fa07000001be008a
:101fa0000a00be003bfc07000001be000c00be00a2
:101fb00074fa07004f06be004f05be004f04be0076
:101fc00000000600ea874700889fbe008a9fbe0087
:101fd0008c9fbe008e1f78000006be0002047800b1
:101fe0000005be008b01780003f0a100000178001d
:101ff000a0fd200091dc2400800f5100818f59004a
:102000001e003e0032982f0023f223000c00be0079
:1020100020fc07000200200003b4240059fa070046
:102020000200200003b424004dfa07000005be00a2
:10203000f5f9070080047800a2fd200093fc23003e
:102040000a00be0013fc07000001be000c00be0029
:1020500043fa07000006be00325a280083282300f6
:102060000a00be000bfc07000001be000c00be0011
:102070003bfa0700008cbe0027003700f0ff2f005e
:10208000f1f72700800f5100818f590006003600bc
:102090000c01be000c00be0031fa0700008cbe002f
:1020a0008004eb001c0037004718de000100200010
:1020b0006009b1000180b100c702dd00040020000a
:1020c000040151008581590076875700029fbe00a8
:1020d0000002eb0013002000000178008e00780061
:1020e000768057004300070080047800e00f560018
:1020f000e08f5e0006003d001e0078009e0090000c
:1021000001f0a200008cbe008904ea000200370042
:102110003e1c78002e147800090078004f077800e4
:102120004f06be004f05be004f04be00af00b10019
:1021300000000600889fbe008a9fbe008c9fbe00e4
:102140000005be000001be00d2fb07000004be0077
:102150000a01be00cffb07000006be00428828002f
:1021600083c023000800be00cafb0700b2aa2a00f1
:10217000a3e22300faf907000001be000c00be0034
:10218000c4fb07000001be000a00be00fdf9070005
:102190000005be000801be000800be00bdfb070030
:1021a0000001be000c00be00bafb07000006be0026
:1021b000c2c32600636323000800be00b5fb07000e
:1021c000f27c200003952300e5f907000001be0022
:1021d0000c00be00affb07000001be000a00be00fd
:1021e000e8f907004f06be004f05be004f04be00d1
:1021f00000000600af17b000889fbe008a9fbe0097
:102200008c9fbe008e1f7800b0a79f0081af9f00fb
:102210000204780003057800f4a79f000400420040
:10222000e104210000804000100078006101b90045
:10223000b2af9f00c3af9f000a00e9006102b9007e
:1022400094af9f00a5af9f0063005400820120005f
:10225000110009000200d8006103b900d6a79f0051
:10226000e7a79f00e00f5300e08f5b0003003d00f5
:102270006000b800d0a79f00e1a79f005fa1970072
:10228000efa197000280ea008380ea00820120002b
:10229000030020002c040700cfc1de00000444002e
:1022a000818449005fa29700efa297001fab9700bf
:1022b000afab97000606520087865a003fa89700ea
:1022c000cfa897000002430081824b006eec2f00e4
:1022d0000f074700c265dd006005210080854500cd
:1022e0006011b8000803be000a04be000205be006b
:1022f000150037006000b800e00f5600e08f5e0068
:102300000b0035001900780099009000d4b79f00a9
:10231000e5b79f00f6b79f0087bf9f0076f90700db
:102320008fbb97007fb39700efb297005fb2970023
:1023300000afbe0061054500e0854d006106460026
:10234000e0864e00e4844400840f5500858f5d00d4
:10235000e8ff34000805780064f62f000f02420001
:102360006011b800b2b79f00c3b79f008406780021
:10237000210037003c007800bc007800e48555005f
:102380001b0178009b019000d4b79f00e5b79f0028
:10239000f6b79f0087bf9f003efb07000001be000d
:1023a0000800be0077f907000004be005fb2970086
:1023b000efb2970061024200e0824a008fbb9700b3
:1023c0007fb397001fa89700afa89700800f520017
:1023d000818f5a00e7ff340088aebe003fb19700fe
:1023e000cfb1970061014100e0814900b2b79f0081
:1023f000c3b79f000a05e8003fb29700cfb297002d
:102400003fa89700cfa89700800f5200818f5a00f5
:1024100008003c003fa69700c255dd00a1ec2f004c
:102420008f8040008b8540006044b8006022b80077
:10243000e4ff37003fa99700cfa99700b2b79f00ec
:10244000c3b79f0096b79f00a7b79f00bfb2970082
:102450004228dd00a6e72f000f03430000004300e1
:1024600000bc900090bc90006de72f008f86460066
:102470003fb09700cfb0970061005000e080580057
:10248000f0af9f0081b79f00c205dd00a1f62f00cd
:102490008f8040008b8540000d0578003fb397008a
:1024a000cfb397000d0778001b0037000200200013
:1024b000033823000800be00f6b79f0087bf9f00c7
:1024c000f4fa0700d0f807000bf907000006be0079
:1024d0000200200003b82400eefa07000001be004d
:1024e0000800be001ef90700c7f8070000adbe00d7
:1024f0009b0090001b007800e48555000c01be0095
:1025000020f907000004be007fb397008fbb97003f
:1025100061035300e0835b00e00f5300e08f5b003a
:10252000e2ff3c008e0678001fb697000c01780091
:102530000800be005a0307000004be00020020008d
:1025400003e02300d3fa0700f60207000200200090
:1025500003102400cffa07000001be000800be00ef
:10256000fff807000005be00a7f807000004be0042
:10257000e1f807000001be000a00be00f8f80700fd
:102580000005be001fb19700afb19700e00f5100ea
:10259000e08f590023003400ffa997004218dd00a6
:1025a000a4e72f000f024200000042001002780052
:1025b00090029000f80016000401be0001037800ac
:1025c0000603e900030033008381d1000281d300b8
:1025d000fbff370008044100898449008100e900bd
:1025e000030033000201410083814900fbff3700f3
:1025f0000201520083815a000288be007700160053
:102600000202be000000e900030033008582d10011
:102610000482d300fbff3700d4af9f00e5af9f00db
:102620001e0037001fb39700afb39700e00f5300b1
:10263000e08f5b000c003a00ffab97004238dd00f2
:10264000a1e72f008f8040000080400090009000a4
:10265000100078004789de00d2af9f00cf89de00ee
:10266000e3af9f000d0037000200200003f02300bd
:1026700063f807002400200005002000d4af9f006d
:10268000e5af9f000000e00009003d006033b800a6
:10269000d6af9f00e7af9f00660037005fa89700a6
:1026a000efa89700e00f5000e08f58006100340061
:1026b00061044400e0844c006000b8006022b8006f
:1026c00014003700e48646001d0178009d0190004b
:1026d000e00f5200e08f5a0006003a00e00f510070
:1026e000e08f59000900320004002000051020008e
:1026f00002003700f4ff2f00f50f2000821e520069
:1027000083965a001400200005002000610040005c
:10271000e08048003fb19700cfb19700820f500092
:10272000838f5800e7ff35001fb39700afb39700c2
:10273000e00f5300e08f5b0025003400e10f5300f1
:10274000e08f5b0004003200e20f5300e08f5b007b
:102750001f003a000f003700ffab97004238dd0042
:10276000a1e72f008f80400000804000100178001a
:102770009001900003037800f607b200a6a79f001f
:102780008203780097a79f001fa19700afa1970031
:102790000e003700ffa997004218dd00a6e72f00c2
:1027a0000f034300000043001001780090019000e7
:1027b00083037800f703b20087a79f0082007800a8
:1027c000f19f9f007f9997008fa197000288be001c
:1027d0005fab9700efab9700e20f5300e08f5b0019
:1027e00014003a000a01be000000200001f8230096
:1027f000d4b79f00e5b79f0059f807000005be0059
:102800005fb29700efb29700e00f5200e08f5a00de
:10281000080032000c0178000000200001f82300bd
:102820009f0207000001be000a00be004cf807002e
:102830000005be006011b8000a00be00eef70700f8
:102840000000e0008a003a003fb09700cfb0970048
:10285000ffab9700423add00a2e72f000f014100d5
:10286000040241006011b800050037009403900095
:102870001403780064025200060171008781710020
:1028800061005000e08058003fab9700cfab97004d
:10289000860f5000878f5800f4ff3d00e00f510075
:1028a000e08f590080003a0061005300e0805b0037
:1028b0004200dd00a7e72f008f8343000080430024
:1028c0001200200003002000f2af9f0083b79f009a
:1028d00012002000030020000200370061014100c7
:1028e000e0814900900290001002780064005000de
:1028f000e00f5200e08f5a00f8ff3200f2af9f0065
:1029000083b79f003fb39700cfb3970061024300a6
:10291000e0824b004226dd00a7f62f008f834300a4
:102920000c8643005fa19700efa197006100410072
:10293000e08049003fb39700cfb397000000430009
:1029400081804b00c204dd006005210080844400ca
:102950001fa99700afa9970061004100e0804900de
:102960000000430081804b004201dd00a3ec2f00fa
:102970008f81410082814100c3a79f000004e800cd
:1029800009077800880678000404be002c00370090
:102990003e007800be007800d7f707004fa29700ee
:1029a000009abe00c4a79f003fa29700c26add0044
:1029b000a6ec2f000f034300850243006033b800ec
:1029c0006055b800d89f9f00e99f9f000404be0097
:1029d0001000370038007800b8007800e484540014
:1029e0001901780099019000f6b79f0087bf9f00fa
:1029f000a8f907000001be000a00be00e1f70700c9
:102a00000005be007fb397008fbb970061034300b2
:102a1000e0834b001fa99700afa99700820f5300d6
:102a2000838f5b00ebff34005f9c9700ef9c970067
:102a30000a9ebe0061044400e0844c008d06e8005c
:102a40007faa97008fb297003fb39700cfb397004c
:102a50000400430085804b00800f5400818f5c0090
:102a6000cbff3400b0b79f00c1b79f0077fe37009f
:102a700098af9f00a9af9f001fb49700afb4970015
:102a80000c01ea000a00be00050207000005be00b6
:102a90000200200003b8240059f707000000e000fe
:102aa00022003d004500370098af9f00a9af9f006e
:102ab0001fb49700afb497003fb09700cfb0970016
:102ac00061005000e0805800b0b79f00c1b79f0080
:102ad00078045400e0845c00bfb097004208dd0039
:102ae000a2e72f000f014100000041003fb1970015
:102af000cfb197000400370061015100e081590017
:102b000078045400e0845c00900290001002780089
:102b100064005000e00f5200e08f5a00f6ff3200d0
:102b2000b2b79f00c3b79f002c00370002002000ff
:102b3000033823000a00be0056f9070032f70700e9
:102b40006df707000006be00bfb29700422fdd0000
:102b5000a6e72f000f0343000e07430002002000ea
:102b600003b824004bf907000001be000a00be00b4
:102b70007bf7070024f70700008fbe003fb09700e7
:102b8000cfb0970061004000e0804800b0b79f00e0
:102b9000c1b79f0078044400e0844c004205dd008a
:102ba000a1e72f008f8040000a8540000c00be0086
:102bb00015f70700008dbe00080037003fb19700f1
:102bc0004216dd00a3e72f008f8141000c864100f3
:102bd0000a00be000cf70700008ebe000801780056
:102be0000000200001f82300ad0107000004be0032
:102bf0003fb29700f4af9f008402e80095b79f00b2
:102c0000c22ddd00a6e72f000f0343000b05430094
:102c1000a7f62f008f8343008b8543003fb69700b4
:102c2000cfb697000f003700640555001a007800f2
:102c30009a00900030f707000001be000800be00b7
:102c400014f9070080a5be0002002000033823000d
:102c50000800be000ff907000004be006106560020
:102c6000e0865e00e00f5600e08f5e00eeff3d0064
:102c70006df12f008f8646003fb59700cfb59700c6
:102c800020003700640646001c0178009c0190007b
:102c9000640747001e0078009e009000d4b79f0094
:102ca000e5b79f00fbf807000001be000800be006a
:102cb00034f707000004be0061054500e0854d00c3
:102cc000efb297005fb297003fa89700cfa8970098
:102cd000800f5500818f5d0007003c003fb19700d9
:102ce000cfb197000400510085805900800f550036
:102cf000818f5d00e3ff340088aebe0061055200a5
:102d0000e0855a00e00f5500e08f5d000b003500b4
:102d1000ae1521000a06e9004266dd00a3f62f0089
:102d20008f8141000c8641006044b8006000b8000b
:102d30000a02be000005be00e3ff37007fa2970035
:102d4000e20f520005003c00e10f520010003d0070
:102d50000400e00017003200ea003700ffa29700ed
:102d6000e38f5200e7003a003fb397004232dd00a4
:102d7000a7f12f008f8343000482430004077800eb
:102d80003fb39700cfb39700b4af9f007a003700ee
:102d90001fb097004205dd00a1f12f008f80400099
:102da0000a8540003fb49700cfb497006000b80098
:102db000210037001fb197004214dd00a3f12f005e
:102dc0008f814100088441003fb59700cfb597003f
:102dd0006000b80006003700640454001801780051
:102de00098019000e7f6070061055500e0855d0059
:102df000e00f5500e08f5d00f7ff3d005faa9700f0
:102e0000efaa9700e00f5200e08f5a000100320055
:102e100001f0a2008faa9700808abe00b900370097
:102e2000640555001a0178009a019000d5f6070054
:102e300061045400e0845c00e00f5400e08f5c000b
:102e4000f7ff3d000001be005fab9700efab9700be
:102e5000e00f5300e08f5b000100320001f0a200a0
:102e60008fab9700808bbe005f089700ef0897003c
:102e7000bbf60700aaf12f000f054500180020003f
:102e80000900200006003700640545001a0178009b
:102e90009a019000bbf6070061044400e0844c00f6
:102ea0003fb19700cfb19700820f5400838f5c0031
:102eb000f5ff34008fa99700648141005faa970055
:102ec000efaa9700e00f5200e08f5a000100320095
:102ed00001f0a2000089be008a003700c0ff2f0069
:102ee000ffaa970080a8b900000047003fb29700f2
:102ef000cfb2970061015200e0815a004211dd001b
:102f000082024000e4824200150678009506900097
:102f10000e027800640242001405780094059000c7
:102f20000a01be000c00be00d4b79f00e5b79f00a9
:102f3000f6b79f0087bf9f0092f607000004be000f
:102f40000001be000c00be0085f607000001be00b7
:102f50000a00be008bf607005fb29700008abe0031
:102f6000efb29700888abe007fb397008fbb9700af
:102f700061035300e0835b0064075700e00f5300d8
:102f8000e08f5b00d5ff3c003faa97003fb397005e
:102f9000cfb397000404780027003700c0ff2f004c
:102fa000ffaa970080a8b900000044003fb2970034
:102fb000cfb2970061015200e0815a00c214dd00d7
:102fc00089044000e48444001902780099029000ca
:102fd00008077800640747001e0678009e069000e8
:102fe0000c01be000400be00d4b79f00e5b79f00ef
:102ff000f6b79f0087bf9f0062f607000005be007e
:103000000001be005fb29700efb297000400be005f
:1030100053f607000001be000c00be0059f6070081
:10302000008fbe008a8cbe007fb397008fbb9700d5
:1030300061035300e0835b0064045400e10f53001c
:10304000e08f5b00d5ff3c009fb29700422cdd0073
:10305000a6f12f000f034300080443003fb597007b
:10306000cfb597006000b800060037006404540034
:10307000180178009801900042f60700610555009c
:10308000e0855d00e10f5500e08f5d00f7ff3c003b
:103090005fa99700efa99700e00f5100e08f59005a
:1030a0000b003a000fa997005f0a9700ef0a9700fc
:1030b0000499be007f0b97008f1397000689be000e
:1030c0008fab9700c0039800d10398000d00370024
:1030d0005f0a9700ef0a970005f0a2000fa997007a
:1030e0000499be007f0a97008f12970005f0a20096
:1030f0000489be0001f0a2000fa9970040019800ca
:10310000510198009fa99700678061004f077800e0
:103110004f06be004f05be004f04be00af17b10002
:10312000000006000c00fa00889fbe008a9fbe00c7
:103130008c1f78000004be006000b8006011b80069
:10314000f0b79f0081bf9f0092bf9f00a3bf9f0069
:10315000f8b79f0089bf9f007fb297008fba970092
:103160001fbb9700afbb9700443ade00f07f200002
:103170000006620020432000800f560042003c0001
:103180006011b8000800be009bf507000000e000d9
:103190003d0032007fb097008fb897001fb99700ad
:1031a000afb99700e00f5000e08f5800e00f5900d2
:1031b000e08f590008003d000200200003b0240009
:1031c0000800be00e6f507000200200003b024005e
:1031d000ecf50700070037000200200003b02400d0
:1031e0000800be00e7f507000200200003b024003d
:1031f000dbf507000801be00d9f507000005be0099
:10320000e03f2000800f56000f003c00dab79f001f
:10321000ebb79f006044b8007fb097008fb897006d
:103220001fb99700afb99700e00f5000e08f58002a
:10323000e00f5900e08f590013003d000800200006
:1032400009f82b00100037006011b8000a00be001a
:103250006bf507000000e000070034000a01be0023
:103260000800be00c7f507000200200003f8230095
:10327000bbf50700030037000a01be000800be00ce
:10328000c0f507000004be000800be004f0678002d
:103290004f05be004f04be000080fa00000006008b
:1032a000889fbe008a9fbe0002047800f93f20007c
:1032b000890f54000d0034000200200003f827009d
:1032c00074f70700f83fb100890f5400150034006f
:1032d0000200200003f827006ef70700f83fb10056
:1032e000890f54000e003c000e00370029c02f004b
:1032f000890f54000b003d006011b80065f707000e
:10330000983cb000890f540006003d006011b800e1
:1033100060f70700983cb000890f540001003d00a1
:1033200009047800f83fb000cfc4de00614db90059
:103330006044b8000801be0056f707004f05be0004
:103340004f04be0000000600020ab900001bb900cd
:103350000200b80081004200810043000000060026
:020000040000fa
:103360000a00fa00980e0700d30d07009b0907001a
:10337000b3090700bd090700850d0700c10b070051
:10338000570e07006a08070072080700c20d070001
:10339000e14f5000c6003a00c30d0700ba0d070008
:1033a000800078000e80e800010878000e80e800b8
:1033b000100078000080e800100078008000eb002a
:1033c00050f50700323323003305240031f707009e
:1033d00002002000035824004ff60700d2cc2c0036
:1033e000c30424002bf70700640147000089be00d6
:1033f0006400470010017800900190000000200058
:103400008120240044f6070002002000030a240063
:1034100053f5070080948800919488008094800080
:103420009194800019f5070080407800b044210095
:10343000014878000e80e800100078006400400029
:10344000100078008000eb002ef5070032332300d7
:10345000330524000ff70700020020000358240062
:103460002df60700d2cc2c00c304240009f7070076
:10347000640147000089be00640047001001780025
:1034800090019000000020008120240022f6070017
:1034900002002000030a240031f50700a0948800f0
:1034a000b1948800a0948000b1948000f7f40700e4
:1034b00080407800a0442100014878000e80e80098
:1034c0001000780068004000100078008000eb00d9
:1034d0000cf507003233230033052400edf6070016
:1034e00002002000035824000bf60700d2cc2c0069
:1034f000c3042400e7f60700640147000089be000a
:103500006400470010017800900190000000200046
:103510008120240000f6070002002000030a240096
:103520000ff50700c0948800d1948800c0948000f3
:10353000d1948000d5f407008040780090442100a9
:10354000014878000e80e800100078001000780034
:103550008000eb00ebf40700323323003305240036
:10356000ccf607000200200003582400eaf507000b
:10357000d2cc2c00c3042400c6f607006401470027
:103580000089be006400470010017800900190009f
:103590000000200081202400dff507000200200049
:1035a000030a2400eef40700e0948800f1948800f8
:1035b000e0948000f1948000b4f40700804078002b
:1035c000c0442100014878000e80e8001000780017
:1035d00066004000100078008000eb00c9f407008e
:1035e0003233230033052400aaf60700020020002e
:1035f00003582400c8f50700d2cc2c00c3042400d3
:10360000a4f60700640147000089be00640047007b
:10361000100178009001900000002000812024001b
:10362000bdf5070002002000030a2400ccf40700c7
:103630000095880011958800009580001195800004
:1036400092f407008040780080442100014878000f
:10365000824421005100200000032000980307004d
:1036600090818000a181800088f40700804078006c
:10367000d044210001487800d244210021002000dc
:10368000000420008e03070070818000818180008b
:103690007ef4070080407800e04421000148780073
:1036a000d2442100210020000004200084030700f0
:1036b0000000eb00000f780007003700560d0700f0
:1036c000e800470080487800680047001040780014
:1036d000e80307001e0fe800690d07009e0f500069
:1036e000f6ff3c000071220001002000e10d070000
:1036f00026ff37000000fa0020d0bf000080fb004a
:10370000cf80de00f200200003002000820f500076
:10371000838f580073003e00000601000f00370041
:1037200018003700210037002b0037002c0037002d
:1037300036003700370037004100370042003700bd
:103740004c0037004d003700570037006500370048
:103750006400370056003700600037003a30ef0051
:103760003c30ef000041eb006000b800220b070086
:1037700012c0b3006000b8001f0b070010c0b300f8
:1037800020f0b700d2818000e3818000803e2000dd
:1037900001002000800f5100818f59005400360035
:1037a00020c0b30020f0b7005200370070818000c5
:1037b000818180000041eb000f0b070090818000a9
:1037c000a181800012c0b3000b0b070030c0b30012
:1037d00020f0b700470037004800070045003700d9
:1037e00070818000818180000041eb00020b0700a6
:1037f00090818000a181800012c0b300fe0a070002
:1038000050c0b30020f0b7003a0037003b0007007b
:103810003800370070818000818180000041eb001a
:10382000f50a070090818000a181800012c0b300da
:10383000f10a070070c0b30020f0b7002d00370078
:103840002e0007002b0037007081800081818000ee
:103850000041eb00e80a070090818000a181800010
:1038600012c0b300e40a070090c0b30020f0b70014
:1038700020003700210007001e0037007081800003
:10388000818180000041eb00db0a0700908180000d
:10389000a181800012c0b300d70a0700b0c0b300f6
:1038a00020f0b700130037001400070011003700a4
:1038b00070818000818180000041eb00ce0a07000a
:1038c00090818000a181800012c0b300ca0a070065
:1038d000f0c0b30020f0b700060037000700070073
:1038e000040037002070ef000000000001003700e6
:1038f000000000000080fa00000006000200fa004c
:10390000881f7800e09980000000e000b5023a00ce
:103910000040eb00004f780080948000919480007c
:1039200018c0b30002002000031a2400b2f30700fd
:103930000000e000010035000044eb000804e00056
:1039400016003200a0948000b194800018c0b3002b
:1039500002002000031f2400a9f307000000e0007c
:1039600001003d000044eb000804e0000b003200c1
:10397000c0948000d194800018c0b30002002000e1
:10398000031a24009cf307000000e000010035004a
:103990000044eb000804e00021003a00e0948000bd
:1039a000f194800018c0b30002002000031a240024
:1039b00091f307000000e000010035000044eb0037
:1039c0000804e00019003200a0948000b194800047
:1039d00018c0b30002002000031f240088f3070072
:1039e0000000e00001003d000044eb000804e0009e
:1039f0000e003200009580001195800018c0b300c1
:103a000002002000031a24007bf307000000e000fe
:103a1000010035000044eb000804e0000300320020
:103a200030c0b300004f7800bd01370080948000a3
:103a30009194800018c0b30002002000831c240071
:103a40006df307000000e000010035000044eb00ca
:103a50000804e0002f003200a0948000b1948000a0
:103a600018c0b30002002000031f240064f3070005
:103a70000000e00001003d000044eb000804e0000d
:103a800024003200c0948000d194800018c0b3009c
:103a900002002000831c240057f307000000e00010
:103aa000010035000044eb000804e000190032007a
:103ab000e0948000f194800018c0b3000200200060
:103ac000031a24004cf307000000e0000100350059
:103ad0000044eb000804e0000e0032000095800076
:103ae0001195800018c0b30002002000031a2400c2
:103af00041f307000000e000010035000044eb0046
:103b00000804e000030032000040eb00004f7800a2
:103b100083013700a0948000b194800018c0b300e6
:103b200002002000031f240035f307000000e0001e
:103b300001003d000044eb000804e0001c003200de
:103b4000e0948000f194800018c0b30002002000cf
:103b5000831c240028f307000000e000010035006a
:103b60000044eb000804e0001100320000958000e2
:103b70001195800018c0b30002002000831c2400af
:103b80001ff307000000e00001003c000044eb00d0
:103b90000804e00006003200108180000000e80008
:103ba0001081880040c0b300004f78005c013700ee
:103bb000a0948000b194800018c0b30002002000df
:103bc000031f24000ef307000000e00001003d0089
:103bd0000044eb000804e0001c003200e094800088
:103be000f194800018c0b30002002000831c240060
:103bf00003f307000000e00001003c000044eb007c
:103c00000804e0001100320000958000119580004a
:103c100018c0b30002002000831c2400f6f2070045
:103c20000000e000010035000044eb000804e00063
:103c300006003200108180000000e800108188003a
:103c400050c0b300004f78003501370080948000e9
:103c50009194800018c0b30002002000831c24004f
:103c6000e7f207000000e00001003d000044eb0027
:103c70000804e0001c003200a0948000b194800091
:103c800018c0b30002002000031f2400dcf207006c
:103c90000000e00001003d000044eb000804e000eb
:103ca00011003200c0948000d194800018c0b3008d
:103cb00002002000831c2400cff207000000e00077
:103cc000010035000044eb000804e000060032006b
:103cd000108180000000e8001081880010c0b3004f
:103ce000004f78000e01370080948000919480008e
:103cf00018c0b30002002000831c2400bef207009d
:103d00000000e000010035000044eb000804e00082
:103d10001c003200a0948000b194800018c0b30051
:103d200002002000031f2400b5f207000000e0009d
:103d300001003d000044eb000804e00011003200e7
:103d4000c0948000d194800018c0b300020020000d
:103d5000831c2400aaf207000000e00001003d00df
:103d60000044eb000804e0000600320010818000ef
:103d70000000e8001081880020c0b300004f7800e8
:103d8000e7003700809480009194800018c0b30051
:103d900002002000831c240097f207000000e000ce
:103da000010035000044eb000804e0001c00320074
:103db000a0948000b194800018c0b30002002000dd
:103dc000031f24008cf207000000e0000100350012
:103dd0000044eb000804e00011003200e49480008d
:103de000f5948000009580001195800018c0b30004
:103df0000001be000400be007ff207000000e000ea
:103e0000010035000044eb000804e000040032002b
:103e10002230ef0070c0b300004f7800c0003700c0
:103e2000c0948000d194800018c0b300020020002c
:103e3000831c240070f207000000e0000100350040
:103e40000044eb000804e0001c003200a094800055
:103e5000b194800018c0b30002002000031f2400aa
:103e600065f207000000e000010035000044eb00af
:103e70000804e00011003200e4948000f594800012
:103e8000009580001195800018c0b3000001be00ad
:103e90000400be005af207000000e00001003c00f0
:103ea0000044eb000804e000040032002230ef0080
:103eb00080c0b300004f780099003700a0948000c4
:103ec000b194800018c0b30002002000031f24003a
:103ed0004bf207000000e00001003d000044eb0051
:103ee0000804e0001a003200e0948000f1948000a1
:103ef00018c0b30002002000031a240040f207009b
:103f00000000e00001003d000044eb000804e00078
:103f10000f003200009580001195800018c0b3009a
:103f200002002000031a240035f207000000e00020
:103f300001003d000044eb000804e00004003200f2
:103f40002230ef000040eb00004f78007400370093
:103f5000809480009194800018c0b300020020007b
:103f6000031f240024f207000000e00001003500d8
:103f70000044eb000804e0001c003200a094800024
:103f8000b194800018c0b30002002000031f240079
:103f90001bf207000000e00001003c000044eb00c1
:103fa0000804e000110032008494800095948000a1
:103fb000c0948000d194800018c0b3000001be00fe
:103fc0000400be000cf207000000e0000100350014
:103fd0000044eb000804e000040032002230ef004f
:103fe00020c0b300004f78004d003700a09480003f
:103ff000b194800018c0b30002002000031f240009
:10400000fff107000000e00001003c000044eb006d
:104010000804e0000f003200c0948000d1948000ba
:1040200018c0b30002002000031f2400f2f10700b3
:104030000000e000010035000044eb000804e0004f
:10404000040032002230ef0010c0b300004f7800af
:1040500033003700a0948000b194800018c0b300f2
:1040600002002000031f2400e3f107000000e0002d
:10407000010035000044eb000804e00004003200b9
:104080002230ef0030c0b300004f7800240037002a
:10409000809480009194800018c0b300020020003a
:1040a000831c2400d6f107000000e00001003c0062
:1040b0000044eb000804e00019003200a0948000e6
:1040c000b194800018c0b30002002000831c2400bb
:1040d000cbf107000000e00001003d000044eb00d0
:1040e0000804e0000e003200c0948000d1948000eb
:1040f00018c0b30002002000831c2400c0f1070098
:104100000000e00001003d000044eb000804e00076
:10411000030032002230ef000040eb00004f780037
:1041200011818000803e2000808f500021003400eb
:104130008494800095948000c0948000d194800085
:1041400018c0b3000001be000400be00acf10700bf
:104150000000e00001003c000044eb000804e00027
:104160000400320080c0b300004f78002230ef001e
:10417000100037008494800095948000c0948000e3
:10418000d194800018c0b3000001be000400be003e
:1041900099f107000000e000010035000044eb0049
:1041a0000804e0000300320070c0b300004f780044
:1041b0002230ef001e4078000004e0001f003a00ab
:1041c00020c0b30021f0b700a0948000b19480001b
:1041d00018c0b300020020000322240088f1070069
:1041e0000000e00001003c000044eb000804e00097
:1041f0000900320000002000811c2400708188002a
:104200008181880000002000811c240090818800aa
:10421000a18188006a00370000002000011a2400f4
:10422000708188008181880000002000011a24002c
:1042300090818800a1818800610037001e407800cd
:10424000e24f50000b003a0040c0b30021f0b7002d
:104250000000200001122400708188008181880004
:1042600000002000010a240090818800a1818800bc
:10427000530037001e407800e14f50000b003a0019
:1042800060c0b30021f0b70000002000010a240044
:1042900070818800818188000000200001122400c4
:1042a00090818800a1818800450037001e40780079
:1042b000e34f50000b003a0080c0b30021f0b7007c
:1042c000000020000117240070818800818188008f
:1042d0000000200001172c0090818800a181880037
:1042e000370037001e407800e54f50000b003a00c1
:1042f00060c0b30021f0b70000002000010a2400d4
:10430000708188008181880000002000011724004e
:1043100090818800a1818800290037001e40780024
:10432000e44f50000b003a0040c0b30021f0b7004a
:10433000000020000117240070818800818188001e
:1043400000002000010a240090818800a1818800db
:104350001b0037001e407800e74f50000b003a006a
:1043600080c0b30021f0b700000020000117240036
:1043700070818800818188000000200001172c00d6
:1043800090818800a18188000d0037001e407800d0
:10439000e84f50000a003a00a0c0b30021f0b70077
:1043a0000000200001172c007081880081818800a6
:1043b000000020000117240090818800a18188005e
:1043c00021d0bf008080fb0020d0bf000080fb0018
:1043d0000000e900808f50000200320021d0bf00b1
:1043e00020f0b7004f0478000080fa0000000600bb
:1043f0000a00fa00e40147008009780066004700df
:104400000108780068004700020878000000eb000f
:10441000000f7800e00f20001e0f680064004700c6
:10442000100078004880de001e0f6800640047001e
:10443000100078001e0f680066004700100078002a
:104440004880de001e0f68006600470010007800fc
:104450001e0f68008000eb000e80e8000108780065
:104460000d0037000e80e8009000780068004700db
:104470001000780001004000104078000080fb0030
:104480001e0f68000e80e800100078008000e80031
:104490000e80e800010878000e80e80090007800a7
:1044a0006600470010007800808f5000edff350057
:1044b0001e007800004078000080fa00000006002e
:1044c0000c00fa00889fbe008a9fbe00e6014700ec
:1044d0008009780068004700010878006a004700fa
:1044e000020878008f0478000f007800000578003b
:1044f0006800470010007800660440008800e9006a
:104500000e80e80001087800080078000000e8004c
:104510000000e8000000d100800040000f0078009b
:10452000818747000000e8000000d1000000400043
:10453000e40047008008780064004700900078009d
:10454000e0cfb30080487800660047001000780094
:104550004880de008040780064004700100078004a
:104560000000e8000148780066004700100078006d
:104570008040780064004700100078000080e80068
:104580000148780068004700100078004880de008d
:10459000804078006400470010007800630040000d
:1045a00001487800680047001000780080407800db
:1045b0006400470010007800640040000148780063
:1045c0000000eb00000f78000000eb00000f780007
:1045d0000c0037009e007800658040001e017800c6
:1045e000ea00470091007800828040009140780006
:1045f0006401470012017800000041000148780082
:104600001e0fe80068004700100078009e00780048
:10461000808f5000efff35009e007800e585400058
:104620006a00470010017800680047009000780099
:1046300066004700100078006dff0700e4004700a7
:10464000910078008b80400080487800640047002b
:104650001000780088007800620807008a07780058
:10466000890778004f05be004f04be000080fa00a5
:10467000000006000200fa00004f78005081800020
:10468000e30f500023003200e30f500007003c000e
:10469000e10f500012003200e10f500016003c0004
:1046a0000000e0000800320054003700e50f500021
:1046b00025003200e50f50001c003500e60f5000c9
:1046c0003a0032004d0037001e407800e24f4000b3
:1046d0004d003a0010002000508188004f00370044
:1046e0001e80fb004800dd002081880020002000a3
:1046f00050818800490037001e80fb002181800026
:104700000100400020818800300020005081880096
:10471000420037001e80fb004800dd003081880029
:1047200040002000508188003c0037001e80fb00c4
:10473000318180000100400030818800500020005d
:104740005081880035003700318180000040200012
:10475000808f5000020034002a30ef002f00370015
:104760004181800030818000808f500028003d0012
:1047700041818000e03b2100010040001e4878009c
:10478000408180000000e800408188004181800075
:1047900030818000808f50001f003a002830ef00e9
:1047a00060002000508188001c00370031818000ab
:1047b00020818000e23b21000dff07002cf0b700b4
:1047c0002cd0bf009e4f500005003a003181800080
:1047d00020818000e23b2100120007000500370025
:1047e00030818000e23b2100800078003001200011
:1047f0000c0007002a30ef00080037002a30ef00d5
:104800000000000005003700000000000300370032
:104810000000000001003700000000000080fa00e6
:10482000000006003c00fa00889fbe0063032000e1
:104830008e81410080097800800320000e00400036
:1048400001087800a00320000e0040000208780054
:104850000f0478000f0078008004780080032000a7
:104860000e004000100078000001e9008e80e80092
:1048700082087800000040000000e8000000e80026
:104880000000d100800040000f00780081874700c1
:104890000000e8000000d10000004000e4004700f4
:1048a00080087800600320000e00400010007800af
:1048b00011072000810f5000ad00320011072000c9
:1048c000810f500007003c0001022000810f5000c2
:1048d0000e00320001072000810f500061003200fd
:1048e0000e01370001092000810f5000f400320052
:1048f00011092000810f5000f9003200010820004a
:10490000810f5000e7003200040137000000eb0087
:10491000000f78000e0037009e007800a0032000f2
:104920000e004000100078000100400010407800a8
:104930008080fb0064004700100178001e007800b2
:104940000000400000004100010878001e0fe80050
:10495000800320000e004000100078009e007800c8
:10496000808f5000ecff3500640047001000780095
:1049700010007800e10f500010003a00640047007a
:10498000100078000080e800100078000000e000cf
:1049900002003a00254ea900e000370064004700fd
:1049a000100078000080e80010007800e10f50004f
:1049b000d3003a00254ea800d80037006400470015
:1049c0001000780010007800e20f500010003a004c
:1049d00064004700100078000080e80010007800b4
:1049e0000000e00002003a0064eea900cb003700ae
:1049f00064004700100078000080e8001000780094
:104a0000e10f5000c0003a0064eea800c300370078
:104a1000640047001000780010007800e30f500099
:104a2000bb003a0064004700100078000080e800f6
:104a3000100078000000e00002003a0064cea900f7
:104a4000b600370064004700100078000080e800de
:104a500010007800e10f5000af003a0064cea800cb
:104a6000ae0037008000eb00a00320000e004000e5
:104a70001000780083050700660147000089be002a
:104a800041002000a00320000e004000100078002c
:104a90007c0507006a0147000089be0081002000f4
:104aa000a00320000e0040001000780075050700ec
:104ab0006e0147000089be00c1002000a003200055
:104ac0000e004000100078006e05070072014700dc
:104ad0000089be0001012000a00320000e0040005c
:104ae0001000780067050700760147000089be00c6
:104af00041012000a00320000e00400010007800bb
:104b0000600507007a0147000089be007a0047006f
:104b10009000900010007800809fbe007600470053
:104b20009000900010007800809fbe007200470047
:104b30009000900010007800809fbe006e0047003b
:104b400010037800900390006a004700100278007c
:104b500090029000660047001001780090019000dc
:104b6000c02d210072000700ec8757006b00370052
:104b70008000eb00a00320000e0040001000780031
:104b8000400507007e0147000089be00410020006b
:104b9000a00320000e004000100078003905070037
:104ba000220220000e0141000089be008100200089
:104bb000a00320000e00400010007800310507001f
:104bc000620220000e0141000089be00c1002000e9
:104bd000a00320000e004000100078002905070007
:104be000a20220000e0141000089be000101200048
:104bf000a00320000e0040001000780021050700ef
:104c0000e20220000e0141000089be0041012000a7
:104c1000a00320000e0040001000780019050700d6
:104c2000220320000e0141000089be002003200065
:104c30000e0040009000900010007800809fbe00a1
:104c4000e00220000e00400090009000100078006c
:104c5000809fbe00a00220000e0040009000900047
:104c600010007800809fbe00600220000e0040000f
:104c70001003780090039000200220000e004000f6
:104c800010027800900290007e004700100178002a
:104c900090019000c030210025000700ec875700ec
:104ca0001e003700a00320000e0040001000780016
:104cb000104078000080fb00e09988001700370062
:104cc0008000eb00a00320000e00400010007800e0
:104cd000ec040700a0968800b19688000f0037000a
:104ce0008000eb00a00320000e00400010007800c0
:104cf000e4040700c0968800d196880007003700ba
:104d0000000000000500370000000000030037002d
:104d10000000000001003700000000008907780053
:104d2000880778004f04be000080fa0000000600eb
:104d30000e00fa00000f78000e80e8000288be0026
:104d4000660047000488be006a0047000688be006f
:104d50009e0078000e80e800b0187800a01078005f
:104d60001e0078006c004000ea00570031187800ff
:104d7000211078001e00780064004000e600470023
:104d800031187800211078001e0078007000400073
:104d9000ee00570031187800211078001e007800ce
:104da00068004000ea0047003118780021107800c0
:104db0001e00780074004000f2005700311878009f
:104dc000211078000080fa00000006001200fa00ae
:104dd000889fbe00ec004700800878006e00470006
:104de0000288be006c004700100078000002b0008e
:104df000ee00470031187800211078006c00470061
:104e0000100078006c0040001002780090029000c2
:104e10006c004700100078009000900010007800af
:104e20000001be000400be00bbef07000004be008e
:104e30006c004700100078006c004000900090006b
:104e4000100078000002be0005f0a2006c004700d0
:104e50001000780090009000100078000001be0063
:104e60000400be00acef07000802be000001be0057
:104e70006e00470090009000100078003804070092
:104e8000008fbe006c00470010007800900090007a
:104e9000100078001e0178009e0190007df0070050
:104ea0006c014700120178004202b0000089be0088
:104eb0006c00470010007800780040001004780073
:104ec000900490006e00470002002000a3372400e9
:104ed00090009000100078008fef07000001be00e6
:104ee0000800be00a7ee07006c0147001201780021
:104ef000780141000089be006c0047001000780076
:104f00007000400010027800900290006c00470092
:104f100010007800640040009000900010007800bd
:104f20000001be000400be007bef07000004be00cd
:104f30006c00470010007800700040009000900066
:104f4000100078000002be0005f0a2006c004700cf
:104f5000100078006400400090009000100078007d
:104f60000001be000400be006bef07000802be0097
:104f70000001be006e004700900090001000780015
:104f8000f70307006c014700120178007801410027
:104f90000089be006c0047001000780078004000d7
:104fa00010027800900290006c004700100078001a
:104fb0006400400090009000100078000001be00e6
:104fc0000400be0033f007006c01470012017800b6
:104fd0008202b0000089be006c004700100078001b
:104fe0007c00400090009000100078006e024700a6
:104ff0000001be00140078009400900058ee0700f5
:1050000002002000a337240022f0070064014700bb
:105010000089be006c00470010007800740040005a
:1050200010027800900290006c0047001000780099
:105030006800400090009000100078000001be0061
:105040000400be0034ef07000004be006c004700ff
:10505000100078007400400090009000100078006c
:105060000002be0005f0a2006c00470010007800ae
:105070006800400090009000100078000001be0021
:105080000400be0024ef07000802be000001be00bd
:10509000640047009000900010007800b003070003
:1050a000680147000089be006c00470010007800ce
:1050b0007c004000ee004700311878002110780095
:1050c0006c004700100078006800400090009000dd
:1050d00010007800680147009201900012017800ea
:1050e000ecef07006c01470012017800c202b0002b
:1050f0000089be006c004700100078004002b0003c
:1051000010027800900290006c00470010007800b8
:105110008002b00090009000100078000001be00f6
:105120000400be0017ee07000002be006c0047003e
:1051300010007800c002b0009000900010007800cd
:105140000001be000400be000eee07004f04be00ca
:105150000080fa00000006000000fa00a49680001b
:10516000b596800060958000719580000001be00ba
:105170000400be00faed0700e0978800f197880070
:10518000c4968000d596800080958000919580001f
:105190000001be000400be00f1ed07006099880028
:1051a00071998800e0978000f19780000001be00af
:1051b000c02d210005ff07006096880071968800c9
:1051c00060998000719980000001be00c03021000c
:1051d000fefe0700809688009196880080968000e9
:1051e0009196800064968000759680000001be0054
:1051f0000400be00b40407000080fa0000000600ae
:105200006000fa00e0968000f19680000001be0088
:105210008000eb000e007800bc03070000978000c0
:10522000119780000001be00410020000e007800b0
:10523000b603070020978000319780000001be0070
:10524000810020000e007800b00307004097800026
:10525000519780000001be00c10020000e007800c0
:10526000aa03070060978000719780000001be00cc
:10527000010120000e007800a40307008097800041
:10528000919780000001be00410120000e007800cf
:105290009e0307000e017800810120000007200016
:1052a00087fc0700609880007198800078024700b2
:1052b0000001be008000eb000400780093030700ab
:1052c0008098800091988000780247000001be001d
:1052d00041002000040078008c030700a0988000a3
:1052e000b1988000780247000001be0081002000d4
:1052f0000400780085030700c0988000d1988000e2
:10530000780247000001be00c100200004007800c0
:105310007e030700e0988000f19880007802470043
:105320000001be000101200004007800770307009f
:105330000099800011998000780247000001be00aa
:105340004101200004007800700307007800470046
:1053500000017800810120001007200058fc0700a0
:105360000098800011988000040320000e02420083
:105370000001be008000eb0004007800630307001a
:105380002098800031988000040320000e02420023
:105390000001be0041002000040078005b0307000c
:1053a0004098800051988000040320000e024200c3
:1053b0000001be00810020000400780053030700b4
:1053c0008099800091998000040320000e02420021
:1053d0000001be00c1002000040078004b0307005c
:1053e000a0998000b1998000040320000e024200c1
:1053f0000001be0001012000040078004303070003
:10540000c0998000d1998000040320000e02420060
:105410000001be0041012000040078003b030700aa
:10542000e0978000f1978000040320000e02420004
:105430000001be0081012000040078003303070052
:105440006099800071998000040320000e024200e0
:105450000001be00c1012000040078002b030700fa
:10546000000320000e00400000017800010220002f
:105470002007200012fc0700a0968000b196800053
:10548000040520000e0242000001be008000eb0077
:10549000040078001d030700c0968000d1968000ac
:1054a000040520000e0242000001be004100200061
:1054b0000400780015030700000520000e004000de
:1054c000000178008100200000092000fcfb07009b
:1054d0006096800071968000840520000e024200d4
:1054e0000001be008000eb00040078000703070005
:1054f0008096800091968000840520000e02420074
:105500000001be004100200004007800ff020700f7
:10551000800520000e00400000017800810020007e
:1055200010092000e6fb07000080fa0000000600da
:105530000000fa00c301a8000080eb00e00e880024
:105540000080eb00f00e8800c1e1a8000080fa00a6
:10555000000006000000fa00c305a8000080eb0070
:10556000e02e88000080eb00f02e8800c1e5a80046
:105570000080fa00000006000800fa00889fbe00c4
:105580008a9fbe008c9fbe004080800051808000ba
:105590000080880011808800608080007180800019
:1055a0002080880031808800300e80008000eb0071
:1055b000008fbe00500e80008000eb00c000dd00b8
:1055c000000020001e0f40005e974800302e800033
:1055d0008000eb00640147000089be00502e80006f
:1055e0008000eb00c000dd000000200064014700e7
:1055f0009201900012017800020040008380480070
:10560000640147000089be001e0078009e009000e3
:10561000b9ec0700c2532e00737823009dee0700fb
:10562000408088005180880064004700900090000e
:1056300010007800b0ec0700c2532e0073782b00e6
:1056400094ee0700608088007180880044808000ac
:105650005580800000808000118080000001be0025
:105660000400be00beec07008080880091808800a6
:105670006480800075808000208080003180800000
:105680000001be000400be00b5ec0700a080880049
:10569000b18088008080800091808000020020001e
